{
  "address": "0xAB45F8FB2ea54524250e6523856bbd94BF01b014",
  "abi": [
    {
      "inputs": [
        {
          "internalType": "address",
          "name": "_poolManager",
          "type": "address"
        },
        {
          "internalType": "address",
          "name": "_mainHook",
          "type": "address"
        }
      ],
      "stateMutability": "nonpayable",
      "type": "constructor"
    },
    {
      "inputs": [],
      "name": "InvalidTick",
      "type": "error"
    },
    {
      "anonymous": false,
      "inputs": [
        {
          "indexed": true,
          "internalType": "address",
          "name": "player",
          "type": "address"
        }
      ],
      "name": "CrossedGo",
      "type": "event"
    },
    {
      "anonymous": false,
      "inputs": [
        {
          "indexed": true,
          "internalType": "address",
          "name": "player",
          "type": "address"
        }
      ],
      "name": "FoundAsSybil",
      "type": "event"
    },
    {
      "anonymous": false,
      "inputs": [
        {
          "indexed": true,
          "internalType": "address",
          "name": "ender",
          "type": "address"
        }
      ],
      "name": "GameEnded",
      "type": "event"
    },
    {
      "anonymous": false,
      "inputs": [
        {
          "indexed": true,
          "internalType": "address",
          "name": "player",
          "type": "address"
        }
      ],
      "name": "GamePlayed",
      "type": "event"
    },
    {
      "anonymous": false,
      "inputs": [
        {
          "indexed": true,
          "internalType": "address",
          "name": "starter",
          "type": "address"
        },
        {
          "indexed": false,
          "internalType": "uint256",
          "name": "gameStarted",
          "type": "uint256"
        }
      ],
      "name": "GameStarted",
      "type": "event"
    },
    {
      "anonymous": false,
      "inputs": [
        {
          "indexed": true,
          "internalType": "address",
          "name": "player",
          "type": "address"
        },
        {
          "indexed": false,
          "internalType": "uint256",
          "name": "amount",
          "type": "uint256"
        }
      ],
      "name": "PlayerWon",
      "type": "event"
    },
    {
      "anonymous": false,
      "inputs": [
        {
          "indexed": true,
          "internalType": "address",
          "name": "player",
          "type": "address"
        },
        {
          "indexed": false,
          "internalType": "uint256",
          "name": "amount",
          "type": "uint256"
        }
      ],
      "name": "ReceivingAirdrop",
      "type": "event"
    },
    {
      "anonymous": false,
      "inputs": [
        {
          "indexed": true,
          "internalType": "address",
          "name": "player",
          "type": "address"
        },
        {
          "indexed": false,
          "internalType": "uint256",
          "name": "amount",
          "type": "uint256"
        }
      ],
      "name": "RentPaid",
      "type": "event"
    },
    {
      "anonymous": false,
      "inputs": [
        {
          "indexed": true,
          "internalType": "address",
          "name": "player",
          "type": "address"
        },
        {
          "indexed": false,
          "internalType": "uint256",
          "name": "dice1",
          "type": "uint256"
        },
        {
          "indexed": false,
          "internalType": "uint256",
          "name": "dice2",
          "type": "uint256"
        }
      ],
      "name": "RolledDice",
      "type": "event"
    },
    {
      "anonymous": false,
      "inputs": [
        {
          "indexed": true,
          "internalType": "address",
          "name": "player",
          "type": "address"
        }
      ],
      "name": "SentToJail",
      "type": "event"
    },
    {
      "anonymous": false,
      "inputs": [
        {
          "indexed": true,
          "internalType": "address",
          "name": "player",
          "type": "address"
        }
      ],
      "name": "UserLose",
      "type": "event"
    },
    {
      "anonymous": false,
      "inputs": [
        {
          "indexed": true,
          "internalType": "address",
          "name": "player",
          "type": "address"
        }
      ],
      "name": "VisitJail",
      "type": "event"
    },
    {
      "inputs": [
        {
          "internalType": "address",
          "name": "player",
          "type": "address"
        }
      ],
      "name": "_removePlayer",
      "outputs": [],
      "stateMutability": "nonpayable",
      "type": "function"
    },
    {
      "inputs": [
        {
          "internalType": "address",
          "name": "user",
          "type": "address"
        }
      ],
      "name": "_rollDice",
      "outputs": [
        {
          "internalType": "bool",
          "name": "snake",
          "type": "bool"
        },
        {
          "internalType": "uint256",
          "name": "total",
          "type": "uint256"
        }
      ],
      "stateMutability": "nonpayable",
      "type": "function"
    },
    {
      "inputs": [
        {
          "internalType": "string[]",
          "name": "list",
          "type": "string[]"
        }
      ],
      "name": "addNames",
      "outputs": [],
      "stateMutability": "nonpayable",
      "type": "function"
    },
    {
      "inputs": [],
      "name": "beginMove",
      "outputs": [],
      "stateMutability": "nonpayable",
      "type": "function"
    },
    {
      "inputs": [
        {
          "internalType": "address",
          "name": "",
          "type": "address"
        }
      ],
      "name": "daysInJail",
      "outputs": [
        {
          "internalType": "uint256",
          "name": "",
          "type": "uint256"
        }
      ],
      "stateMutability": "view",
      "type": "function"
    },
    {
      "inputs": [],
      "name": "getActiveGameID",
      "outputs": [
        {
          "internalType": "uint256",
          "name": "",
          "type": "uint256"
        }
      ],
      "stateMutability": "view",
      "type": "function"
    },
    {
      "inputs": [],
      "name": "getActiveNumberOfPlayers",
      "outputs": [
        {
          "internalType": "uint256",
          "name": "",
          "type": "uint256"
        }
      ],
      "stateMutability": "view",
      "type": "function"
    },
    {
      "inputs": [],
      "name": "getActivePlayers",
      "outputs": [
        {
          "internalType": "address[]",
          "name": "",
          "type": "address[]"
        }
      ],
      "stateMutability": "view",
      "type": "function"
    },
    {
      "inputs": [],
      "name": "getActiveProperties",
      "outputs": [
        {
          "internalType": "contract Property[]",
          "name": "list",
          "type": "address[]"
        }
      ],
      "stateMutability": "view",
      "type": "function"
    },
    {
      "inputs": [],
      "name": "getAllProperties",
      "outputs": [
        {
          "internalType": "string[]",
          "name": "list",
          "type": "string[]"
        }
      ],
      "stateMutability": "view",
      "type": "function"
    },
    {
      "inputs": [
        {
          "internalType": "contract Property",
          "name": "prop",
          "type": "address"
        }
      ],
      "name": "getBalanceOfProperty",
      "outputs": [
        {
          "internalType": "uint256",
          "name": "",
          "type": "uint256"
        }
      ],
      "stateMutability": "view",
      "type": "function"
    },
    {
      "inputs": [],
      "name": "getBankBalance",
      "outputs": [
        {
          "internalType": "uint256",
          "name": "balance",
          "type": "uint256"
        }
      ],
      "stateMutability": "view",
      "type": "function"
    },
    {
      "inputs": [],
      "name": "getBuyIn",
      "outputs": [
        {
          "internalType": "uint256",
          "name": "",
          "type": "uint256"
        }
      ],
      "stateMutability": "view",
      "type": "function"
    },
    {
      "inputs": [],
      "name": "getCurrentChosenCurrency",
      "outputs": [
        {
          "internalType": "address",
          "name": "",
          "type": "address"
        }
      ],
      "stateMutability": "view",
      "type": "function"
    },
    {
      "inputs": [],
      "name": "getCurrentPlayer",
      "outputs": [
        {
          "internalType": "address",
          "name": "player",
          "type": "address"
        }
      ],
      "stateMutability": "view",
      "type": "function"
    },
    {
      "inputs": [],
      "name": "getMyPosition",
      "outputs": [
        {
          "internalType": "uint256",
          "name": "",
          "type": "uint256"
        }
      ],
      "stateMutability": "view",
      "type": "function"
    },
    {
      "inputs": [],
      "name": "getMyProperties",
      "outputs": [
        {
          "internalType": "contract Property[]",
          "name": "",
          "type": "address[]"
        }
      ],
      "stateMutability": "view",
      "type": "function"
    },
    {
      "inputs": [
        {
          "internalType": "address",
          "name": "user",
          "type": "address"
        }
      ],
      "name": "getPlayerPosition",
      "outputs": [
        {
          "internalType": "uint256",
          "name": "position",
          "type": "uint256"
        }
      ],
      "stateMutability": "view",
      "type": "function"
    },
    {
      "inputs": [
        {
          "internalType": "uint256",
          "name": "position",
          "type": "uint256"
        }
      ],
      "name": "getProperty",
      "outputs": [
        {
          "internalType": "contract Property",
          "name": "prop",
          "type": "address"
        }
      ],
      "stateMutability": "view",
      "type": "function"
    },
    {
      "inputs": [
        {
          "internalType": "uint256",
          "name": "",
          "type": "uint256"
        }
      ],
      "name": "idToGameState",
      "outputs": [
        {
          "internalType": "address",
          "name": "currentPlayer",
          "type": "address"
        },
        {
          "internalType": "uint256",
          "name": "numberOfPlayers",
          "type": "uint256"
        },
        {
          "internalType": "address",
          "name": "chosenCurrency",
          "type": "address"
        },
        {
          "internalType": "uint256",
          "name": "buyIn",
          "type": "uint256"
        }
      ],
      "stateMutability": "view",
      "type": "function"
    },
    {
      "inputs": [],
      "name": "joinGame",
      "outputs": [],
      "stateMutability": "nonpayable",
      "type": "function"
    },
    {
      "inputs": [],
      "name": "mainHook",
      "outputs": [
        {
          "internalType": "contract MyHook",
          "name": "",
          "type": "address"
        }
      ],
      "stateMutability": "view",
      "type": "function"
    },
    {
      "inputs": [
        {
          "internalType": "address",
          "name": "",
          "type": "address"
        }
      ],
      "name": "playerToGame",
      "outputs": [
        {
          "internalType": "uint256",
          "name": "",
          "type": "uint256"
        }
      ],
      "stateMutability": "view",
      "type": "function"
    },
    {
      "inputs": [],
      "name": "poolManager",
      "outputs": [
        {
          "internalType": "address",
          "name": "",
          "type": "address"
        }
      ],
      "stateMutability": "view",
      "type": "function"
    },
    {
      "inputs": [
        {
          "internalType": "uint256",
          "name": "amountToSpend",
          "type": "uint256"
        },
        {
          "internalType": "address",
          "name": "property",
          "type": "address"
        }
      ],
      "name": "purchaseProperty",
      "outputs": [
        {
          "internalType": "uint256",
          "name": "",
          "type": "uint256"
        }
      ],
      "stateMutability": "nonpayable",
      "type": "function"
    },
    {
      "inputs": [],
      "name": "randomResult",
      "outputs": [
        {
          "internalType": "uint256",
          "name": "",
          "type": "uint256"
        }
      ],
      "stateMutability": "view",
      "type": "function"
    },
    {
      "inputs": [
        {
          "internalType": "address",
          "name": "token",
          "type": "address"
        }
      ],
      "name": "reclaimTokens",
      "outputs": [],
      "stateMutability": "nonpayable",
      "type": "function"
    },
    {
      "inputs": [
        {
          "internalType": "address",
          "name": "player",
          "type": "address"
        }
      ],
      "name": "returnPropertyUnderPlayer",
      "outputs": [
        {
          "internalType": "address",
          "name": "",
          "type": "address"
        }
      ],
      "stateMutability": "view",
      "type": "function"
    },
    {
      "inputs": [
        {
          "internalType": "uint256",
          "name": "amountToSell",
          "type": "uint256"
        },
        {
          "internalType": "address",
          "name": "property",
          "type": "address"
        }
      ],
      "name": "sellProperty",
      "outputs": [
        {
          "internalType": "uint256",
          "name": "",
          "type": "uint256"
        }
      ],
      "stateMutability": "nonpayable",
      "type": "function"
    },
    {
      "inputs": [
        {
          "internalType": "address",
          "name": "user",
          "type": "address"
        }
      ],
      "name": "sendUserToJail",
      "outputs": [],
      "stateMutability": "nonpayable",
      "type": "function"
    },
    {
      "inputs": [
        {
          "internalType": "address",
          "name": "selectedToken",
          "type": "address"
        },
        {
          "internalType": "uint256",
          "name": "bankStart",
          "type": "uint256"
        }
      ],
      "name": "setUp",
      "outputs": [],
      "stateMutability": "nonpayable",
      "type": "function"
    },
    {
      "inputs": [],
      "name": "startGame",
      "outputs": [],
      "stateMutability": "nonpayable",
      "type": "function"
    },
    {
      "inputs": [
        {
          "internalType": "uint256",
          "name": "stepsFoward",
          "type": "uint256"
        },
        {
          "internalType": "bool",
          "name": "rollAgain",
          "type": "bool"
        }
      ],
      "name": "testMove",
      "outputs": [],
      "stateMutability": "nonpayable",
      "type": "function"
    },
    {
      "inputs": [
        {
          "internalType": "address",
          "name": "",
          "type": "address"
        }
      ],
      "name": "userInJail",
      "outputs": [
        {
          "internalType": "bool",
          "name": "",
          "type": "bool"
        }
      ],
      "stateMutability": "view",
      "type": "function"
    },
    {
      "inputs": [
        {
          "internalType": "address",
          "name": "",
          "type": "address"
        }
      ],
      "name": "userRoll",
      "outputs": [
        {
          "internalType": "bool",
          "name": "",
          "type": "bool"
        }
      ],
      "stateMutability": "view",
      "type": "function"
    },
    {
      "inputs": [
        {
          "internalType": "address",
          "name": "",
          "type": "address"
        }
      ],
      "name": "userRollsRow",
      "outputs": [
        {
          "internalType": "uint256",
          "name": "",
          "type": "uint256"
        }
      ],
      "stateMutability": "view",
      "type": "function"
    }
  ],
  "transactionHash": "0xbae9608c27180d4dd6e684a2a76ac3085cfd6bb57d3b3137a4fe317efd833385",
  "args": [
    "0xf8dAc2c5E2adC5EB0b4e617A0081b743c74840db",
    "0x0220a353bC788Bc84B4dD6F956eAE3Ae4b189703"
  ],
  "numDeployments": 1,
  "solcInputHash": "7a0c43d181ff6dfc96b9087e32fe29a6",
  "bytecode": "0x60c060405234801562000010575f80fd5b5060405162005a3138038062005a318339810160408190526200003391620000ce565b6001600160a01b0382166200009a5760405162461bcd60e51b8152602060048201526024808201527f506f6f6c206d616e6167657220616464726573732063616e6e6f74206265207a60448201526332b9379760e11b606482015260840160405180910390fd5b6001600160a01b039182166080521660a05262000104565b80516001600160a01b0381168114620000c9575f80fd5b919050565b5f8060408385031215620000e0575f80fd5b620000eb83620000b2565b9150620000fb60208401620000b2565b90509250929050565b60805160a0516158da620001575f395f818161053201528181610971015281816109a3015281816116f5015281816117330152818161371c015281816137e8015261396701525f6104e901526158da5ff3fe608060405234801562000010575f80fd5b5060043610620001d0575f3560e01c806303528f3414620001d4578063183bba4114620001f65780631a3c79fd146200020f5780632fdd80891462000231578063321d9807146200025357806332665ffb146200025f578063346a16c4146200027657806335dde55d146200028d578063397f795214620002c35780633c4f5a6614620002dc5780633c5c44d614620002e65780633d51402c14620002fd5780633f831810146200031657806342619f66146200032d57806344cc80441462000337578063476e6172146200034e5780634875ea5514620003585780634e303c60146200036f57806373d6889a14620003865780637b83b50b146200039d578063a15af4bf14620003a7578063a77d2f2c14620003b1578063a910f259146200042c578063ac8653e81462000443578063be3e24651462000468578063c0823f4c1462000497578063c09ca07a14620004ae578063d49e715c14620004b8578063d4f77b1c14620004cf578063d65ab5f214620004d9578063dc4c90d314620004e3578063e16c7673146200050b578063eb81e0981462000522578063f81fff90146200052c578063fb4d50de1462000554578063fc7276581462000576575b5f80fd5b620001de62000580565b604051620001ed919062003fae565b60405180910390f35b62000200620005c2565b604051908152602001620001ed565b620002006200022036600462003fd7565b60076020525f908152604090205481565b620002006200024236600462003fd7565b600e6020525f908152604090205481565b6200025d620005d3565b005b620001de6200027036600462003ff5565b620007a3565b62000200620002873660046200400d565b62000888565b620002b26200029e36600462003fd7565b60066020525f908152604090205460ff1681565b6040519015158152602001620001ed565b620002cd62000bfa565b604051620001ed91906200403e565b620002cd62000e1b565b62000200620002f736600462003fd7565b62000eae565b6200030762000f26565b604051620001ed9190620040dd565b620002006200032736600462003fd7565b62001004565b6200020060025481565b6200025d6200034836600462003fd7565b62001057565b620001de6200141c565b6200025d6200036936600462003fd7565b6200145b565b6200025d620003803660046200418a565b6200153b565b62000200620003973660046200400d565b620015e3565b6200020062001871565b620002006200191d565b620003f6620003c236600462003ff5565b60056020525f908152604090208054600282015460038301546007909301546001600160a01b039283169391929091169084565b604051620001ed94939291906001600160a01b039485168152602081019390935292166040820152606081019190915260800190565b6200025d6200043d366004620042aa565b62001956565b620002b26200045436600462003fd7565b600f6020525f908152604090205460ff1681565b6200047f6200047936600462003fd7565b62001a8e565b604080519215158352602083019190915201620001ed565b6200025d620004a836600462003fd7565b62001bd2565b6200020062001c39565b620001de620004c936600462003fd7565b62001c5b565b6200025d62001d5d565b6200025d62001f61565b620001de7f000000000000000000000000000000000000000000000000000000000000000081565b6200025d6200051c366004620042e5565b620020ef565b620002cd620022c5565b620001de7f000000000000000000000000000000000000000000000000000000000000000081565b620002006200056536600462003fd7565b60046020525f908152604090205481565b6200020062002387565b5f6003545f036200059057505f90565b5f6001600354620005a291906200431f565b5f908152600560205260409020600301546001600160a01b031692915050565b5f620005ce3362001004565b905090565b5f60035411620006005760405162461bcd60e51b8152600401620005f79062004335565b60405180910390fd5b335f818152600b6020908152604080832054808452600590925290912054909162000635916001600160a01b031690620023ee565b5f818152600560205260409020546001600160a01b031633146200066d5760405162461bcd60e51b8152600401620005f7906200435e565b335f9081526006602052604090205460ff166200069e5760405162461bcd60e51b8152600401620005f7906200438e565b335f818152600660205260408120805460ff19169055908190620006c29062001a8e565b335f908152600f6020526040902054919350915060ff161562000703578115620006fd57335f908152600f60205260409020805460ff191690555b505f9050805b6200070f818362002437565b81156200076f57335f908152600660209081526040808320805460ff19166001179055600790915281208054916200074783620043b8565b9091555050335f90815260076020526040902054600310156200076f576200076f3362001bd2565b6200077c83338362002481565b335f9081526006602052604090205460ff166200079e576200079e8362002b76565b505050565b5f80620007af620022c5565b90505f5b81518110156200087f57818181518110620007d257620007d2620043d3565b60200260200101516001600160a01b031663a61b8c0b856040518263ffffffff1660e01b81526004016200080891815260200190565b602060405180830381865afa15801562000824573d5f803e3d5ffd5b505050506040513d601f19601f820116820180604052508101906200084a9190620043e7565b156200087657818181518110620008655762000865620043d3565b602002602001015192505050919050565b600101620007b3565b505f9392505050565b335f908152600b60209081526040808320546001600160a01b03858116808652600d8552838620845160a08101865281548416815260018201548085168289015262ffffff600160a01b82041682880152600160b81b9004600290810b60608301529091015483166080820152838752600590955292852060030154919392859273fffd8963efd1fc6a506488495d951d5263988d2692161115620009335750600190506401000276a45b604080516060810182528315158152602081018990526001600160a01b0383169181019190915287906200096a8833308562002cd0565b62000997887f00000000000000000000000000000000000000000000000000000000000000008b62002d3d565b5f806001600160a01b037f00000000000000000000000000000000000000000000000000000000000000001663d1da87a08885620009d742606462004405565b336040518563ffffffff1660e01b8152600401620009f994939291906200445e565b60408051808303815f875af115801562000a15573d5f803e3d5ffd5b505050506040513d601f19601f8201168201806040525081019062000a3b9190620044af565b915091505f8083121562000a595762000a56835f19620044d2565b90505b5f82121562000a725762000a6f825f19620044d2565b90505b5f62000a7e3362001004565b5f8b81526005602090815260408083206001018054825181850281018501909352808352949550929390929183018282801562000ae357602002820191905f5260205f20905b81546001600160a01b0316815260019091019060200180831162000ac4575b5050505f858152600860205260408120805460ff1916905592935050505b815181101562000bc1575f8e6001600160a01b03166370a0823184848151811062000b305762000b30620043d3565b60200260200101516040518263ffffffff1660e01b815260040162000b56919062003fae565b602060405180830381865afa15801562000b72573d5f803e3d5ffd5b505050506040513d601f19601f8201168201806040525081019062000b98919062004507565b111562000bb8575f838152600860205260409020805460ff191660011790555b60010162000b01565b505f8b81526005602052604090206003015462000be9906001600160a01b0316338562002e49565b505050505050505050505092915050565b60605f62000c07620022c5565b90505f805b825181101562000cc3575f83828151811062000c2c5762000c2c620043d3565b60200260200101516001600160a01b03166370a08231336040518263ffffffff1660e01b815260040162000c61919062003fae565b602060405180830381865afa15801562000c7d573d5f803e3d5ffd5b505050506040513d601f19601f8201168201806040525081019062000ca3919062004507565b111562000cba578162000cb681620043b8565b9250505b60010162000c0c565b505f816001600160401b0381111562000ce05762000ce062004143565b60405190808252806020026020018201604052801562000d0a578160200160208202803683370190505b5090505f805b845181101562000e11575f85828151811062000d305762000d30620043d3565b60200260200101516001600160a01b03166370a08231336040518263ffffffff1660e01b815260040162000d65919062003fae565b602060405180830381865afa15801562000d81573d5f803e3d5ffd5b505050506040513d601f19601f8201168201806040525081019062000da7919062004507565b111562000e085784818151811062000dc35762000dc3620043d3565b602002602001015183838151811062000de05762000de0620043d3565b6001600160a01b03909216602092830291909101909101528162000e0481620043b8565b9250505b60010162000d10565b5090949350505050565b60606003545f0362000e2d5750606090565b5f600160035462000e3f91906200431f565b5f81815260056020908152604091829020600101805483518184028101840190945280845293945091929083018282801562000ea357602002820191905f5260205f20905b81546001600160a01b0316815260019091019060200180831162000e84575b505050505091505090565b6040516370a0823160e01b81525f906001600160a01b038316906370a082319062000ede90339060040162003fae565b602060405180830381865afa15801562000efa573d5f803e3d5ffd5b505050506040513d601f19601f8201168201806040525081019062000f20919062004507565b92915050565b6060600a805480602002602001604051908101604052809291908181526020015f905b8282101562000ffb578382905f5260205f2001805462000f69906200451f565b80601f016020809104026020016040519081016040528092919081815260200182805462000f97906200451f565b801562000fe65780601f1062000fbc5761010080835404028352916020019162000fe6565b820191905f5260205f20905b81548152906001019060200180831162000fc857829003601f168201915b50505050508152602001906001019062000f49565b50505050905090565b5f6003545f036200101657505f919050565b5f60016003546200102891906200431f565b5f9081526005602090815260408083206001600160a01b03909616835260049095019052929092205492915050565b6001600160a01b0381165f908152600b6020908152604080832054808452600590925282206002015490915b5f83815260056020526040902060010154811015620010f9575f83815260056020526040902060010180546001600160a01b038616919083908110620010cd57620010cd620043d3565b5f918252602090912001546001600160a01b031603620010f057809150620010f9565b60010162001083565b505f8281526005602052604090206002015481106200114e5760405162461bcd60e51b815260206004820152601060248201526f141b185e595c881b9bdd08199bdd5b9960821b6044820152606401620005f7565b805b5f8381526005602052604090206001908101546200116f91906200431f565b81101562001219575f8381526005602052604090206001908101906200119790839062004405565b81548110620011aa57620011aa620043d3565b5f9182526020808320909101548583526005909152604090912060010180546001600160a01b039092169183908110620011e857620011e8620043d3565b5f91825260209091200180546001600160a01b0319166001600160a01b039290921691909117905560010162001150565b505f8281526005602052604090206001018054806200123c576200123c62004559565b5f828152602080822083015f1990810180546001600160a01b03191690559092019092558382526005905260409020600101546200127a9062002e6b565b5f82815260056020526040812060020180549162001298836200456d565b90915550505f82815260056020526040902060010154620012b99062002e6b565b5f82815260056020526040902060019081015490036200079e575f82815260056020526040908190206003015490516370a0823160e01b81526001600160a01b03808616927f6e0d11c40e939975aea1b614617340d694125da9ebed64c96cab216ca971564e929116906370a08231906200133990309060040162003fae565b602060405180830381865afa15801562001355573d5f803e3d5ffd5b505050506040513d601f19601f820116820180604052508101906200137b919062004507565b60405190815260200160405180910390a25f82815260056020526040908190206003015490516370a0823160e01b81526200079e916001600160a01b031690859082906370a0823190620013d490309060040162003fae565b602060405180830381865afa158015620013f0573d5f803e3d5ffd5b505050506040513d601f19601f8201168201806040525081019062001416919062004507565b62002e49565b5f6003545f036200142c57505f90565b5f60016003546200143e91906200431f565b5f908152600560205260409020546001600160a01b031692915050565b6040516370a0823160e01b81526001600160a01b0382169063a9059cbb90339083906370a08231906200149390309060040162003fae565b602060405180830381865afa158015620014af573d5f803e3d5ffd5b505050506040513d601f19601f82011682018060405250810190620014d5919062004507565b6040518363ffffffff1660e01b8152600401620014f492919062004585565b6020604051808303815f875af115801562001511573d5f803e3d5ffd5b505050506040513d601f19601f82011682018060405250810190620015379190620043e7565b5050565b600281516200154b9190620045b2565b15620015895760405162461bcd60e51b815260206004820152600c60248201526b26bab9ba1031329032bb32b760a11b6044820152606401620005f7565b5f815111620015ce5760405162461bcd60e51b815260206004820152601060248201526f026bab9ba103430bb329039ba3ab333160851b6044820152606401620005f7565b80516200153790600a90602084019062003ebb565b335f908152600b60209081526040808320546001600160a01b03858116808652600d8552838620845160a081018652815484168152600180830154808616838a015262ffffff600160a01b82041683890152600160b81b9004600290810b606084015290920154841660808201528488526005909652938620600301549294939273fffd8963efd1fc6a506488495d951d5263988d26921611156200168d57505f90506401000276a45b60408051606081018252831515815260208082018a90526001600160a01b03808516838501525f8881526005909252929020600301548992620016d4911633308562002cd0565b5f8681526005602052604090206003015462001727906001600160a01b03167f0000000000000000000000000000000000000000000000000000000000000000620017218c600162004405565b62002eb6565b5f806001600160a01b037f00000000000000000000000000000000000000000000000000000000000000001663d1da87a088856200176742606462004405565b336040518563ffffffff1660e01b81526004016200178994939291906200445e565b60408051808303815f875af1158015620017a5573d5f803e3d5ffd5b505050506040513d601f19601f82011682018060405250810190620017cb9190620044af565b915091505f620017db3362001004565b90506200181360405180604001604052806012815260200171141c9bdc195c9d1e481c1d5c98da185cd95960721b8152508262002f56565b5f8181526008602052604090819020805460ff19166001179055516370a0823160e01b815262001862908c9033906001600160a01b038316906370a0823190620013d490309060040162003fae565b50505050505050505092915050565b5f6003545f036200188157505f90565b5f60016003546200189391906200431f565b5f81815260056020526040908190206003015490516370a0823160e01b81529192506001600160a01b0316906370a0823190620018d590309060040162003fae565b602060405180830381865afa158015620018f1573d5f803e3d5ffd5b505050506040513d601f19601f8201168201806040525081019062001917919062004507565b91505090565b5f6003545f036200192d57505f90565b5f60016003546200193f91906200431f565b5f9081526005602052604090206002015492915050565b620019648233308462002cd0565b600380545f90815260056020818152604080842060019081018054918201815585528285200180546001600160a01b031916339081179091559454948452600b825280842085905593835252908120600201805491620019c483620043b8565b9091555050600380545f908152600560205260409020810180546001600160a01b0319166001600160a01b0385161790555462001a019062002f9f565b6003545f90815260056020908152604091829020600601805483518184028101840190945280845262001a74939283018282801562001a6857602002820191905f5260205f20905b81546001600160a01b0316815260019091019060200180831162001a49575b505050505083620032e7565b60038054905f62001a8583620043b8565b91905055505050565b5f805f600642443360405160200162001ac793929190928352602083019190915260601b6001600160601b031916604082015260540190565b604051602081830303815290604052805190602001205f1c62001aeb9190620045b2565b62001af890600162004405565b90505f60064244338560405160200162001b389493929190938452602084019290925260601b6001600160601b0319166040830152605482015260740190565b604051602081830303815290604052805190602001205f1c62001b5c9190620045b2565b62001b6990600162004405565b905062001b77818362004405565b60408051848152602081018490529194506001600160a01b038716917fb98bd781f8922be86259e959f348b54e83f0edfebaf396d6e64504cbd62c506c910160405180910390a280820362001bcb57600193505b5050915091565b6040516001600160a01b038216907f766bbc01371440eeeea4854ebd8f29d05a580289d44d819c7de25daa5b8f48d0905f90a2335f908152600e602090815260408083208390556001600160a01b03939093168252600f905220805460ff19166001179055565b5f6003545f0362001c4957505f90565b5f600160035462000f2091906200431f565b6001600160a01b0381165f908152600b60205260408120548162001c7f8462001004565b90505f5b5f8381526005602052604090206006015481101562001d53575f83815260056020526040812060060180548390811062001cc15762001cc1620043d3565b5f9182526020909120015460405163a61b8c0b60e01b8152600481018590526001600160a01b039091169150819063a61b8c0b90602401602060405180830381865afa15801562001d14573d5f803e3d5ffd5b505050506040513d601f19601f8201168201806040525081019062001d3a9190620043e7565b1562001d495795945050505050565b5060010162001c83565b505f949350505050565b6003545f0362001d815760405162461bcd60e51b8152600401620005f790620045c8565b5f600160035462001d9391906200431f565b5f8181526005602090815260408083206001018054825181850281018501909352808352949550929390929183018282801562001df857602002820191905f5260205f20905b81546001600160a01b0316815260019091019060200180831162001dd9575b505050505090505f5b815181101562001e885781818151811062001e205762001e20620043d3565b60200260200101516001600160a01b0316336001600160a01b03160362001e7f5760405162461bcd60e51b815260206004820152601260248201527143616e206e6f74206a6f696e20747769636560701b6044820152606401620005f7565b60010162001e01565b505f82815260056020818152604080842060018082018054918201815580875284872090910180546001600160a01b031916339081179091558652600b8452918520879055868552929091525460079091015462001ee79190620045f0565b5f8481526005602052604090206003015490915062001f12906001600160a01b031633308462002cd0565b5f838152600560205260408120600701805483929062001f3490849062004405565b90915550505f83815260056020526040812060020180549162001f5783620043b8565b9190505550505050565b6003545f0362001fb45760405162461bcd60e51b815260206004820152601f60248201527f412067616d6520686173206e6f74206265656e207365745570282920796574006044820152606401620005f7565b5f600160035462001fc691906200431f565b335f818152600660209081526040808320805460ff19166001179055848352600582529182902080546001600160a01b03191684179055600354915191825292935090917fea32a03505fd9f04d664676d72295a86c5fb0465e69654751907ca305bc1d1c7910160405180910390a25f818152600560209081526040808320600301546001600160a01b03168352600c909152812060020154908190036200207457506803cb71f51fc55800005b5f5b5f838152600560205260409020600101548110156200079e575f838152600560205260409020600381015460019091018054620020e6926001600160a01b0316919084908110620020cb57620020cb620043d3565b5f918252602090912001546001600160a01b03168462002e49565b60010162002076565b5f60035411620021135760405162461bcd60e51b8152600401620005f79062004335565b335f818152600b602090815260408083205480845260059092529091205490916001600160a01b03909116146200215e5760405162461bcd60e51b8152600401620005f7906200435e565b335f9081526006602052604090205460ff166200218f5760405162461bcd60e51b8152600401620005f7906200438e565b335f908152600660209081526040808320805460ff19169055600f90915290205460ff16156200224d57335f908152600e60205260408120805491620021d583620043b8565b91905055508180620021f65750335f908152600e6020526040902054600211155b1562002246576200222f6040518060400160405280601081526020016f155cd95c881b19585d995cc81a985a5b60821b81525062003329565b335f908152600f60205260409020805460ff191690555b5f92505f91505b8115620022ad57335f908152600660209081526040808320805460ff19166001179055600790915281208054916200228583620043b8565b9091555050335f9081526007602052604090205460031015620022ad57620022ad3362001bd2565b620022ba81338562002481565b6200079e8162002b76565b60606003545f03620023085760405162461bcd60e51b815260206004820152600b60248201526a139bc819d85b59481e595d60aa1b6044820152606401620005f7565b5f60016003546200231a91906200431f565b5f81815260056020908152604091829020600601805483518184028101840190945280845293945091929083018282801562000ea357602002820191905f5260205f209081546001600160a01b0316815260019091019060200180831162000e8457505050505091505090565b5f6003545f03620023ac5760405162461bcd60e51b8152600401620005f790620045c8565b5f6001600354620023be91906200431f565b5f81815260056020526040812060018101546007909101549293509091620023e79190620045f0565b9392505050565b6200153782826040516024016200240792919062004606565b60408051601f198184030181529190526020810180516001600160e01b0316636d786a5560e11b1790526200336b565b604051602481018390528115156044820152620015379060640160408051601f198184030181529190526020810180516001600160e01b0316631c9d7eb360e01b1790526200336b565b805f036200248e57505050565b5f8381526005602090815260408083206001600160a01b038616845260040190915281208054839290620024c490849062004405565b90915550505f8381526005602090815260408083206001600160a01b038616845260040190915290205460141162002595576040516001600160a01b038316907fa7c84f16d16ce89539ef3107dbb975722be90452c5a84a093ec18dc1023ff716905f90a25f8381526005602052604090206003015462002558906001600160a01b031683678ac7230489e8000062002e49565b5f8381526005602090815260408083206001600160a01b038616845260040190915281208054601492906200258f9084906200431f565b90915550505b5f8381526005602081815260408084206001600160a01b03871685526004019091529091205490819003620025fd576040516001600160a01b038416907fb87793a47333190de0d9c030730dd872177ef7c1f61e8a512cbd5fa600480c23905f90a250505050565b80600a0362002690576001600160a01b0383167f0c44e43c5373f34572493cdf86523be122e7cd9c22f1ae3c128837df3f780b52620026458467016345785d8a000062004620565b60405190815260200160405180910390a25f848152600560205260409020600301546200268a906001600160a01b031684620014168567016345785d8a000062004620565b50505050565b80600f03620026a4576200268a8362001bd2565b805f03620026b25750505050565b6040805180820182526002815261524560f01b6020808301919091525f84815260089091529190912054620026ec919060ff168362003376565b5f8181526008602052604090205460ff16156200268a575f6200270f82620007a3565b604051637533f73760e01b8152600481018490529091505f906001600160a01b03831690637533f73790602401602060405180830381865afa15801562002758573d5f803e3d5ffd5b505050506040513d601f19601f820116820180604052508101906200277e919062004507565b6200279190662386f26fc1000062004620565b5f87815260056020908152604080832060010180548251818502810185019093528083529495509293909291830182828015620027f657602002820191905f5260205f20905b81546001600160a01b03168152600190910190602001808311620027d7575b505050505090505f5b815181101562002b6c575f846001600160a01b03166370a082318484815181106200282e576200282e620043d3565b60200260200101516040518263ffffffff1660e01b815260040162002854919062003fae565b602060405180830381865afa15801562002870573d5f803e3d5ffd5b505050506040513d601f19601f8201168201806040525081019062002896919062004507565b111562002b63575f846001600160a01b03166318160ddd6040518163ffffffff1660e01b8152600401602060405180830381865afa158015620028db573d5f803e3d5ffd5b505050506040513d601f19601f8201168201806040525081019062002901919062004507565b856001600160a01b03166370a08231858581518110620029255762002925620043d3565b60200260200101516040518263ffffffff1660e01b81526004016200294b919062003fae565b602060405180830381865afa15801562002967573d5f803e3d5ffd5b505050506040513d601f19601f820116820180604052508101906200298d919062004507565b62002999908662004620565b620029a59190620045f0565b5f8a815260056020526040908190206003015490516370a0823160e01b815291925082916001600160a01b03909116906370a0823190620029eb908c9060040162003fae565b602060405180830381865afa15801562002a07573d5f803e3d5ffd5b505050506040513d601f19601f8201168201806040525081019062002a2d919062004507565b101562002a7d576040516001600160a01b038916907f99292dd3d22524358aa0d8397df9aaf9c130205fa85bf3f48d44ba6becbb4249905f90a262002a728862001057565b505050505050505050565b5f8981526005602052604090206003015462002aa5906001600160a01b031689308462002cd0565b5f89815260056020526040902060030154835162002aeb916001600160a01b03169085908590811062002adc5762002adc620043d3565b60200260200101518362002e49565b876001600160a01b03167f03b5033869479e8a98af42b272f05933f60489fe9fb43d63e11a6c31f3fa74748260405162002b2791815260200190565b60405180910390a262002b616040518060400160405280600e81526020016d5472616e736665722066756e647360901b8152508262002f56565b505b600101620027ff565b5050505050505050565b5f62002b8282620033c1565b905062002bba604051806040016040528060128152602001714368616e67696e6720706c6179657220746f60701b81525082620034ba565b5f828152600560209081526040918290205482518084019093526006835265383630bcb2b960d11b918301919091526001600160a01b03169062002c0090828462003503565b6001600160a01b0381165f9081526006602052604090205460ff161562002c7d5760405162461bcd60e51b815260206004820152602a60248201527f63616e206e6f74206368616e6765207768696c65206120757365722063616e206044820152691cdd1a5b1b081c9bdb1b60b21b6064820152608401620005f7565b6001600160a01b039081165f9081526007602090815260408083208390559482526005815284822080546001600160a01b031916949093169384179092559182526006905220805460ff19166001179055565b6040516001600160a01b03808516602483015283166044820152606481018290526200268a9085906323b872dd60e01b906084015b60408051601f198184030181529190526020810180516001600160e01b03166001600160e01b0319909316929092179091526200354e565b80158062002dba5750604051636eb1769f60e11b81526001600160a01b0384169063dd62ed3e9062002d76903090869060040162004606565b602060405180830381865afa15801562002d92573d5f803e3d5ffd5b505050506040513d601f19601f8201168201806040525081019062002db8919062004507565b155b62002e275760405162461bcd60e51b815260206004820152603660248201527f5361666545524332303a20617070726f76652066726f6d206e6f6e2d7a65726f60448201527520746f206e6f6e2d7a65726f20616c6c6f77616e636560501b6064820152608401620005f7565b6200079e8363095ea7b360e01b848460405160240162002d0592919062004585565b6200079e8363a9059cbb60e01b848460405160240162002d0592919062004585565b62002eb38160405160240162002e8391815260200190565b60408051601f198184030181529190526020810180516001600160e01b031663f82c50f160e01b1790526200336b565b50565b5f63095ea7b360e01b838360405160240162002ed492919062004585565b60408051601f198184030181529190526020810180516001600160e01b03166001600160e01b031990931692909217909152905062002f14848262003628565b6200268a576040516001600160a01b03841660248201525f604482015262002f4a90859063095ea7b360e01b9060640162002d05565b6200268a84826200354e565b62001537828260405160240162002f6f9291906200463a565b60408051601f198184030181529190526020810180516001600160e01b0316632d839cb360e21b1790526200336b565b604080516080810182526001815260066020820152600b918101919091526010606082015262002fce62003f16565b62002fd862003f16565b62002fe262003f16565b600380545f908152600560209081526040808320909301546001600160a01b03168252600c9052818120825160e081019384905291928290606082019083906004908288855b825461010083900a900460ff168152602060019283018181049485019490930390920291018084116200302857505050928452505060408051608081019182905260209093019291506001840190600490825f855b825461010083900a900460ff168152602060019283018181049485019490930390920291018084116200307d5790505050505050815260200160028201548152505090505f81604001511115620030e0578051602082015190945092506200314e565b6040805160808082018352603c8252607860208084019190915260a08385015260fa60608085019190915284518084018652600a808252601e828501526032828801819052604683850152875195860188526005865293850152601495840195909552820152909550935091505b5f5b600a54811015620032de575f600a8281548110620031725762003172620043d3565b905f5260205f2001600a8360016200318b919062004405565b815481106200319e576200319e620043d3565b905f5260205f2001600489600286620031b89190620045f0565b60048110620031cb57620031cb620043d3565b602002015189620031de600288620045f0565b60048110620031f157620031f1620043d3565b60200201518862003204600289620045f0565b60048110620032175762003217620043d3565b60200201518a6200322a60028a620045f0565b600481106200323d576200323d620043d3565b6020020151604051620032509062003f34565b620032629796959493929190620046de565b604051809103905ff0801580156200327c573d5f803e3d5ffd5b505f8981526005602090815260408220600601805460018101825590835291200180546001600160a01b0319166001600160a01b038316179055905081620032c481620043b8565b925050508080620032d590620043b8565b91505062003150565b50505050505050565b5f5b82518110156200079e575f838281518110620033095762003309620043d3565b602002602001015190506200331f8184620036cf565b50600101620032e9565b62002eb38160405160240162003340919062004739565b60408051601f198184030181529190526020810180516001600160e01b031663104c13eb60e21b1790525b62002eb381620039c2565b6200079e83838360405160240162003391939291906200474d565b60408051601f198184030181529190526020810180516001600160e01b03166364acac6b60e11b1790526200336b565b5f818152600560205260408120546001600160a01b0316815b5f8481526005602052604090206001015481101562003447575f84815260056020526040902060010180546001600160a01b038416919083908110620034245762003424620043d3565b5f918252602090912001546001600160a01b0316146200344757600101620033da565b5f848152600560205260408120600190810154906200346890849062004405565b620034749190620045b2565b5f868152600560205260409020600101805491925090829081106200349d576200349d620043d3565b5f918252602090912001546001600160a01b031695945050505050565b620015378282604051602401620034d392919062004773565b60408051601f198184030181529190526020810180516001600160e01b031663319af33360e01b1790526200336b565b6200079e8383836040516024016200351e939291906200479e565b60408051601f198184030181529190526020810180516001600160e01b03166307e763af60e51b1790526200336b565b5f620035a4826040518060400160405280602081526020017f5361666545524332303a206c6f772d6c6576656c2063616c6c206661696c6564815250856001600160a01b0316620039e19092919063ffffffff16565b905080515f1480620035c7575080806020019051810190620035c79190620043e7565b6200079e5760405162461bcd60e51b815260206004820152602a60248201527f5361666545524332303a204552433230206f7065726174696f6e20646964206e6044820152691bdd081cdd58d8d9595960b21b6064820152608401620005f7565b5f805f846001600160a01b031684604051620036459190620047d2565b5f604051808303815f865af19150503d805f811462003680576040519150601f19603f3d011682016040523d82523d5f602084013e62003685565b606091505b5091509150818015620036b3575080511580620036b3575080806020019051810190620036b39190620043e7565b8015620036c65750620036c685620039f9565b95945050505050565b81816001600160a01b038083169082161015620036e857905b6040805160a0810182526001600160a01b03848116825283811660208084019182525f848601818152603c606087018181527f000000000000000000000000000000000000000000000000000000000000000080881660808a019081528e89168652600d909652988420885181546001600160a01b0319908116918a16919091178255965160018201805495519351918a166001600160b81b031990961695909517600160a01b62ffffff948516021762ffffff60b81b1916600160b81b93909116929092029190911790925592516002909101805490941694169390931790915585938593819084620037dc8162003a08565b90506001600160a01b037f00000000000000000000000000000000000000000000000000000000000000001663c9b5016a83836200381c42600a62004405565b6040518463ffffffff1660e01b81526004016200383c93929190620047ef565b6020604051808303815f875af115801562003859573d5f803e3d5ffd5b505050506040513d601f19601f820116820180604052508101906200387f91906200483b565b508b6001600160a01b031663a6cb55bd6040518163ffffffff1660e01b8152600401602060405180830381865afa158015620038bd573d5f803e3d5ffd5b505050506040513d601f19601f82011682018060405250810190620038e3919062004507565b620038f090600662004620565b8c6001600160a01b03166357fbb5de6040518163ffffffff1660e01b8152600401602060405180830381865afa1580156200392d573d5f803e3d5ffd5b505050506040513d601f19601f8201168201806040525081019062003953919062004507565b6200395f919062004405565b50620039b48c7f00000000000000000000000000000000000000000000000000000000000000008e6001600160a01b03166370a08231306040518263ffffffff1660e01b8152600401620013d4919062003fae565b505050505050505050505050565b5f6a636f6e736f6c652e6c6f6790505f80835160208501845afa505050565b6060620039f184845f8562003d36565b949350505050565b6001600160a01b03163b151590565b5f805f8360020b1262003a1f578260020b62003a26565b8260020b5f035b9050620d89e881111562003a4d576040516333a3bdff60e21b815260040160405180910390fd5b5f816001165f0362003a6457600160801b62003a76565b6ffffcb933bd6fad37aa2d162d1a5940015b6001600160881b03169050600282161562003aa1576ffff97272373d413259a46990580e213a0260801c5b600482161562003ac1576ffff2e50f5f656932ef12357cf3c7fdcc0260801c5b600882161562003ae1576fffe5caca7e10e4e61c3624eaa0941cd00260801c5b601082161562003b01576fffcb9843d60f6159c9db58835c9266440260801c5b602082161562003b21576fff973b41fa98c081472e6896dfb254c00260801c5b604082161562003b41576fff2ea16466c96a3843ec78b326b528610260801c5b608082161562003b61576ffe5dee046a99a2a811c461f1969c30530260801c5b61010082161562003b82576ffcbe86c7900a88aedcffc83b479aa3a40260801c5b61020082161562003ba3576ff987a7253ac413176f2b074cf7815e540260801c5b61040082161562003bc4576ff3392b0822b70005940c7a398e4b70f30260801c5b61080082161562003be5576fe7159475a2c29b7443b29c7fa6e889d90260801c5b61100082161562003c06576fd097f3bdfd2022b8845ad8f792aa58250260801c5b61200082161562003c27576fa9f746462d870fdf8a65dc1f90e061e50260801c5b61400082161562003c48576f70d869a156d2a1b890bb3df62baf32f70260801c5b61800082161562003c69576f31be135f97d08fd981231505542fcfa60260801c5b6201000082161562003c8b576f09aa508b5b7a84e1c677de54f3e99bc90260801c5b6202000082161562003cac576e5d6af8dedb81196699c329225ee6040260801c5b6204000082161562003ccc576d2216e584f5fa1ea926041bedfe980260801c5b6208000082161562003cea576b048a170391f7dc42444e8fa20260801c5b5f8460020b131562003d0d57805f198162003d095762003d096200459e565b0490505b600160201b81061562003d2257600162003d24565b5f5b60ff16602082901c0192505050919050565b60608247101562003d995760405162461bcd60e51b815260206004820152602660248201527f416464726573733a20696e73756666696369656e742062616c616e636520666f6044820152651c8818d85b1b60d21b6064820152608401620005f7565b5f80866001600160a01b0316858760405162003db69190620047d2565b5f6040518083038185875af1925050503d805f811462003df2576040519150601f19603f3d011682016040523d82523d5f602084013e62003df7565b606091505b509150915062003e0a8783838762003e15565b979650505050505050565b6060831562003e885782515f0362003e805762003e3285620039f9565b62003e805760405162461bcd60e51b815260206004820152601d60248201527f416464726573733a2063616c6c20746f206e6f6e2d636f6e74726163740000006044820152606401620005f7565b5081620039f1565b620039f1838381511562003e9f5781518083602001fd5b8060405162461bcd60e51b8152600401620005f7919062004739565b828054828255905f5260205f2090810192821562003f04579160200282015b8281111562003f04578251829062003ef39082620048ac565b509160200191906001019062003eda565b5062003f1292915062003f42565b5090565b60405180608001604052806004906020820280368337509192915050565b610f2c806200497983390190565b8082111562003f12575f62003f58828262003f62565b5060010162003f42565b50805462003f70906200451f565b5f825580601f1062003f80575050565b601f0160209004905f5260205f209081019062002eb391905b8082111562003f12575f815560010162003f99565b6001600160a01b0391909116815260200190565b6001600160a01b038116811462002eb3575f80fd5b5f6020828403121562003fe8575f80fd5b8135620023e78162003fc2565b5f6020828403121562004006575f80fd5b5035919050565b5f80604083850312156200401f575f80fd5b823591506020830135620040338162003fc2565b809150509250929050565b602080825282518282018190525f9190848201906040850190845b81811015620040805783516001600160a01b03168352928401929184019160010162004059565b50909695505050505050565b5f5b83811015620040a85781810151838201526020016200408e565b50505f910152565b5f8151808452620040c98160208601602086016200408c565b601f01601f19169290920160200192915050565b5f60208083016020845280855180835260408601915060408160051b8701019250602087015f5b828110156200413657603f1988860301845262004123858351620040b0565b9450928501929085019060010162004104565b5092979650505050505050565b634e487b7160e01b5f52604160045260245ffd5b604051601f8201601f191681016001600160401b038111828210171562004182576200418262004143565b604052919050565b5f60208083850312156200419c575f80fd5b82356001600160401b0380821115620041b3575f80fd5b8185019150601f86601f840112620041c9575f80fd5b823582811115620041de57620041de62004143565b8060051b620041ef86820162004157565b918252848101860191868101908a84111562004209575f80fd5b87870192505b838310156200429c5782358681111562004227575f80fd5b8701603f81018c1362004238575f80fd5b8881013560408882111562004251576200425162004143565b62004264828901601f19168c0162004157565b8281528e8284860101111562004278575f80fd5b828285018d8301375f9281018c01929092525083525091870191908701906200420f565b9a9950505050505050505050565b5f8060408385031215620042bc575f80fd5b8235620042c98162003fc2565b946020939093013593505050565b801515811462002eb3575f80fd5b5f8060408385031215620042f7575f80fd5b8235915060208301356200403381620042d7565b634e487b7160e01b5f52601160045260245ffd5b8181038181111562000f205762000f206200430b565b6020808252600f908201526e139bc811d85b594810dc99585d1959608a1b604082015260600190565b60208082526016908201527526bab9ba1031329031bab93932b73a10283630bcb2b960511b604082015260600190565b60208082526010908201526f155cd95c8818d85b9b9bdd081c9bdb1b60821b604082015260600190565b5f60018201620043cc57620043cc6200430b565b5060010190565b634e487b7160e01b5f52603260045260245ffd5b5f60208284031215620043f8575f80fd5b8151620023e781620042d7565b8082018082111562000f205762000f206200430b565b80516001600160a01b03908116835260208083015182169084015260408083015162ffffff169084015260608083015160020b9084015260809182015116910152565b61014081016200446f82876200441b565b8451151560a0830152602085015160c08301526040909401516001600160a01b0390811660e0830152610100820193909352911661012090910152919050565b5f8060408385031215620044c1575f80fd5b505080516020909101519092909150565b8082025f8212600160ff1b84141615620044f057620044f06200430b565b818105831482151762000f205762000f206200430b565b5f6020828403121562004518575f80fd5b5051919050565b600181811c908216806200453457607f821691505b6020821081036200455357634e487b7160e01b5f52602260045260245ffd5b50919050565b634e487b7160e01b5f52603160045260245ffd5b5f816200457e576200457e6200430b565b505f190190565b6001600160a01b03929092168252602082015260400190565b634e487b7160e01b5f52601260045260245ffd5b5f82620045c357620045c36200459e565b500690565b6020808252600e908201526d139bc819d85b595cc8195e1a5cdd60921b604082015260600190565b5f826200460157620046016200459e565b500490565b6001600160a01b0392831681529116602082015260400190565b808202811582820484141762000f205762000f206200430b565b604081525f6200464e6040830185620040b0565b90508260208301529392505050565b5f81546200466b816200451f565b8085526020600183811680156200468b5760018114620046a657620046d3565b60ff1985168884015283151560051b880183019550620046d3565b865f52825f205f5b85811015620046cb5781548a8201860152908301908401620046ae565b890184019650505b505050505092915050565b60e081525f620046f260e083018a6200465d565b828103602084015262004706818a6200465d565b6040840198909852505060ff9485166060820152928416608084015290831660a083015290911660c09091015292915050565b602081525f620023e76020830184620040b0565b606081525f620047616060830186620040b0565b93151560208301525060400152919050565b604081525f620047876040830185620040b0565b905060018060a01b03831660208301529392505050565b606081525f620047b26060830186620040b0565b6001600160a01b0394851660208401529290931660409091015292915050565b5f8251620047e58184602087016200408c565b9190910192915050565b5f610100620047ff83876200441b565b6001600160a01b039490941660a08301525060c0810183905260029281019290925261060f60f31b61012083015260e082015261014001919050565b5f602082840312156200484c575f80fd5b81518060020b8114620023e7575f80fd5b601f8211156200079e57805f5260205f20601f840160051c81016020851015620048845750805b601f840160051c820191505b81811015620048a5575f815560010162004890565b5050505050565b81516001600160401b03811115620048c857620048c862004143565b620048e081620048d984546200451f565b846200485d565b602080601f83116001811462004916575f8415620048fe5750858301515b5f19600386901b1c1916600185901b17855562004970565b5f85815260208120601f198616915b82811015620049465788860151825594840194600190910190840162004925565b50858210156200496457878501515f19600388901b60f8161c191681555b505060018460011b0185555b50505050505056fe60a06040525f6007555f6008555f6009556004600a5534801562000021575f80fd5b5060405162000f2c38038062000f2c833981016040819052620000449162000231565b868660036200005483826200034c565b5060046200006382826200034c565b505050620000873386670de0b6b3a76400006200008191906200042c565b620000a7565b336080526006939093556007919091556008556009555062000462915050565b6001600160a01b038216620001025760405162461bcd60e51b815260206004820152601f60248201527f45524332303a206d696e7420746f20746865207a65726f206164647265737300604482015260640160405180910390fd5b8060025f8282546200011591906200044c565b90915550506001600160a01b0382165f81815260208181526040808320805486019055518481527fddf252ad1be2c89b69c2b068fc378daa952ba7f163c4a11628f55a4df523b3ef910160405180910390a35050565b505050565b634e487b7160e01b5f52604160045260245ffd5b5f82601f83011262000194575f80fd5b81516001600160401b0380821115620001b157620001b162000170565b604051601f8301601f19908116603f01168101908282118183101715620001dc57620001dc62000170565b8160405283815260209250866020858801011115620001f9575f80fd5b5f91505b838210156200021c5785820183015181830184015290820190620001fd565b5f602085830101528094505050505092915050565b5f805f805f805f60e0888a03121562000248575f80fd5b87516001600160401b03808211156200025f575f80fd5b6200026d8b838c0162000184565b985060208a015191508082111562000283575f80fd5b50620002928a828b0162000184565b60408a015160608b015160808c015160a08d015160c0909d01519b9e939d50919b909a919950975095509350505050565b600181811c90821680620002d857607f821691505b602082108103620002f757634e487b7160e01b5f52602260045260245ffd5b50919050565b601f8211156200016b57805f5260205f20601f840160051c81016020851015620003245750805b601f840160051c820191505b8181101562000345575f815560010162000330565b5050505050565b81516001600160401b0381111562000368576200036862000170565b6200038081620003798454620002c3565b84620002fd565b602080601f831160018114620003b6575f84156200039e5750858301515b5f19600386901b1c1916600185901b17855562000410565b5f85815260208120601f198616915b82811015620003e657888601518255948401946001909101908401620003c5565b50858210156200040457878501515f19600388901b60f8161c191681555b505060018460011b0185555b505050505050565b634e487b7160e01b5f52601160045260245ffd5b808202811582820484141762000446576200044662000418565b92915050565b8082018082111562000446576200044662000418565b608051610ab16200047b5f395f6103240152610ab15ff3fe608060405234801561000f575f80fd5b50600436106100d9575f3560e01c806306fdde03146100dd578063095ea7b3146100fb57806318160ddd1461011e57806323b872dd14610130578063313ce56714610143578063395093511461015257806357fbb5de146101655780636534ccd21461016d57806370a08231146101825780637533f737146101aa57806395d89b41146101bd578063a457c2d7146101c5578063a61b8c0b146101d8578063a6cb55bd146101eb578063a9059cbb146101f3578063dd62ed3e14610206578063e757223014610219575b5f80fd5b6100e561022c565b6040516100f291906108b0565b60405180910390f35b61010e610109366004610917565b6102bc565b60405190151581526020016100f2565b6002545b6040519081526020016100f2565b61010e61013e36600461093f565b6102d5565b604051601281526020016100f2565b61010e610160366004610917565b6102f8565b600754610122565b61018061017b366004610978565b610319565b005b610122610190366004610978565b6001600160a01b03165f9081526020819052604090205490565b6101226101b8366004610998565b610378565b6100e56103bc565b61010e6101d3366004610917565b6103cb565b61010e6101e6366004610998565b61044a565b600954610122565b61010e610201366004610917565b610480565b6101226102143660046109af565b61048d565b610122610227366004610998565b6104b7565b60606003805461023b906109e0565b80601f0160208091040260200160405190810160405280929190818152602001828054610267906109e0565b80156102b25780601f10610289576101008083540402835291602001916102b2565b820191905f5260205f20905b81548152906001019060200180831161029557829003601f168201915b5050505050905090565b5f336102c98185856104f5565b60019150505b92915050565b5f336102e2858285610618565b6102ed858585610690565b506001949350505050565b5f336102c981858561030a838361048d565b6103149190610a26565b6104f5565b336001600160a01b037f0000000000000000000000000000000000000000000000000000000000000000161461034d575f80fd5b6001600160a01b0381165f90815260056020526040812080549161037083610a39565b919050555050565b5f80600654836103889190610a51565b9050806009546103989190610a64565b6008546103a59190610a26565b91506103b660085460095483610832565b50919050565b60606004805461023b906109e0565b5f33816103d8828661048d565b90508381101561043d5760405162461bcd60e51b815260206004820152602560248201527f45524332303a2064656372656173656420616c6c6f77616e63652062656c6f77604482015264207a65726f60d81b60648201526084015b60405180910390fd5b6102ed82868684036104f5565b5f816006541115801561046c5750600a546006546104689190610a26565b8211155b1561047957506001919050565b505f919050565b5f336102c9818585610690565b6001600160a01b039182165f90815260016020908152604080832093909416825291909152205490565b5f80600654836104c79190610a51565b9050806009546104d79190610a64565b6007546104e49190610a26565b91506103b660075460095483610832565b6001600160a01b0383166105575760405162461bcd60e51b8152602060048201526024808201527f45524332303a20617070726f76652066726f6d20746865207a65726f206164646044820152637265737360e01b6064820152608401610434565b6001600160a01b0382166105b85760405162461bcd60e51b815260206004820152602260248201527f45524332303a20617070726f766520746f20746865207a65726f206164647265604482015261737360f01b6064820152608401610434565b6001600160a01b038381165f8181526001602090815260408083209487168084529482529182902085905590518481527f8c5be1e5ebec7d5bd14f71427d1e84f3dd0314c0f7b2291e5b200ac8c7c3b925910160405180910390a3505050565b5f610623848461048d565b90505f19811461068a578181101561067d5760405162461bcd60e51b815260206004820152601d60248201527f45524332303a20696e73756666696369656e7420616c6c6f77616e63650000006044820152606401610434565b61068a84848484036104f5565b50505050565b6001600160a01b0383166106f45760405162461bcd60e51b815260206004820152602560248201527f45524332303a207472616e736665722066726f6d20746865207a65726f206164604482015264647265737360d81b6064820152608401610434565b6001600160a01b0382166107565760405162461bcd60e51b815260206004820152602360248201527f45524332303a207472616e7366657220746f20746865207a65726f206164647260448201526265737360e81b6064820152608401610434565b6001600160a01b0383165f90815260208190526040902054818110156107cd5760405162461bcd60e51b815260206004820152602660248201527f45524332303a207472616e7366657220616d6f756e7420657863656564732062604482015265616c616e636560d01b6064820152608401610434565b6001600160a01b038481165f81815260208181526040808320878703905593871680835291849020805487019055925185815290927fddf252ad1be2c89b69c2b068fc378daa952ba7f163c4a11628f55a4df523b3ef910160405180910390a361068a565b6040516024810184905260448101839052606481018290526108809060840160408051601f198184030181529190526020810180516001600160e01b031663347b5e8f60e21b179052610885565b505050565b61088e81610891565b50565b5f6a636f6e736f6c652e6c6f6790505f80835160208501845afa505050565b5f602080835283518060208501525f5b818110156108dc578581018301518582016040015282016108c0565b505f604082860101526040601f19601f8301168501019250505092915050565b80356001600160a01b0381168114610912575f80fd5b919050565b5f8060408385031215610928575f80fd5b610931836108fc565b946020939093013593505050565b5f805f60608486031215610951575f80fd5b61095a846108fc565b9250610968602085016108fc565b9150604084013590509250925092565b5f60208284031215610988575f80fd5b610991826108fc565b9392505050565b5f602082840312156109a8575f80fd5b5035919050565b5f80604083850312156109c0575f80fd5b6109c9836108fc565b91506109d7602084016108fc565b90509250929050565b600181811c908216806109f457607f821691505b6020821081036103b657634e487b7160e01b5f52602260045260245ffd5b634e487b7160e01b5f52601160045260245ffd5b808201808211156102cf576102cf610a12565b5f60018201610a4a57610a4a610a12565b5060010190565b818103818111156102cf576102cf610a12565b80820281158282048414176102cf576102cf610a1256fea26469706673582212206313d616a51b582b76e87bb991f66149da1cf5c3614ade103a1bb75754a9087564736f6c63430008180033a2646970667358221220052e9cb95de8a09cf06be9785cefc909ac8e75a911771be4ec4f86561c5efbaa64736f6c63430008180033",
  "devdoc": {
    "kind": "dev",
    "methods": {},
    "version": 1
  },
  "userdoc": {
    "errors": {
      "InvalidTick()": [
        {
          "notice": "Thrown when the tick passed to #getSqrtRatioAtTick is not between MIN_TICK and MAX_TICK"
        }
      ]
    },
    "kind": "user",
    "methods": {},
    "version": 1
  },
  "storageLayout": {
    "storage": [
      {
        "astId": 3251,
        "contract": "contracts/TokenTown/Game.sol:Game",
        "label": "keyHash",
        "offset": 0,
        "slot": "0",
        "type": "t_bytes32"
      },
      {
        "astId": 3253,
        "contract": "contracts/TokenTown/Game.sol:Game",
        "label": "fee",
        "offset": 0,
        "slot": "1",
        "type": "t_uint256"
      },
      {
        "astId": 3255,
        "contract": "contracts/TokenTown/Game.sol:Game",
        "label": "randomResult",
        "offset": 0,
        "slot": "2",
        "type": "t_uint256"
      },
      {
        "astId": 3262,
        "contract": "contracts/TokenTown/Game.sol:Game",
        "label": "gameID",
        "offset": 0,
        "slot": "3",
        "type": "t_uint256"
      },
      {
        "astId": 3266,
        "contract": "contracts/TokenTown/Game.sol:Game",
        "label": "playerToGame",
        "offset": 0,
        "slot": "4",
        "type": "t_mapping(t_address,t_uint256)"
      },
      {
        "astId": 3271,
        "contract": "contracts/TokenTown/Game.sol:Game",
        "label": "idToGameState",
        "offset": 0,
        "slot": "5",
        "type": "t_mapping(t_uint256,t_struct(GameState)5952_storage)"
      },
      {
        "astId": 3275,
        "contract": "contracts/TokenTown/Game.sol:Game",
        "label": "userRoll",
        "offset": 0,
        "slot": "6",
        "type": "t_mapping(t_address,t_bool)"
      },
      {
        "astId": 3279,
        "contract": "contracts/TokenTown/Game.sol:Game",
        "label": "userRollsRow",
        "offset": 0,
        "slot": "7",
        "type": "t_mapping(t_address,t_uint256)"
      },
      {
        "astId": 3283,
        "contract": "contracts/TokenTown/Game.sol:Game",
        "label": "rentExists",
        "offset": 0,
        "slot": "8",
        "type": "t_mapping(t_uint256,t_bool)"
      },
      {
        "astId": 3288,
        "contract": "contracts/TokenTown/Game.sol:Game",
        "label": "usersThatOwn",
        "offset": 0,
        "slot": "9",
        "type": "t_mapping(t_uint256,t_array(t_address)dyn_storage)"
      },
      {
        "astId": 3291,
        "contract": "contracts/TokenTown/Game.sol:Game",
        "label": "usualNamesAndSymbols",
        "offset": 0,
        "slot": "10",
        "type": "t_array(t_string_storage)dyn_storage"
      },
      {
        "astId": 3298,
        "contract": "contracts/TokenTown/Game.sol:Game",
        "label": "addressToGame",
        "offset": 0,
        "slot": "11",
        "type": "t_mapping(t_address,t_uint256)"
      },
      {
        "astId": 3303,
        "contract": "contracts/TokenTown/Game.sol:Game",
        "label": "getCurrencyInfo",
        "offset": 0,
        "slot": "12",
        "type": "t_mapping(t_address,t_struct(TokenInfo)3314_storage)"
      },
      {
        "astId": 3319,
        "contract": "contracts/TokenTown/Game.sol:Game",
        "label": "addressToKey",
        "offset": 0,
        "slot": "13",
        "type": "t_mapping(t_address,t_struct(PoolKey)15649_storage)"
      },
      {
        "astId": 5417,
        "contract": "contracts/TokenTown/Game.sol:Game",
        "label": "daysInJail",
        "offset": 0,
        "slot": "14",
        "type": "t_mapping(t_address,t_uint256)"
      },
      {
        "astId": 5421,
        "contract": "contracts/TokenTown/Game.sol:Game",
        "label": "userInJail",
        "offset": 0,
        "slot": "15",
        "type": "t_mapping(t_address,t_bool)"
      }
    ],
    "types": {
      "t_address": {
        "encoding": "inplace",
        "label": "address",
        "numberOfBytes": "20"
      },
      "t_array(t_address)dyn_storage": {
        "base": "t_address",
        "encoding": "dynamic_array",
        "label": "address[]",
        "numberOfBytes": "32"
      },
      "t_array(t_contract(Property)6160)dyn_storage": {
        "base": "t_contract(Property)6160",
        "encoding": "dynamic_array",
        "label": "contract Property[]",
        "numberOfBytes": "32"
      },
      "t_array(t_string_storage)dyn_storage": {
        "base": "t_string_storage",
        "encoding": "dynamic_array",
        "label": "string[]",
        "numberOfBytes": "32"
      },
      "t_array(t_uint8)4_storage": {
        "base": "t_uint8",
        "encoding": "inplace",
        "label": "uint8[4]",
        "numberOfBytes": "32"
      },
      "t_bool": {
        "encoding": "inplace",
        "label": "bool",
        "numberOfBytes": "1"
      },
      "t_bytes32": {
        "encoding": "inplace",
        "label": "bytes32",
        "numberOfBytes": "32"
      },
      "t_contract(IHooks)9429": {
        "encoding": "inplace",
        "label": "contract IHooks",
        "numberOfBytes": "20"
      },
      "t_contract(Property)6160": {
        "encoding": "inplace",
        "label": "contract Property",
        "numberOfBytes": "20"
      },
      "t_int24": {
        "encoding": "inplace",
        "label": "int24",
        "numberOfBytes": "3"
      },
      "t_mapping(t_address,t_address)": {
        "encoding": "mapping",
        "key": "t_address",
        "label": "mapping(address => address)",
        "numberOfBytes": "32",
        "value": "t_address"
      },
      "t_mapping(t_address,t_bool)": {
        "encoding": "mapping",
        "key": "t_address",
        "label": "mapping(address => bool)",
        "numberOfBytes": "32",
        "value": "t_bool"
      },
      "t_mapping(t_address,t_struct(PoolKey)15649_storage)": {
        "encoding": "mapping",
        "key": "t_address",
        "label": "mapping(address => struct PoolKey)",
        "numberOfBytes": "32",
        "value": "t_struct(PoolKey)15649_storage"
      },
      "t_mapping(t_address,t_struct(TokenInfo)3314_storage)": {
        "encoding": "mapping",
        "key": "t_address",
        "label": "mapping(address => struct Game.TokenInfo)",
        "numberOfBytes": "32",
        "value": "t_struct(TokenInfo)3314_storage"
      },
      "t_mapping(t_address,t_uint256)": {
        "encoding": "mapping",
        "key": "t_address",
        "label": "mapping(address => uint256)",
        "numberOfBytes": "32",
        "value": "t_uint256"
      },
      "t_mapping(t_uint256,t_array(t_address)dyn_storage)": {
        "encoding": "mapping",
        "key": "t_uint256",
        "label": "mapping(uint256 => address[])",
        "numberOfBytes": "32",
        "value": "t_array(t_address)dyn_storage"
      },
      "t_mapping(t_uint256,t_bool)": {
        "encoding": "mapping",
        "key": "t_uint256",
        "label": "mapping(uint256 => bool)",
        "numberOfBytes": "32",
        "value": "t_bool"
      },
      "t_mapping(t_uint256,t_struct(GameState)5952_storage)": {
        "encoding": "mapping",
        "key": "t_uint256",
        "label": "mapping(uint256 => struct IGame.GameState)",
        "numberOfBytes": "32",
        "value": "t_struct(GameState)5952_storage"
      },
      "t_string_storage": {
        "encoding": "bytes",
        "label": "string",
        "numberOfBytes": "32"
      },
      "t_struct(GameState)5952_storage": {
        "encoding": "inplace",
        "label": "struct IGame.GameState",
        "members": [
          {
            "astId": 5930,
            "contract": "contracts/TokenTown/Game.sol:Game",
            "label": "currentPlayer",
            "offset": 0,
            "slot": "0",
            "type": "t_address"
          },
          {
            "astId": 5933,
            "contract": "contracts/TokenTown/Game.sol:Game",
            "label": "players",
            "offset": 0,
            "slot": "1",
            "type": "t_array(t_address)dyn_storage"
          },
          {
            "astId": 5935,
            "contract": "contracts/TokenTown/Game.sol:Game",
            "label": "numberOfPlayers",
            "offset": 0,
            "slot": "2",
            "type": "t_uint256"
          },
          {
            "astId": 5937,
            "contract": "contracts/TokenTown/Game.sol:Game",
            "label": "chosenCurrency",
            "offset": 0,
            "slot": "3",
            "type": "t_address"
          },
          {
            "astId": 5941,
            "contract": "contracts/TokenTown/Game.sol:Game",
            "label": "playerPosition",
            "offset": 0,
            "slot": "4",
            "type": "t_mapping(t_address,t_uint256)"
          },
          {
            "astId": 5945,
            "contract": "contracts/TokenTown/Game.sol:Game",
            "label": "playerOwnedProperty",
            "offset": 0,
            "slot": "5",
            "type": "t_mapping(t_address,t_address)"
          },
          {
            "astId": 5949,
            "contract": "contracts/TokenTown/Game.sol:Game",
            "label": "propertyList",
            "offset": 0,
            "slot": "6",
            "type": "t_array(t_contract(Property)6160)dyn_storage"
          },
          {
            "astId": 5951,
            "contract": "contracts/TokenTown/Game.sol:Game",
            "label": "buyIn",
            "offset": 0,
            "slot": "7",
            "type": "t_uint256"
          }
        ],
        "numberOfBytes": "256"
      },
      "t_struct(PoolKey)15649_storage": {
        "encoding": "inplace",
        "label": "struct PoolKey",
        "members": [
          {
            "astId": 15634,
            "contract": "contracts/TokenTown/Game.sol:Game",
            "label": "currency0",
            "offset": 0,
            "slot": "0",
            "type": "t_userDefinedValueType(Currency)15324"
          },
          {
            "astId": 15638,
            "contract": "contracts/TokenTown/Game.sol:Game",
            "label": "currency1",
            "offset": 0,
            "slot": "1",
            "type": "t_userDefinedValueType(Currency)15324"
          },
          {
            "astId": 15641,
            "contract": "contracts/TokenTown/Game.sol:Game",
            "label": "fee",
            "offset": 20,
            "slot": "1",
            "type": "t_uint24"
          },
          {
            "astId": 15644,
            "contract": "contracts/TokenTown/Game.sol:Game",
            "label": "tickSpacing",
            "offset": 23,
            "slot": "1",
            "type": "t_int24"
          },
          {
            "astId": 15648,
            "contract": "contracts/TokenTown/Game.sol:Game",
            "label": "hooks",
            "offset": 0,
            "slot": "2",
            "type": "t_contract(IHooks)9429"
          }
        ],
        "numberOfBytes": "96"
      },
      "t_struct(TokenInfo)3314_storage": {
        "encoding": "inplace",
        "label": "struct Game.TokenInfo",
        "members": [
          {
            "astId": 3307,
            "contract": "contracts/TokenTown/Game.sol:Game",
            "label": "priceStarts",
            "offset": 0,
            "slot": "0",
            "type": "t_array(t_uint8)4_storage"
          },
          {
            "astId": 3311,
            "contract": "contracts/TokenTown/Game.sol:Game",
            "label": "priceChanges",
            "offset": 0,
            "slot": "1",
            "type": "t_array(t_uint8)4_storage"
          },
          {
            "astId": 3313,
            "contract": "contracts/TokenTown/Game.sol:Game",
            "label": "userStart",
            "offset": 0,
            "slot": "2",
            "type": "t_uint256"
          }
        ],
        "numberOfBytes": "96"
      },
      "t_uint24": {
        "encoding": "inplace",
        "label": "uint24",
        "numberOfBytes": "3"
      },
      "t_uint256": {
        "encoding": "inplace",
        "label": "uint256",
        "numberOfBytes": "32"
      },
      "t_uint8": {
        "encoding": "inplace",
        "label": "uint8",
        "numberOfBytes": "1"
      },
      "t_userDefinedValueType(Currency)15324": {
        "encoding": "inplace",
        "label": "Currency",
        "numberOfBytes": "20"
      }
    }
  }
}