{
  "address": "0x79AFFF39B67251c18938681653c7F79D08858bd9",
  "abi": [
    {
      "inputs": [],
      "stateMutability": "nonpayable",
      "type": "constructor"
    },
    {
      "anonymous": false,
      "inputs": [
        {
          "indexed": false,
          "internalType": "uint256",
          "name": "requestId",
          "type": "uint256"
        },
        {
          "indexed": false,
          "internalType": "uint256[]",
          "name": "randomWords",
          "type": "uint256[]"
        },
        {
          "indexed": false,
          "internalType": "uint256",
          "name": "payment",
          "type": "uint256"
        }
      ],
      "name": "RequestFulfilled",
      "type": "event"
    },
    {
      "anonymous": false,
      "inputs": [
        {
          "indexed": false,
          "internalType": "uint256",
          "name": "requestId",
          "type": "uint256"
        },
        {
          "indexed": false,
          "internalType": "uint32",
          "name": "numWords",
          "type": "uint32"
        }
      ],
      "name": "RequestSent",
      "type": "event"
    },
    {
      "inputs": [
        {
          "internalType": "uint32",
          "name": "_origin",
          "type": "uint32"
        },
        {
          "internalType": "bytes32",
          "name": "_sender",
          "type": "bytes32"
        },
        {
          "internalType": "bytes",
          "name": "_data",
          "type": "bytes"
        }
      ],
      "name": "handle",
      "outputs": [],
      "stateMutability": "payable",
      "type": "function"
    },
    {
      "inputs": [],
      "name": "interchainSecurityModule",
      "outputs": [
        {
          "internalType": "contract IInterchainSecurityModule",
          "name": "",
          "type": "address"
        }
      ],
      "stateMutability": "view",
      "type": "function"
    },
    {
      "inputs": [],
      "name": "ism",
      "outputs": [
        {
          "internalType": "address",
          "name": "",
          "type": "address"
        }
      ],
      "stateMutability": "view",
      "type": "function"
    },
    {
      "inputs": [],
      "name": "lastRequestId",
      "outputs": [
        {
          "internalType": "uint256",
          "name": "",
          "type": "uint256"
        }
      ],
      "stateMutability": "view",
      "type": "function"
    },
    {
      "inputs": [],
      "name": "msgCount",
      "outputs": [
        {
          "internalType": "uint256",
          "name": "",
          "type": "uint256"
        }
      ],
      "stateMutability": "view",
      "type": "function"
    },
    {
      "inputs": [
        {
          "internalType": "uint256",
          "name": "_requestId",
          "type": "uint256"
        },
        {
          "internalType": "uint256[]",
          "name": "_randomWords",
          "type": "uint256[]"
        }
      ],
      "name": "rawFulfillRandomWords",
      "outputs": [],
      "stateMutability": "nonpayable",
      "type": "function"
    },
    {
      "inputs": [
        {
          "internalType": "address",
          "name": "token",
          "type": "address"
        }
      ],
      "name": "reclaimTokens",
      "outputs": [],
      "stateMutability": "nonpayable",
      "type": "function"
    },
    {
      "inputs": [
        {
          "internalType": "uint256",
          "name": "",
          "type": "uint256"
        }
      ],
      "name": "requestIds",
      "outputs": [
        {
          "internalType": "uint256",
          "name": "",
          "type": "uint256"
        }
      ],
      "stateMutability": "view",
      "type": "function"
    },
    {
      "inputs": [],
      "name": "requestRandomWords",
      "outputs": [
        {
          "internalType": "uint256",
          "name": "requestId",
          "type": "uint256"
        }
      ],
      "stateMutability": "nonpayable",
      "type": "function"
    },
    {
      "inputs": [
        {
          "internalType": "uint256",
          "name": "",
          "type": "uint256"
        }
      ],
      "name": "s_requests",
      "outputs": [
        {
          "internalType": "uint256",
          "name": "paid",
          "type": "uint256"
        },
        {
          "internalType": "bool",
          "name": "fulfilled",
          "type": "bool"
        }
      ],
      "stateMutability": "view",
      "type": "function"
    },
    {
      "inputs": [
        {
          "internalType": "address",
          "name": "to",
          "type": "address"
        },
        {
          "internalType": "uint32",
          "name": "toDomain",
          "type": "uint32"
        },
        {
          "internalType": "bytes",
          "name": "data",
          "type": "bytes"
        }
      ],
      "name": "sendMessage",
      "outputs": [],
      "stateMutability": "nonpayable",
      "type": "function"
    },
    {
      "inputs": [
        {
          "internalType": "address",
          "name": "gI",
          "type": "address"
        }
      ],
      "name": "setGameInteract",
      "outputs": [],
      "stateMutability": "nonpayable",
      "type": "function"
    },
    {
      "inputs": [],
      "name": "withdrawLink",
      "outputs": [],
      "stateMutability": "nonpayable",
      "type": "function"
    }
  ],
  "transactionHash": "0xa145e9733d2df755017813f3dd525915d858703fbec29eea4fe12cc7eea25639",
  "args": [],
  "numDeployments": 1,
  "solcInputHash": "65006984357480f4b4c5a878c89b035d",
  "bytecode": "0x60c06040525f80546001600160e01b0319167a014a3400066eeec1bf61b01b00a44ac253ef66f9de52dadb99d943179055600180547398f4b1fb7ba2737590fb1349b49758be05d9b35c6001600160a01b031991821617909155600280547339ce94a1e6aa7b9cdb9278d09c3b6a2c54f58fd4908316179055600780546001600160f01b0319167db1d4538b4571d411f07960ef2838ce337fe1e80e00000002000300061a8017905560088054731d3bb92db7659f2062438791f131cfa396dfb59292169190911790553480156100d4575f80fd5b506007546008546001600160a01b036a010000000000000000000090920482166080521660a05260805160a05161101d6101315f395f818161027701528181610694015281816109b60152610aba01525f61098c015261101d5ff3fe6080604052600436106100a1575f3560e01c80631f2aae8e146100a55780631fe543e3146100e35780634875ea55146101025780634deefab21461012157806356d5d475146101555780638796ba8c146101685780638dc654a2146101955780638f1a2810146101a9578063a168fa89146101be578063bd3bebf014610208578063de523cf314610227578063e0c8628914610243578063fc2a88c314610257575b5f80fd5b3480156100b0575f80fd5b506100e16100bf366004610bb8565b600380546001600160a01b0319166001600160a01b0392909216919091179055565b005b3480156100ee575f80fd5b506100e16100fd366004610c1c565b61026c565b34801561010d575f80fd5b506100e161011c366004610bb8565b6102f7565b34801561012c575f80fd5b505f5461013f906001600160a01b031681565b60405161014c9190610cc8565b60405180910390f35b6100e1610163366004610cef565b6103c9565b348015610173575f80fd5b50610187610182366004610d6e565b6103ec565b60405190815260200161014c565b3480156101a0575f80fd5b506100e161040b565b3480156101b4575f80fd5b5061018760095481565b3480156101c9575f80fd5b506101f36101d8366004610d6e565b60046020525f90815260409020805460019091015460ff1682565b6040805192835290151560208301520161014c565b348015610213575f80fd5b506100e1610222366004610d85565b61052d565b348015610232575f80fd5b505f546001600160a01b031661013f565b34801561024e575f80fd5b5061018761063b565b348015610262575f80fd5b5061018760065481565b336001600160a01b037f000000000000000000000000000000000000000000000000000000000000000016146102e95760405162461bcd60e51b815260206004820152601f60248201527f6f6e6c792056524620563220777261707065722063616e2066756c66696c6c0060448201526064015b60405180910390fd5b6102f382826107e5565b5050565b6040516370a0823160e01b81526001600160a01b0382169063a9059cbb90339083906370a082319061032d903090600401610cc8565b602060405180830381865afa158015610348573d5f803e3d5ffd5b505050506040513d601f19601f8201168201806040525081019061036c9190610e33565b6040518363ffffffff1660e01b8152600401610389929190610e4a565b6020604051808303815f875af11580156103a5573d5f803e3d5ffd5b505050506040513d601f19601f820116820180604052508101906102f39190610e63565b60098054905f6103d883610e96565b91905055506103e561063b565b5050505050565b600581815481106103fb575f80fd5b5f91825260209091200154905081565b6007546040516370a0823160e01b8152600160501b9091046001600160a01b031690819063a9059cbb90339083906370a082319061044d903090600401610cc8565b602060405180830381865afa158015610468573d5f803e3d5ffd5b505050506040513d601f19601f8201168201806040525081019061048c9190610e33565b6040518363ffffffff1660e01b81526004016104a9929190610e4a565b6020604051808303815f875af11580156104c5573d5f803e3d5ffd5b505050506040513d601f19601f820116820180604052508101906104e99190610e63565b61052a5760405162461bcd60e51b81526020600482015260126024820152712ab730b13632903a37903a3930b739b332b960711b60448201526064016102e0565b50565b6001546001600160a01b0316825f61054b866001600160a01b031690565b90505f836001600160a01b0316639c42bd188484886040518463ffffffff1660e01b815260040161057e93929190610ef1565b602060405180830381865afa158015610599573d5f803e3d5ffd5b505050506040513d601f19601f820116820180604052508101906105bd9190610e33565b9050836001600160a01b031663fa31de01828585896040518563ffffffff1660e01b81526004016105f093929190610ef1565b60206040518083038185885af115801561060c573d5f803e3d5ffd5b50505050506040513d601f19601f820116820180604052508101906106319190610e33565b5050505050505050565b6007545f906106679063ffffffff8082169161ffff600160201b82041691600160301b90910416610967565b6040805160608101918290526007546310c1b4d560e21b90925263ffffffff9091166064820152909150807f00000000000000000000000000000000000000000000000000000000000000006001600160a01b0316634306d35460848301602060405180830381865afa1580156106e0573d5f803e3d5ffd5b505050506040513d601f19601f820116820180604052508101906107049190610e33565b81525f6020808301829052604080518381528083018252938101939093528482526004815290829020835181558382015160018201805460ff191691151591909117905591830151805161075e9260028501920190610b40565b5050600580546001810182555f919091527f036b6384b5eca791c62761152d0c79bb0604c104a5fb6f4eb0703f3154bb3db00182905550600681905560075460408051838152600160301b90920463ffffffff1660208301527fcc58b13ad3eab50626c6a6300b1d139cd6ebb1688a7cced9461c2f7e762665ee910160405180910390a190565b5f828152600460205260409020546108335760405162461bcd60e51b81526020600482015260116024820152701c995c5d595cdd081b9bdd08199bdd5b99607a1b60448201526064016102e0565b5f8281526004602090815260409091206001818101805460ff19169091179055825161086792600290920191840190610b40565b505f82815260046020526040908190205490517f147eb1ff0c82f87f2b03e2c43f5a36488ff63ec6b730195fde4605f612f8db51916108a99185918591610f1e565b60405180910390a15f600c825f815181106108c6576108c6610f75565b60200260200101516108d89190610f89565b6108e3906001610fa8565b600c836001815181106108f8576108f8610f75565b602002602001015161090a9190610f89565b610915906001610fa8565b60408051602081019390935282015260600160408051808303601f190181529190526003545f54919250610962916001600160a01b0390911690600160c01b900463ffffffff168361052d565b505050565b6040516310c1b4d560e21b815263ffffffff841660048201525f906001600160a01b037f0000000000000000000000000000000000000000000000000000000000000000811691634000aea0917f00000000000000000000000000000000000000000000000000000000000000009190821690634306d35490602401602060405180830381865afa1580156109fe573d5f803e3d5ffd5b505050506040513d601f19601f82011682018060405250810190610a229190610e33565b6040805163ffffffff808b16602083015261ffff8a169282019290925290871660608201526080016040516020818303038152906040526040518463ffffffff1660e01b8152600401610a7793929190610fc1565b6020604051808303815f875af1158015610a93573d5f803e3d5ffd5b505050506040513d601f19601f82011682018060405250810190610ab79190610e63565b507f00000000000000000000000000000000000000000000000000000000000000006001600160a01b031663fc2a88c36040518163ffffffff1660e01b8152600401602060405180830381865afa158015610b14573d5f803e3d5ffd5b505050506040513d601f19601f82011682018060405250810190610b389190610e33565b949350505050565b828054828255905f5260205f20908101928215610b79579160200282015b82811115610b79578251825591602001919060010190610b5e565b50610b85929150610b89565b5090565b5b80821115610b85575f8155600101610b8a565b80356001600160a01b0381168114610bb3575f80fd5b919050565b5f60208284031215610bc8575f80fd5b610bd182610b9d565b9392505050565b634e487b7160e01b5f52604160045260245ffd5b604051601f8201601f191681016001600160401b0381118282101715610c1457610c14610bd8565b604052919050565b5f8060408385031215610c2d575f80fd5b823591506020808401356001600160401b0380821115610c4b575f80fd5b818601915086601f830112610c5e575f80fd5b813581811115610c7057610c70610bd8565b8060051b9150610c81848301610bec565b8181529183018401918481019089841115610c9a575f80fd5b938501935b83851015610cb857843582529385019390850190610c9f565b8096505050505050509250929050565b6001600160a01b0391909116815260200190565b803563ffffffff81168114610bb3575f80fd5b5f805f8060608587031215610d02575f80fd5b610d0b85610cdc565b93506020850135925060408501356001600160401b0380821115610d2d575f80fd5b818701915087601f830112610d40575f80fd5b813581811115610d4e575f80fd5b886020828501011115610d5f575f80fd5b95989497505060200194505050565b5f60208284031215610d7e575f80fd5b5035919050565b5f805f60608486031215610d97575f80fd5b610da084610b9d565b92506020610daf818601610cdc565b925060408501356001600160401b0380821115610dca575f80fd5b818701915087601f830112610ddd575f80fd5b813581811115610def57610def610bd8565b610e01601f8201601f19168501610bec565b91508082528884828501011115610e16575f80fd5b80848401858401375f848284010152508093505050509250925092565b5f60208284031215610e43575f80fd5b5051919050565b6001600160a01b03929092168252602082015260400190565b5f60208284031215610e73575f80fd5b81518015158114610bd1575f80fd5b634e487b7160e01b5f52601160045260245ffd5b5f60018201610ea757610ea7610e82565b5060010190565b5f81518084525f5b81811015610ed257602081850181015186830182015201610eb6565b505f602082860101526020601f19601f83011685010191505092915050565b63ffffffff84168152826020820152606060408201525f610f156060830184610eae565b95945050505050565b5f606082018583526020606060208501528186518084526080860191506020880193505f5b81811015610f5f57845183529383019391830191600101610f43565b5050809350505050826040830152949350505050565b634e487b7160e01b5f52603260045260245ffd5b5f82610fa357634e487b7160e01b5f52601260045260245ffd5b500690565b80820180821115610fbb57610fbb610e82565b92915050565b60018060a01b0384168152826020820152606060408201525f610f156060830184610eae56fea26469706673582212207d92e69b9478437a9f3069c7ac224de480673420741f488bad54cc3bcfb2894964736f6c63430008180033",
  "devdoc": {
    "kind": "dev",
    "methods": {},
    "version": 1
  },
  "userdoc": {
    "kind": "user",
    "methods": {},
    "version": 1
  },
  "storageLayout": {
    "storage": [
      {
        "astId": 2418,
        "contract": "contracts/Hyperlane/ArbRandom.sol:ArbRandom",
        "label": "ism",
        "offset": 0,
        "slot": "0",
        "type": "t_address"
      },
      {
        "astId": 2421,
        "contract": "contracts/Hyperlane/ArbRandom.sol:ArbRandom",
        "label": "thisDomain",
        "offset": 20,
        "slot": "0",
        "type": "t_uint32"
      },
      {
        "astId": 2424,
        "contract": "contracts/Hyperlane/ArbRandom.sol:ArbRandom",
        "label": "baseSepDomain",
        "offset": 24,
        "slot": "0",
        "type": "t_uint32"
      },
      {
        "astId": 2427,
        "contract": "contracts/Hyperlane/ArbRandom.sol:ArbRandom",
        "label": "thisMailBox",
        "offset": 0,
        "slot": "1",
        "type": "t_address"
      },
      {
        "astId": 2430,
        "contract": "contracts/Hyperlane/ArbRandom.sol:ArbRandom",
        "label": "baseBox",
        "offset": 0,
        "slot": "2",
        "type": "t_address"
      },
      {
        "astId": 2432,
        "contract": "contracts/Hyperlane/ArbRandom.sol:ArbRandom",
        "label": "gameInteract",
        "offset": 0,
        "slot": "3",
        "type": "t_address"
      },
      {
        "astId": 2455,
        "contract": "contracts/Hyperlane/ArbRandom.sol:ArbRandom",
        "label": "s_requests",
        "offset": 0,
        "slot": "4",
        "type": "t_mapping(t_uint256,t_struct(RequestStatus)2440_storage)"
      },
      {
        "astId": 2458,
        "contract": "contracts/Hyperlane/ArbRandom.sol:ArbRandom",
        "label": "requestIds",
        "offset": 0,
        "slot": "5",
        "type": "t_array(t_uint256)dyn_storage"
      },
      {
        "astId": 2460,
        "contract": "contracts/Hyperlane/ArbRandom.sol:ArbRandom",
        "label": "lastRequestId",
        "offset": 0,
        "slot": "6",
        "type": "t_uint256"
      },
      {
        "astId": 2463,
        "contract": "contracts/Hyperlane/ArbRandom.sol:ArbRandom",
        "label": "callbackGasLimit",
        "offset": 0,
        "slot": "7",
        "type": "t_uint32"
      },
      {
        "astId": 2466,
        "contract": "contracts/Hyperlane/ArbRandom.sol:ArbRandom",
        "label": "requestConfirmations",
        "offset": 4,
        "slot": "7",
        "type": "t_uint16"
      },
      {
        "astId": 2469,
        "contract": "contracts/Hyperlane/ArbRandom.sol:ArbRandom",
        "label": "numWords",
        "offset": 6,
        "slot": "7",
        "type": "t_uint32"
      },
      {
        "astId": 2472,
        "contract": "contracts/Hyperlane/ArbRandom.sol:ArbRandom",
        "label": "linkAddress",
        "offset": 10,
        "slot": "7",
        "type": "t_address"
      },
      {
        "astId": 2475,
        "contract": "contracts/Hyperlane/ArbRandom.sol:ArbRandom",
        "label": "wrapperAddress",
        "offset": 0,
        "slot": "8",
        "type": "t_address"
      },
      {
        "astId": 2556,
        "contract": "contracts/Hyperlane/ArbRandom.sol:ArbRandom",
        "label": "msgCount",
        "offset": 0,
        "slot": "9",
        "type": "t_uint256"
      }
    ],
    "types": {
      "t_address": {
        "encoding": "inplace",
        "label": "address",
        "numberOfBytes": "20"
      },
      "t_array(t_uint256)dyn_storage": {
        "base": "t_uint256",
        "encoding": "dynamic_array",
        "label": "uint256[]",
        "numberOfBytes": "32"
      },
      "t_bool": {
        "encoding": "inplace",
        "label": "bool",
        "numberOfBytes": "1"
      },
      "t_mapping(t_uint256,t_struct(RequestStatus)2440_storage)": {
        "encoding": "mapping",
        "key": "t_uint256",
        "label": "mapping(uint256 => struct ArbRandom.RequestStatus)",
        "numberOfBytes": "32",
        "value": "t_struct(RequestStatus)2440_storage"
      },
      "t_struct(RequestStatus)2440_storage": {
        "encoding": "inplace",
        "label": "struct ArbRandom.RequestStatus",
        "members": [
          {
            "astId": 2434,
            "contract": "contracts/Hyperlane/ArbRandom.sol:ArbRandom",
            "label": "paid",
            "offset": 0,
            "slot": "0",
            "type": "t_uint256"
          },
          {
            "astId": 2436,
            "contract": "contracts/Hyperlane/ArbRandom.sol:ArbRandom",
            "label": "fulfilled",
            "offset": 0,
            "slot": "1",
            "type": "t_bool"
          },
          {
            "astId": 2439,
            "contract": "contracts/Hyperlane/ArbRandom.sol:ArbRandom",
            "label": "randomWords",
            "offset": 0,
            "slot": "2",
            "type": "t_array(t_uint256)dyn_storage"
          }
        ],
        "numberOfBytes": "96"
      },
      "t_uint16": {
        "encoding": "inplace",
        "label": "uint16",
        "numberOfBytes": "2"
      },
      "t_uint256": {
        "encoding": "inplace",
        "label": "uint256",
        "numberOfBytes": "32"
      },
      "t_uint32": {
        "encoding": "inplace",
        "label": "uint32",
        "numberOfBytes": "4"
      }
    }
  }
}