{
  "address": "0xdAB406d0748A3F2B2E87E59B45C059724b893145",
  "abi": [
    {
      "inputs": [
        {
          "internalType": "address",
          "name": "_poolManager",
          "type": "address"
        },
        {
          "internalType": "address",
          "name": "_mainHook",
          "type": "address"
        }
      ],
      "stateMutability": "nonpayable",
      "type": "constructor"
    },
    {
      "inputs": [],
      "name": "InvalidTick",
      "type": "error"
    },
    {
      "anonymous": false,
      "inputs": [
        {
          "indexed": true,
          "internalType": "address",
          "name": "player",
          "type": "address"
        }
      ],
      "name": "CrossedGo",
      "type": "event"
    },
    {
      "anonymous": false,
      "inputs": [
        {
          "indexed": true,
          "internalType": "address",
          "name": "starter",
          "type": "address"
        },
        {
          "indexed": false,
          "internalType": "uint256",
          "name": "gameStarted",
          "type": "uint256"
        }
      ],
      "name": "GameStarted",
      "type": "event"
    },
    {
      "anonymous": false,
      "inputs": [
        {
          "indexed": true,
          "internalType": "address",
          "name": "player",
          "type": "address"
        },
        {
          "indexed": false,
          "internalType": "uint256",
          "name": "amount",
          "type": "uint256"
        }
      ],
      "name": "PlayerWon",
      "type": "event"
    },
    {
      "anonymous": false,
      "inputs": [
        {
          "indexed": true,
          "internalType": "address",
          "name": "player",
          "type": "address"
        },
        {
          "indexed": false,
          "internalType": "uint256",
          "name": "amount",
          "type": "uint256"
        }
      ],
      "name": "ReceivingAirdrop",
      "type": "event"
    },
    {
      "anonymous": false,
      "inputs": [
        {
          "indexed": true,
          "internalType": "address",
          "name": "player",
          "type": "address"
        },
        {
          "indexed": false,
          "internalType": "uint256",
          "name": "amount",
          "type": "uint256"
        }
      ],
      "name": "RentPaid",
      "type": "event"
    },
    {
      "anonymous": false,
      "inputs": [
        {
          "indexed": true,
          "internalType": "address",
          "name": "player",
          "type": "address"
        },
        {
          "indexed": false,
          "internalType": "uint256",
          "name": "dice1",
          "type": "uint256"
        },
        {
          "indexed": false,
          "internalType": "uint256",
          "name": "dice2",
          "type": "uint256"
        }
      ],
      "name": "RolledDice",
      "type": "event"
    },
    {
      "anonymous": false,
      "inputs": [
        {
          "indexed": true,
          "internalType": "address",
          "name": "player",
          "type": "address"
        }
      ],
      "name": "SentToJail",
      "type": "event"
    },
    {
      "anonymous": false,
      "inputs": [
        {
          "indexed": true,
          "internalType": "address",
          "name": "player",
          "type": "address"
        }
      ],
      "name": "UserLose",
      "type": "event"
    },
    {
      "anonymous": false,
      "inputs": [
        {
          "indexed": true,
          "internalType": "address",
          "name": "player",
          "type": "address"
        }
      ],
      "name": "VisitJail",
      "type": "event"
    },
    {
      "inputs": [
        {
          "internalType": "address",
          "name": "player",
          "type": "address"
        }
      ],
      "name": "_removePlayer",
      "outputs": [],
      "stateMutability": "nonpayable",
      "type": "function"
    },
    {
      "inputs": [
        {
          "internalType": "string[]",
          "name": "list",
          "type": "string[]"
        }
      ],
      "name": "addNames",
      "outputs": [],
      "stateMutability": "nonpayable",
      "type": "function"
    },
    {
      "inputs": [
        {
          "internalType": "address",
          "name": "",
          "type": "address"
        }
      ],
      "name": "daysInJail",
      "outputs": [
        {
          "internalType": "uint256",
          "name": "",
          "type": "uint256"
        }
      ],
      "stateMutability": "view",
      "type": "function"
    },
    {
      "inputs": [],
      "name": "getActiveGameID",
      "outputs": [
        {
          "internalType": "uint256",
          "name": "",
          "type": "uint256"
        }
      ],
      "stateMutability": "view",
      "type": "function"
    },
    {
      "inputs": [],
      "name": "getActiveNumberOfPlayers",
      "outputs": [
        {
          "internalType": "uint256",
          "name": "",
          "type": "uint256"
        }
      ],
      "stateMutability": "view",
      "type": "function"
    },
    {
      "inputs": [],
      "name": "getActivePlayers",
      "outputs": [
        {
          "internalType": "address[]",
          "name": "",
          "type": "address[]"
        }
      ],
      "stateMutability": "view",
      "type": "function"
    },
    {
      "inputs": [],
      "name": "getActiveProperties",
      "outputs": [
        {
          "internalType": "contract Property[]",
          "name": "list",
          "type": "address[]"
        }
      ],
      "stateMutability": "view",
      "type": "function"
    },
    {
      "inputs": [],
      "name": "getAllProperties",
      "outputs": [
        {
          "internalType": "string[]",
          "name": "list",
          "type": "string[]"
        }
      ],
      "stateMutability": "view",
      "type": "function"
    },
    {
      "inputs": [
        {
          "internalType": "address",
          "name": "user",
          "type": "address"
        }
      ],
      "name": "getBalance",
      "outputs": [
        {
          "internalType": "uint256",
          "name": "",
          "type": "uint256"
        }
      ],
      "stateMutability": "view",
      "type": "function"
    },
    {
      "inputs": [
        {
          "internalType": "address",
          "name": "user",
          "type": "address"
        },
        {
          "internalType": "contract Property",
          "name": "prop",
          "type": "address"
        }
      ],
      "name": "getBalanceOfProperty",
      "outputs": [
        {
          "internalType": "uint256",
          "name": "",
          "type": "uint256"
        }
      ],
      "stateMutability": "view",
      "type": "function"
    },
    {
      "inputs": [],
      "name": "getBankBalance",
      "outputs": [
        {
          "internalType": "uint256",
          "name": "balance",
          "type": "uint256"
        }
      ],
      "stateMutability": "view",
      "type": "function"
    },
    {
      "inputs": [],
      "name": "getBuyIn",
      "outputs": [
        {
          "internalType": "uint256",
          "name": "",
          "type": "uint256"
        }
      ],
      "stateMutability": "view",
      "type": "function"
    },
    {
      "inputs": [],
      "name": "getCurrentChosenCurrency",
      "outputs": [
        {
          "internalType": "address",
          "name": "",
          "type": "address"
        }
      ],
      "stateMutability": "view",
      "type": "function"
    },
    {
      "inputs": [],
      "name": "getCurrentPlayer",
      "outputs": [
        {
          "internalType": "address",
          "name": "player",
          "type": "address"
        }
      ],
      "stateMutability": "view",
      "type": "function"
    },
    {
      "inputs": [],
      "name": "getMyPosition",
      "outputs": [
        {
          "internalType": "uint256",
          "name": "",
          "type": "uint256"
        }
      ],
      "stateMutability": "view",
      "type": "function"
    },
    {
      "inputs": [
        {
          "internalType": "address",
          "name": "user",
          "type": "address"
        }
      ],
      "name": "getMyProperties",
      "outputs": [
        {
          "internalType": "contract Property[]",
          "name": "",
          "type": "address[]"
        }
      ],
      "stateMutability": "view",
      "type": "function"
    },
    {
      "inputs": [
        {
          "internalType": "address",
          "name": "user",
          "type": "address"
        }
      ],
      "name": "getPlayerPosition",
      "outputs": [
        {
          "internalType": "uint256",
          "name": "position",
          "type": "uint256"
        }
      ],
      "stateMutability": "view",
      "type": "function"
    },
    {
      "inputs": [
        {
          "internalType": "uint256",
          "name": "position",
          "type": "uint256"
        }
      ],
      "name": "getProperty",
      "outputs": [
        {
          "internalType": "contract Property",
          "name": "prop",
          "type": "address"
        }
      ],
      "stateMutability": "view",
      "type": "function"
    },
    {
      "inputs": [
        {
          "internalType": "uint256",
          "name": "",
          "type": "uint256"
        }
      ],
      "name": "idToGameState",
      "outputs": [
        {
          "internalType": "address",
          "name": "currentPlayer",
          "type": "address"
        },
        {
          "internalType": "uint256",
          "name": "numberOfPlayers",
          "type": "uint256"
        },
        {
          "internalType": "address",
          "name": "chosenCurrency",
          "type": "address"
        },
        {
          "internalType": "uint256",
          "name": "buyIn",
          "type": "uint256"
        }
      ],
      "stateMutability": "view",
      "type": "function"
    },
    {
      "inputs": [],
      "name": "interchainSecurityModule",
      "outputs": [
        {
          "internalType": "contract IInterchainSecurityModule",
          "name": "",
          "type": "address"
        }
      ],
      "stateMutability": "view",
      "type": "function"
    },
    {
      "inputs": [],
      "name": "ism",
      "outputs": [
        {
          "internalType": "address",
          "name": "",
          "type": "address"
        }
      ],
      "stateMutability": "view",
      "type": "function"
    },
    {
      "inputs": [
        {
          "internalType": "address",
          "name": "activeUser",
          "type": "address"
        }
      ],
      "name": "joinGame",
      "outputs": [],
      "stateMutability": "nonpayable",
      "type": "function"
    },
    {
      "inputs": [],
      "name": "mainHook",
      "outputs": [
        {
          "internalType": "contract MyHook",
          "name": "",
          "type": "address"
        }
      ],
      "stateMutability": "view",
      "type": "function"
    },
    {
      "inputs": [],
      "name": "messageCount",
      "outputs": [
        {
          "internalType": "uint256",
          "name": "",
          "type": "uint256"
        }
      ],
      "stateMutability": "view",
      "type": "function"
    },
    {
      "inputs": [
        {
          "internalType": "contract Custom",
          "name": "oldAddress",
          "type": "address"
        }
      ],
      "name": "mintWrapper",
      "outputs": [
        {
          "internalType": "address",
          "name": "",
          "type": "address"
        }
      ],
      "stateMutability": "nonpayable",
      "type": "function"
    },
    {
      "inputs": [
        {
          "internalType": "address",
          "name": "",
          "type": "address"
        }
      ],
      "name": "playerToGame",
      "outputs": [
        {
          "internalType": "uint256",
          "name": "",
          "type": "uint256"
        }
      ],
      "stateMutability": "view",
      "type": "function"
    },
    {
      "inputs": [],
      "name": "poolManager",
      "outputs": [
        {
          "internalType": "address",
          "name": "",
          "type": "address"
        }
      ],
      "stateMutability": "view",
      "type": "function"
    },
    {
      "inputs": [
        {
          "internalType": "address",
          "name": "activeUser",
          "type": "address"
        },
        {
          "internalType": "uint256",
          "name": "amountToSpend",
          "type": "uint256"
        },
        {
          "internalType": "address",
          "name": "property",
          "type": "address"
        }
      ],
      "name": "purchaseProperty",
      "outputs": [
        {
          "internalType": "uint256",
          "name": "",
          "type": "uint256"
        }
      ],
      "stateMutability": "nonpayable",
      "type": "function"
    },
    {
      "inputs": [
        {
          "internalType": "address",
          "name": "player",
          "type": "address"
        }
      ],
      "name": "returnPropertyUnderPlayer",
      "outputs": [
        {
          "internalType": "address",
          "name": "",
          "type": "address"
        }
      ],
      "stateMutability": "view",
      "type": "function"
    },
    {
      "inputs": [
        {
          "internalType": "address",
          "name": "activeUser",
          "type": "address"
        },
        {
          "internalType": "uint256",
          "name": "amountToSell",
          "type": "uint256"
        },
        {
          "internalType": "address",
          "name": "property",
          "type": "address"
        }
      ],
      "name": "sellProperty",
      "outputs": [
        {
          "internalType": "uint256",
          "name": "",
          "type": "uint256"
        }
      ],
      "stateMutability": "nonpayable",
      "type": "function"
    },
    {
      "inputs": [
        {
          "internalType": "address",
          "name": "activeUser",
          "type": "address"
        },
        {
          "internalType": "address",
          "name": "selToken",
          "type": "address"
        },
        {
          "internalType": "uint256",
          "name": "bankStart",
          "type": "uint256"
        }
      ],
      "name": "setUp",
      "outputs": [],
      "stateMutability": "nonpayable",
      "type": "function"
    },
    {
      "inputs": [
        {
          "internalType": "address",
          "name": "activeUser",
          "type": "address"
        }
      ],
      "name": "startGame",
      "outputs": [],
      "stateMutability": "nonpayable",
      "type": "function"
    },
    {
      "inputs": [
        {
          "internalType": "address",
          "name": "activeUser",
          "type": "address"
        },
        {
          "internalType": "uint256",
          "name": "stepsFoward",
          "type": "uint256"
        },
        {
          "internalType": "bool",
          "name": "rollAgain",
          "type": "bool"
        }
      ],
      "name": "testMove",
      "outputs": [],
      "stateMutability": "nonpayable",
      "type": "function"
    },
    {
      "inputs": [
        {
          "internalType": "address",
          "name": "",
          "type": "address"
        }
      ],
      "name": "userInJail",
      "outputs": [
        {
          "internalType": "bool",
          "name": "",
          "type": "bool"
        }
      ],
      "stateMutability": "view",
      "type": "function"
    },
    {
      "inputs": [
        {
          "internalType": "address",
          "name": "",
          "type": "address"
        }
      ],
      "name": "userRoll",
      "outputs": [
        {
          "internalType": "bool",
          "name": "",
          "type": "bool"
        }
      ],
      "stateMutability": "view",
      "type": "function"
    },
    {
      "inputs": [
        {
          "internalType": "address",
          "name": "",
          "type": "address"
        }
      ],
      "name": "userRollsRow",
      "outputs": [
        {
          "internalType": "uint256",
          "name": "",
          "type": "uint256"
        }
      ],
      "stateMutability": "view",
      "type": "function"
    }
  ],
  "transactionHash": "0x5cf2c27f61985b6b06307ed07ade1649024cf20347365968f1a557335076beb7",
  "args": [
    "0x21DA0D6F30E836a2A2eb1e0b2525da84eCcbf4b3",
    "0x02251206F06C0d48910333F96a84E089a2374492"
  ],
  "numDeployments": 1,
  "solcInputHash": "525f2f9914cb988ef877bb5a5cf7c4cf",
  "bytecode": "0x60c0604052600980546001600160a01b031916731f02fa4f142e0727cc3f2ec84433ab513f97765717905534801562000036575f80fd5b50604051620060fe380380620060fe8339810160408190526200005991620000f4565b6001600160a01b038216620000c05760405162461bcd60e51b8152602060048201526024808201527f506f6f6c206d616e6167657220616464726573732063616e6e6f74206265207a60448201526332b9379760e11b606482015260840160405180910390fd5b6001600160a01b039182166080521660a0526200012a565b80516001600160a01b0381168114620000ef575f80fd5b919050565b5f806040838503121562000106575f80fd5b6200011183620000d8565b91506200012160208401620000d8565b90509250929050565b60805160a051615f816200017d5f395f818161051a015281816118440152818161187601528181611ee401528181611f20015281816130d4015281816131a0015261331f01525f6104bf0152615f815ff3fe608060405234801562000010575f80fd5b5060043610620001d0575f3560e01c8063016ab57114620001d457806303528f341462000203578063183bba41146200021c5780631a3c79fd14620002355780631d23c0b414620002575780632389a2901462000270578063272b066f14620002875780632fdd8089146200029e57806332665ffb14620002c057806335dde55d14620002d75780633c4f5a66146200030d5780633d51402c14620003175780633dbcc8d114620003305780633f831810146200033a57806344cc80441462000351578063476e617214620003685780634deefab214620003725780634dfe96c114620003865780634e303c60146200039d5780637b83b50b14620003b45780639c3e21ae14620003be578063a15af4bf14620003d5578063a77d2f2c14620003df578063ac8653e8146200045c578063c09ca07a1462000481578063c6f9f642146200048b578063d49e715c14620004a2578063dc4c90d314620004b9578063de523cf314620004e1578063eb81e09814620004f3578063eeb23ac514620004fd578063f81fff901462000514578063f8b2cb4f146200053c578063f9cf90661462000567578063fb4d50de146200057e578063fc72765814620005a0575b5f80fd5b620001eb620001e536600462003a1a565b620005aa565b604051620001fa919062003a38565b60405180910390f35b6200020d620007cc565b604051620001fa919062003a86565b620002266200080c565b604051908152602001620001fa565b620002266200024636600462003a1a565b60046020525f908152604090205481565b6200026e6200026836600462003aa8565b6200081d565b005b6200026e6200028136600462003a1a565b62000a73565b620002266200029836600462003aec565b62000c9c565b62000226620002af36600462003a1a565b600c6020525f908152604090205481565b6200020d620002d136600462003b28565b62000d17565b620002fc620002e836600462003a1a565b60036020525f908152604090205460ff1681565b6040519015158152602001620001fa565b620001eb62000dfc565b6200032162000e8d565b604051620001fa919062003b91565b62000226600e5481565b620002266200034b36600462003a1a565b62000f6b565b6200026e6200036236600462003a1a565b62000fbc565b6200020d62001373565b6009546200020d906001600160a01b031681565b6200020d6200039736600462003a1a565b620013b0565b6200026e620003ae36600462003c3e565b62001438565b62000226620014e4565b6200026e620003cf36600462003a1a565b6200158e565b62000226620016e9565b62000426620003f036600462003b28565b600260208190525f918252604090912080549181015460038201546007909201546001600160a01b039384169391929091169084565b604051620001fa94939291906001600160a01b039485168152602081019390935292166040820152606081019190915260800190565b620002fc6200046d36600462003a1a565b600d6020525f908152604090205460ff1681565b6200022662001721565b620002266200049c36600462003d5e565b62001741565b6200020d620004b336600462003a1a565b62001af6565b6200020d7f000000000000000000000000000000000000000000000000000000000000000081565b6009546001600160a01b03166200020d565b620001eb62001bf8565b6200026e6200050e36600462003d97565b62001c9b565b6200020d7f000000000000000000000000000000000000000000000000000000000000000081565b620002266200054d36600462003a1a565b6001600160a01b03165f908152600b602052604090205490565b620002266200057836600462003d5e565b62001dcb565b620002266200058f36600462003a1a565b60016020525f908152604090205481565b620002266200206e565b60605f620005b762001bf8565b90505f805b825181101562000673575f838281518110620005dc57620005dc62003dda565b60200260200101516001600160a01b03166370a08231876040518263ffffffff1660e01b815260040162000611919062003a86565b602060405180830381865afa1580156200062d573d5f803e3d5ffd5b505050506040513d601f19601f8201168201806040525081019062000653919062003dee565b11156200066a5781620006668162003e1a565b9250505b600101620005bc565b505f816001600160401b0381111562000690576200069062003bf7565b604051908082528060200260200182016040528015620006ba578160200160208202803683370190505b5090505f805b8451811015620007c1575f858281518110620006e057620006e062003dda565b60200260200101516001600160a01b03166370a08231896040518263ffffffff1660e01b815260040162000715919062003a86565b602060405180830381865afa15801562000731573d5f803e3d5ffd5b505050506040513d601f19601f8201168201806040525081019062000757919062003dee565b1115620007b85784818151811062000773576200077362003dda565b602002602001015183838151811062000790576200079062003dda565b6001600160a01b039092166020928302919091019091015281620007b48162003e1a565b9250505b600101620006c0565b509095945050505050565b5f80545f03620007db57505f90565b5f60015f54620007ec919062003e35565b5f908152600260205260409020600301546001600160a01b031692915050565b5f620008183362000f6b565b905090565b5f805411620008655760405162461bcd60e51b815260206004820152600f60248201526e139bc811d85b594810dc99585d1959608a1b60448201526064015b60405180910390fd5b6001600160a01b038084165f8181526007602090815260408083205480845260029092529091205490921614620008d85760405162461bcd60e51b815260206004820152601660248201527526bab9ba1031329031bab93932b73a10283630bcb2b960511b60448201526064016200085c565b6001600160a01b0384165f9081526003602052604090205460ff16620009345760405162461bcd60e51b815260206004820152601060248201526f155cd95c8818d85b9b9bdd081c9bdb1b60821b60448201526064016200085c565b6001600160a01b0384165f908152600360209081526040808320805460ff19169055600d90915290205460ff1615620009e3576001600160a01b0384165f908152600c602052604081208054916200098c8362003e1a565b91905055508180620009b657506001600160a01b0384165f908152600c6020526040902054600211155b15620009dc576001600160a01b0384165f908152600d60205260409020805460ff191690555b5f92505f91505b811562000a55576001600160a01b0384165f908152600360209081526040808320805460ff191660011790556004909152812080549162000a248362003e1a565b90915550506001600160a01b0384165f908152600460205260409020546003101562000a555762000a5584620020f3565b62000a6281858562002156565b62000a6d8162002805565b50505050565b5f545f0362000a965760405162461bcd60e51b81526004016200085c9062003e4b565b5f60015f5462000aa7919062003e35565b5f8181526002602090815260408083206001018054825181850281018501909352808352949550929390929183018282801562000b0c57602002820191905f5260205f20905b81546001600160a01b0316815260019091019060200180831162000aed575b505050505090505f5b815181101562000b785781818151811062000b345762000b3462003dda565b60200260200101516001600160a01b0316846001600160a01b03160362000b6f5760405162461bcd60e51b81526004016200085c9062003e4b565b60010162000b15565b505f82815260026020818152604080842060018082018054918201815580875284872090910180546001600160a01b0319166001600160a01b038b169081179091558652600780855292862088905587865293909252915491015462000bdf919062003e6f565b5f848152600260205260409081902060030154905163140e25ad60e31b8152600481018390529192506001600160a01b03169063a0712d68906024015f604051808303815f87803b15801562000c33575f80fd5b505af115801562000c46573d5f803e3d5ffd5b5050505f848152600260205260408120600701805484935090919062000c6e90849062003e85565b90915550505f83815260026020819052604082200180549162000c918362003e1a565b919050555050505050565b6040516370a0823160e01b81525f906001600160a01b038316906370a082319062000ccc90869060040162003a86565b602060405180830381865afa15801562000ce8573d5f803e3d5ffd5b505050506040513d601f19601f8201168201806040525081019062000d0e919062003dee565b90505b92915050565b5f8062000d2362001bf8565b90505f5b815181101562000df35781818151811062000d465762000d4662003dda565b60200260200101516001600160a01b031663a61b8c0b856040518263ffffffff1660e01b815260040162000d7c91815260200190565b602060405180830381865afa15801562000d98573d5f803e3d5ffd5b505050506040513d601f19601f8201168201806040525081019062000dbe919062003e9b565b1562000dea5781818151811062000dd95762000dd962003dda565b602002602001015192505050919050565b60010162000d27565b505f9392505050565b60605f545f0362000e0d5750606090565b5f60015f5462000e1e919062003e35565b5f81815260026020908152604091829020600101805483518184028101840190945280845293945091929083018282801562000e8257602002820191905f5260205f20905b81546001600160a01b0316815260019091019060200180831162000e63575b505050505091505090565b60606006805480602002602001604051908101604052809291908181526020015f905b8282101562000f62578382905f5260205f2001805462000ed09062003eb9565b80601f016020809104026020016040519081016040528092919081815260200182805462000efe9062003eb9565b801562000f4d5780601f1062000f235761010080835404028352916020019162000f4d565b820191905f5260205f20905b81548152906001019060200180831162000f2f57829003601f168201915b50505050508152602001906001019062000eb0565b50505050905090565b5f80545f0362000f7c57505f919050565b5f60015f5462000f8d919062003e35565b5f9081526002602090815260408083206001600160a01b03909616835260049095019052929092205492915050565b6001600160a01b0381165f908152600760209081526040808320548084526002928390529083209091015490915b5f8381526002602052604090206001015481101562001060575f83815260026020526040902060010180546001600160a01b03861691908390811062001034576200103462003dda565b5f918252602090912001546001600160a01b031603620010575780915062001060565b60010162000fea565b505f82815260026020819052604090912001548110620010b65760405162461bcd60e51b815260206004820152601060248201526f141b185e595c881b9bdd08199bdd5b9960821b60448201526064016200085c565b805b5f838152600260205260409020600190810154620010d7919062003e35565b81101562001181575f838152600260205260409020600190810190620010ff90839062003e85565b8154811062001112576200111262003dda565b5f9182526020808320909101548583526002909152604090912060010180546001600160a01b03909216918390811062001150576200115062003dda565b5f91825260209091200180546001600160a01b0319166001600160a01b0392909216919091179055600101620010b8565b505f828152600260205260409020600101805480620011a457620011a462003ef3565b5f828152602080822083015f1990810180546001600160a01b03191690559092019092558382526002908190526040822001805491620011e48362003f07565b90915550505f82815260026020526040902060019081015490036200136e575f82815260026020526040908190206003015490516370a0823160e01b81526001600160a01b03808616927f6e0d11c40e939975aea1b614617340d694125da9ebed64c96cab216ca971564e929116906370a08231906200126990309060040162003a86565b602060405180830381865afa15801562001285573d5f803e3d5ffd5b505050506040513d601f19601f82011682018060405250810190620012ab919062003dee565b60405190815260200160405180910390a25f82815260026020526040908190206003015490516370a0823160e01b81526001600160a01b03909116906370a0823190620012fd90309060040162003a86565b602060405180830381865afa15801562001319573d5f803e3d5ffd5b505050506040513d601f19601f820116820180604052508101906200133f919062003dee565b6001600160a01b0384165f908152600b6020526040812080549091906200136890849062003e85565b90915550505b505050565b5f80545f036200138257505f90565b5f60015f5462001393919062003e35565b5f908152600260205260409020546001600160a01b031692915050565b5f806040518060400160405280600a8152602001692a37b5b2b7102a37bbb760b11b81525090505f604051806040016040528060038152602001622a2a2760e91b81525090505f82826040516200140790620038fb565b6200141492919062003f1f565b604051809103905ff0801580156200142e573d5f803e3d5ffd5b5095945050505050565b6002815162001448919062003f47565b15620014865760405162461bcd60e51b815260206004820152600c60248201526b26bab9ba1031329032bb32b760a11b60448201526064016200085c565b5f815111620014cb5760405162461bcd60e51b815260206004820152601060248201526f026bab9ba103430bb329039ba3ab333160851b60448201526064016200085c565b8051620014e090600690602084019062003909565b5050565b5f80545f03620014f357505f90565b5f60015f5462001504919062003e35565b5f81815260026020526040908190206003015490516370a0823160e01b81529192506001600160a01b0316906370a08231906200154690309060040162003a86565b602060405180830381865afa15801562001562573d5f803e3d5ffd5b505050506040513d601f19601f8201168201806040525081019062001588919062003dee565b91505090565b5f545f03620015b15760405162461bcd60e51b81526004016200085c9062003e4b565b5f60015f54620015c2919062003e35565b6001600160a01b0383165f818152600360209081526040808320805460ff191660011790558483526002825280832080546001600160a01b031916851790559154915191825292935090917fea32a03505fd9f04d664676d72295a86c5fb0465e69654751907ca305bc1d1c7910160405180910390a25f818152600260208181526040808420600301546001600160a01b031684526008909152822001549081900362001675575068056bc75e2d631000005b5f5b5f8381526002602052604090206001015481101562000a6d5781600b5f60025f8781526020019081526020015f206001018481548110620016bc57620016bc62003dda565b5f9182526020808320909101546001600160a01b0316835282019290925260400190205560010162001677565b5f80545f03620016f857505f90565b5f60015f5462001709919062003e35565b5f908152600260208190526040909120015492915050565b5f80545f036200173057505f90565b5f60015f5462000d11919062003e35565b6001600160a01b038381165f90815260076020908152604080832054858516808552600a8452828520835160a081018552815488168152600182015480891682880152600160a01b810462ffffff1682870152600160b81b9004600290810b6060808401919091529281015489166080830152855192830186528783528287018890528286018890528488529095529285206003015494959194869273fffd8963efd1fc6a506488495d951d5263988d269291161115620018085750600190506401000276a45b604080516060810182529215158352602083018990526001600160a01b039091169082015290506200183d85883089620028f3565b6200186a857f00000000000000000000000000000000000000000000000000000000000000008862002960565b5f806001600160a01b037f00000000000000000000000000000000000000000000000000000000000000001663d1da87a08585620018aa42606462003e85565b8d6040518563ffffffff1660e01b8152600401620018cc949392919062003fa0565b60408051808303815f875af1158015620018e8573d5f803e3d5ffd5b505050506040513d601f19601f820116820180604052508101906200190e919062003ff1565b915091505f808312156200192c5762001929835f1962004014565b90505b5f821215620019455762001942825f1962004014565b90505b5f86815260026020908152604080832060010180548251818502810185019093528083529192909190830182828015620019a757602002820191905f5260205f20905b81546001600160a01b0316815260019091019060200180831162001988575b505050505090505f60055f620019bd8e62000f6b565b81526020019081526020015f205f6101000a81548160ff0219169083151502179055505f5b815181101562001ab8575f8a6001600160a01b03166370a0823184848151811062001a115762001a1162003dda565b60200260200101516040518263ffffffff1660e01b815260040162001a37919062003a86565b602060405180830381865afa15801562001a53573d5f803e3d5ffd5b505050506040513d601f19601f8201168201806040525081019062001a79919062003dee565b111562001aaf57600160055f62001a908f62000f6b565b815260208101919091526040015f20805460ff19169115159190911790555b600101620019e2565b506001600160a01b038b165f908152600b60205260408120805484929062001ae290849062003e85565b90915550979b9a5050505050505050505050565b6001600160a01b0381165f908152600760205260408120548162001b1a8462000f6b565b90505f5b5f8381526002602052604090206006015481101562001bee575f83815260026020526040812060060180548390811062001b5c5762001b5c62003dda565b5f9182526020909120015460405163a61b8c0b60e01b8152600481018590526001600160a01b039091169150819063a61b8c0b90602401602060405180830381865afa15801562001baf573d5f803e3d5ffd5b505050506040513d601f19601f8201168201806040525081019062001bd5919062003e9b565b1562001be45795945050505050565b5060010162001b1e565b505f949350505050565b60605f545f0362001c1d5760405162461bcd60e51b81526004016200085c9062003e4b565b5f60015f5462001c2e919062003e35565b5f81815260026020908152604091829020600601805483518184028101840190945280845293945091929083018282801562000e8257602002820191905f5260205f209081546001600160a01b0316815260019091019060200180831162000e6357505050505091505090565b5f62001ca783620013b0565b5f8054815260026020818152604080842060019081018054918201815585528285200180546001600160a01b0319166001600160a01b038b1690811790915584549085526007835281852081905584529082905282200180549293509062001d0f8362003e1a565b90915550505f8054815260026020526040812060030180546001600160a01b0319166001600160a01b0384161790555462001d4a9062002a6b565b5f8054815260026020908152604091829020600601805483518184028101840190945280845262001dbb939283018282801562001daf57602002820191905f5260205f20905b81546001600160a01b0316815260019091019060200180831162001d90575b50505050508262002db0565b5f8054908062000c918362003e1a565b6001600160a01b038084165f90815260076020908152604080832054858516808552600a8452828520835160a081018552815488168152600180830154808a168389015262ffffff600160a01b82041683880152600160b81b9004600290810b6060840152928301548916608083015284885291909552928520600301549495919473fffd8963efd1fc6a506488495d951d5263988d269216111562001e7657505f90506401000276a45b60408051606081018252831515815260208082018a90526001600160a01b03808516838501528b165f908152600b90915291822080548a9384929162001ebe90849062003e35565b90915550505f8681526002602052604090206003015462001f16906001600160a01b03167f000000000000000000000000000000000000000000000000000000000000000062001f108c600162003e85565b62002df2565b6001600160a01b037f00000000000000000000000000000000000000000000000000000000000000001663d1da87a0868362001f5442606462003e85565b8e6040518563ffffffff1660e01b815260040162001f76949392919062003fa0565b60408051808303815f875af115801562001f92573d5f803e3d5ffd5b505050506040513d601f19601f8201168201806040525081019062001fb8919062003ff1565b50505f62001fc68b62000f6b565b5f8181526005602052604090819020805460ff19166001179055516370a0823160e01b815290915062002060908a908d906001600160a01b038316906370a08231906200201890309060040162003a86565b602060405180830381865afa15801562002034573d5f803e3d5ffd5b505050506040513d601f19601f820116820180604052508101906200205a919062003dee565b62002e92565b505050505050509392505050565b5f80545f03620020b25760405162461bcd60e51b815260206004820152600e60248201526d139bc819d85b595cc8195e1a5cdd60921b60448201526064016200085c565b5f60015f54620020c3919062003e35565b5f81815260026020526040812060018101546007909101549293509091620020ec919062003e6f565b9392505050565b6040516001600160a01b038216907f766bbc01371440eeeea4854ebd8f29d05a580289d44d819c7de25daa5b8f48d0905f90a26001600160a01b03165f908152600c60209081526040808320839055600d9091529020805460ff19166001179055565b805f036200216357505050565b5f8381526002602090815260408083206001600160a01b0386168452600401909152812080548392906200219990849062003e85565b90915550505f8381526002602090815260408083206001600160a01b038616845260040190915290205460141162002271576040516001600160a01b038316907fa7c84f16d16ce89539ef3107dbb975722be90452c5a84a093ec18dc1023ff716905f90a26001600160a01b0382165f908152600b602052604081208054678ac7230489e8000092906200222f90849062003e85565b90915550505f8381526002602090815260408083206001600160a01b038616845260040190915281208054601492906200226b90849062003e35565b90915550505b5f8381526002602090815260408083206001600160a01b03861684526004019091529020546005819003620022d9576040516001600160a01b038416907fb87793a47333190de0d9c030730dd872177ef7c1f61e8a512cbd5fa600480c23905f90a250505050565b80600a036200237a576001600160a01b0383167f0c44e43c5373f34572493cdf86523be122e7cd9c22f1ae3c128837df3f780b52620023218467016345785d8a000062004049565b60405190815260200160405180910390a2620023468267016345785d8a000062004049565b6001600160a01b0384165f908152600b6020526040812080549091906200236f90849062003e85565b909155505050505050565b80600f036200238e5762000a6d83620020f3565b805f036200239c5750505050565b5f8181526005602052604090205460ff161562000a6d575f620023bf8262000d17565b604051637533f73760e01b8152600481018490529091505f906001600160a01b03831690637533f73790602401602060405180830381865afa15801562002408573d5f803e3d5ffd5b505050506040513d601f19601f820116820180604052508101906200242e919062003dee565b6200244190662386f26fc1000062004049565b5f87815260026020908152604080832060010180548251818502810185019093528083529495509293909291830182828015620024a657602002820191905f5260205f20905b81546001600160a01b0316815260019091019060200180831162002487575b505050505090505f5b8151811015620027fb575f846001600160a01b03166370a08231848481518110620024de57620024de62003dda565b60200260200101516040518263ffffffff1660e01b815260040162002504919062003a86565b602060405180830381865afa15801562002520573d5f803e3d5ffd5b505050506040513d601f19601f8201168201806040525081019062002546919062003dee565b1115620027f2575f846001600160a01b03166318160ddd6040518163ffffffff1660e01b8152600401602060405180830381865afa1580156200258b573d5f803e3d5ffd5b505050506040513d601f19601f82011682018060405250810190620025b1919062003dee565b856001600160a01b03166370a08231858581518110620025d557620025d562003dda565b60200260200101516040518263ffffffff1660e01b8152600401620025fb919062003a86565b602060405180830381865afa15801562002617573d5f803e3d5ffd5b505050506040513d601f19601f820116820180604052508101906200263d919062003dee565b62002649908662004049565b62002655919062003e6f565b5f8a815260026020526040908190206003015490516370a0823160e01b815291925082916001600160a01b03909116906370a08231906200269b908c9060040162003a86565b602060405180830381865afa158015620026b7573d5f803e3d5ffd5b505050506040513d601f19601f82011682018060405250810190620026dd919062003dee565b10156200272d576040516001600160a01b038916907f99292dd3d22524358aa0d8397df9aaf9c130205fa85bf3f48d44ba6becbb4249905f90a2620027228862000fbc565b505050505050505050565b6001600160a01b0388165f908152600b6020526040812080548392906200275690849062003e35565b9250508190555080600b5f85858151811062002776576200277662003dda565b60200260200101516001600160a01b03166001600160a01b031681526020019081526020015f205f828254620027ad919062003e85565b90915550506040518181526001600160a01b038916907f03b5033869479e8a98af42b272f05933f60489fe9fb43d63e11a6c31f3fa74749060200160405180910390a2505b600101620024af565b5050505050505050565b5f620028118262002eb4565b5f838152600260209081526040808320546001600160a01b03168084526003909252909120549192509060ff1615620028a05760405162461bcd60e51b815260206004820152602a60248201527f63616e206e6f74206368616e6765207768696c65206120757365722063616e206044820152691cdd1a5b1b081c9bdb1b60b21b60648201526084016200085c565b6001600160a01b039081165f9081526004602090815260408083208390559482526002815284822080546001600160a01b031916949093169384179092559182526003905220805460ff19166001179055565b6040516001600160a01b038085166024830152831660448201526064810182905262000a6d9085906323b872dd60e01b906084015b60408051601f198184030181529190526020810180516001600160e01b03166001600160e01b03199093169290921790915262002fad565b801580620029dc5750604051636eb1769f60e11b81523060048201526001600160a01b03838116602483015284169063dd62ed3e90604401602060405180830381865afa158015620029b4573d5f803e3d5ffd5b505050506040513d601f19601f82011682018060405250810190620029da919062003dee565b155b62002a495760405162461bcd60e51b815260206004820152603660248201527f5361666545524332303a20617070726f76652066726f6d206e6f6e2d7a65726f60448201527520746f206e6f6e2d7a65726f20616c6c6f77616e636560501b60648201526084016200085c565b6200136e8363095ea7b360e01b84846040516024016200292892919062004063565b604080516080810182526001815260066020820152600b918101919091526010606082015262002a9a62003964565b62002aa462003964565b62002aae62003964565b5f80548152600260209081526040808320600301546001600160a01b031683526008909152808220815160e0810192839052918290606082019083906004908288855b825461010083900a900460ff1681526020600192830181810494850194909303909202910180841162002af157505050928452505060408051608081019182905260209093019291506001840190600490825f855b825461010083900a900460ff1681526020600192830181810494850194909303909202910180841162002b465790505050505050815260200160028201548152505090505f8160400151111562002ba95780516020820151909450925062002c17565b6040805160808082018352603c8252607860208084019190915260a08385015260fa60608085019190915284518084018652600a808252601e828501526032828801819052604683850152875195860188526005865293850152601495840195909552820152909550935091505b5f5b60065481101562002da7575f6006828154811062002c3b5762002c3b62003dda565b905f5260205f2001600683600162002c54919062003e85565b8154811062002c675762002c6762003dda565b905f5260205f200160048960028662002c81919062003e6f565b6004811062002c945762002c9462003dda565b60200201518962002ca760028862003e6f565b6004811062002cba5762002cba62003dda565b60200201518862002ccd60028962003e6f565b6004811062002ce05762002ce062003dda565b60200201518a62002cf360028a62003e6f565b6004811062002d065762002d0662003dda565b602002015160405162002d199062003982565b62002d2b9796959493929190620040fd565b604051809103905ff08015801562002d45573d5f803e3d5ffd5b505f8981526002602090815260408220600601805460018101825590835291200180546001600160a01b0319166001600160a01b03831617905590508162002d8d8162003e1a565b92505050808062002d9e9062003e1a565b91505062002c19565b50505050505050565b5f5b82518110156200136e575f83828151811062002dd25762002dd262003dda565b6020026020010151905062002de8818462003087565b5060010162002db2565b5f63095ea7b360e01b838360405160240162002e1092919062004063565b60408051601f198184030181529190526020810180516001600160e01b03166001600160e01b031990931692909217909152905062002e5084826200337a565b62000a6d576040516001600160a01b03841660248201525f604482015262002e8690859063095ea7b360e01b9060640162002928565b62000a6d848262002fad565b6200136e8363a9059cbb60e01b84846040516024016200292892919062004063565b5f818152600260205260408120546001600160a01b0316815b5f8481526002602052604090206001015481101562002f3a575f84815260026020526040902060010180546001600160a01b03841691908390811062002f175762002f1762003dda565b5f918252602090912001546001600160a01b03161462002f3a5760010162002ecd565b5f8481526002602052604081206001908101549062002f5b90849062003e85565b62002f67919062003f47565b5f8681526002602052604090206001018054919250908290811062002f905762002f9062003dda565b5f918252602090912001546001600160a01b031695945050505050565b5f62003003826040518060400160405280602081526020017f5361666545524332303a206c6f772d6c6576656c2063616c6c206661696c6564815250856001600160a01b0316620034219092919063ffffffff16565b905080515f14806200302657508080602001905181019062003026919062003e9b565b6200136e5760405162461bcd60e51b815260206004820152602a60248201527f5361666545524332303a204552433230206f7065726174696f6e20646964206e6044820152691bdd081cdd58d8d9595960b21b60648201526084016200085c565b81816001600160a01b038083169082161015620030a057905b6040805160a0810182526001600160a01b03848116825283811660208084019182525f848601818152603c606087018181527f000000000000000000000000000000000000000000000000000000000000000080881660808a019081528e89168652600a909652988420885181546001600160a01b0319908116918a16919091178255965160018201805495519351918a166001600160b81b031990961695909517600160a01b62ffffff948516021762ffffff60b81b1916600160b81b93909116929092029190911790925592516002909101805490941694169390931790915585938593819084620031948162003439565b90506001600160a01b037f00000000000000000000000000000000000000000000000000000000000000001663c9b5016a8383620031d442600a62003e85565b6040518463ffffffff1660e01b8152600401620031f49392919062004158565b6020604051808303815f875af115801562003211573d5f803e3d5ffd5b505050506040513d601f19601f82011682018060405250810190620032379190620041a4565b508b6001600160a01b031663a6cb55bd6040518163ffffffff1660e01b8152600401602060405180830381865afa15801562003275573d5f803e3d5ffd5b505050506040513d601f19601f820116820180604052508101906200329b919062003dee565b620032a890600662004049565b8c6001600160a01b03166357fbb5de6040518163ffffffff1660e01b8152600401602060405180830381865afa158015620032e5573d5f803e3d5ffd5b505050506040513d601f19601f820116820180604052508101906200330b919062003dee565b62003317919062003e85565b506200336c8c7f00000000000000000000000000000000000000000000000000000000000000008e6001600160a01b03166370a08231306040518263ffffffff1660e01b815260040162002018919062003a86565b505050505050505050505050565b5f805f846001600160a01b031684604051620033979190620041c6565b5f604051808303815f865af19150503d805f8114620033d2576040519150601f19603f3d011682016040523d82523d5f602084013e620033d7565b606091505b5091509150818015620034055750805115806200340557508080602001905181019062003405919062003e9b565b8015620034185750620034188562003767565b95945050505050565b60606200343184845f8562003776565b949350505050565b5f805f8360020b1262003450578260020b62003457565b8260020b5f035b9050620d89e88111156200347e576040516333a3bdff60e21b815260040160405180910390fd5b5f816001165f036200349557600160801b620034a7565b6ffffcb933bd6fad37aa2d162d1a5940015b6001600160881b031690506002821615620034d2576ffff97272373d413259a46990580e213a0260801c5b6004821615620034f2576ffff2e50f5f656932ef12357cf3c7fdcc0260801c5b600882161562003512576fffe5caca7e10e4e61c3624eaa0941cd00260801c5b601082161562003532576fffcb9843d60f6159c9db58835c9266440260801c5b602082161562003552576fff973b41fa98c081472e6896dfb254c00260801c5b604082161562003572576fff2ea16466c96a3843ec78b326b528610260801c5b608082161562003592576ffe5dee046a99a2a811c461f1969c30530260801c5b610100821615620035b3576ffcbe86c7900a88aedcffc83b479aa3a40260801c5b610200821615620035d4576ff987a7253ac413176f2b074cf7815e540260801c5b610400821615620035f5576ff3392b0822b70005940c7a398e4b70f30260801c5b61080082161562003616576fe7159475a2c29b7443b29c7fa6e889d90260801c5b61100082161562003637576fd097f3bdfd2022b8845ad8f792aa58250260801c5b61200082161562003658576fa9f746462d870fdf8a65dc1f90e061e50260801c5b61400082161562003679576f70d869a156d2a1b890bb3df62baf32f70260801c5b6180008216156200369a576f31be135f97d08fd981231505542fcfa60260801c5b62010000821615620036bc576f09aa508b5b7a84e1c677de54f3e99bc90260801c5b62020000821615620036dd576e5d6af8dedb81196699c329225ee6040260801c5b62040000821615620036fd576d2216e584f5fa1ea926041bedfe980260801c5b620800008216156200371b576b048a170391f7dc42444e8fa20260801c5b5f8460020b13156200373e57805f19816200373a576200373a62003e5b565b0490505b600160201b8106156200375357600162003755565b5f5b60ff16602082901c0192505050919050565b6001600160a01b03163b151590565b606082471015620037d95760405162461bcd60e51b815260206004820152602660248201527f416464726573733a20696e73756666696369656e742062616c616e636520666f6044820152651c8818d85b1b60d21b60648201526084016200085c565b5f80866001600160a01b03168587604051620037f69190620041c6565b5f6040518083038185875af1925050503d805f811462003832576040519150601f19603f3d011682016040523d82523d5f602084013e62003837565b606091505b50915091506200384a8783838762003855565b979650505050505050565b60608315620038c85782515f03620038c057620038728562003767565b620038c05760405162461bcd60e51b815260206004820152601d60248201527f416464726573733a2063616c6c20746f206e6f6e2d636f6e747261637400000060448201526064016200085c565b508162003431565b620034318383815115620038df5781518083602001fd5b8060405162461bcd60e51b81526004016200085c9190620041e3565b610d0d806200431383390190565b828054828255905f5260205f2090810192821562003952579160200282015b8281111562003952578251829062003941908262004246565b509160200191906001019062003928565b506200396092915062003990565b5090565b60405180608001604052806004906020820280368337509192915050565b610f2c806200502083390190565b8082111562003960575f620039a68282620039b0565b5060010162003990565b508054620039be9062003eb9565b5f825580601f10620039ce575050565b601f0160209004905f5260205f2090810190620039ec9190620039ef565b50565b5b8082111562003960575f8155600101620039f0565b6001600160a01b0381168114620039ec575f80fd5b5f6020828403121562003a2b575f80fd5b8135620020ec8162003a05565b602080825282518282018190525f9190848201906040850190845b8181101562003a7a5783516001600160a01b03168352928401929184019160010162003a53565b50909695505050505050565b6001600160a01b0391909116815260200190565b8015158114620039ec575f80fd5b5f805f6060848603121562003abb575f80fd5b833562003ac88162003a05565b925060208401359150604084013562003ae18162003a9a565b809150509250925092565b5f806040838503121562003afe575f80fd5b823562003b0b8162003a05565b9150602083013562003b1d8162003a05565b809150509250929050565b5f6020828403121562003b39575f80fd5b5035919050565b5f5b8381101562003b5c57818101518382015260200162003b42565b50505f910152565b5f815180845262003b7d81602086016020860162003b40565b601f01601f19169290920160200192915050565b5f60208083016020845280855180835260408601915060408160051b8701019250602087015f5b8281101562003bea57603f1988860301845262003bd785835162003b64565b9450928501929085019060010162003bb8565b5092979650505050505050565b634e487b7160e01b5f52604160045260245ffd5b604051601f8201601f191681016001600160401b038111828210171562003c365762003c3662003bf7565b604052919050565b5f602080838503121562003c50575f80fd5b82356001600160401b038082111562003c67575f80fd5b8185019150601f86601f84011262003c7d575f80fd5b82358281111562003c925762003c9262003bf7565b8060051b62003ca386820162003c0b565b918252848101860191868101908a84111562003cbd575f80fd5b87870192505b8383101562003d505782358681111562003cdb575f80fd5b8701603f81018c1362003cec575f80fd5b8881013560408882111562003d055762003d0562003bf7565b62003d18828901601f19168c0162003c0b565b8281528e8284860101111562003d2c575f80fd5b828285018d8301375f9281018c019290925250835250918701919087019062003cc3565b9a9950505050505050505050565b5f805f6060848603121562003d71575f80fd5b833562003d7e8162003a05565b925060208401359150604084013562003ae18162003a05565b5f805f6060848603121562003daa575f80fd5b833562003db78162003a05565b9250602084013562003dc98162003a05565b929592945050506040919091013590565b634e487b7160e01b5f52603260045260245ffd5b5f6020828403121562003dff575f80fd5b5051919050565b634e487b7160e01b5f52601160045260245ffd5b5f6001820162003e2e5762003e2e62003e06565b5060010190565b8181038181111562000d115762000d1162003e06565b60208082525f9082015260400190565b634e487b7160e01b5f52601260045260245ffd5b5f8262003e805762003e8062003e5b565b500490565b8082018082111562000d115762000d1162003e06565b5f6020828403121562003eac575f80fd5b8151620020ec8162003a9a565b600181811c9082168062003ece57607f821691505b60208210810362003eed57634e487b7160e01b5f52602260045260245ffd5b50919050565b634e487b7160e01b5f52603160045260245ffd5b5f8162003f185762003f1862003e06565b505f190190565b604081525f62003f33604083018562003b64565b828103602084015262003418818562003b64565b5f8262003f585762003f5862003e5b565b500690565b80516001600160a01b03908116835260208083015182169084015260408083015162ffffff169084015260608083015160020b9084015260809182015116910152565b610140810162003fb1828762003f5d565b8451151560a0830152602085015160c08301526040909401516001600160a01b0390811660e0830152610100820193909352911661012090910152919050565b5f806040838503121562004003575f80fd5b505080516020909101519092909150565b8082025f8212600160ff1b8414161562004032576200403262003e06565b818105831482151762000d115762000d1162003e06565b808202811582820484141762000d115762000d1162003e06565b6001600160a01b03929092168252602082015260400190565b5f81546200408a8162003eb9565b808552602060018381168015620040aa5760018114620040c557620040f2565b60ff1985168884015283151560051b880183019550620040f2565b865f52825f205f5b85811015620040ea5781548a8201860152908301908401620040cd565b890184019650505b505050505092915050565b60e081525f6200411160e083018a6200407c565b828103602084015262004125818a6200407c565b6040840198909852505060ff9485166060820152928416608084015290831660a083015290911660c09091015292915050565b5f61010062004168838762003f5d565b6001600160a01b039490941660a08301525060c0810183905260029281019290925261060f60f31b61012083015260e082015261014001919050565b5f60208284031215620041b5575f80fd5b81518060020b8114620020ec575f80fd5b5f8251620041d981846020870162003b40565b9190910192915050565b602081525f62000d0e602083018462003b64565b601f8211156200136e57805f5260205f20601f840160051c810160208510156200421e5750805b601f840160051c820191505b818110156200423f575f81556001016200422a565b5050505050565b81516001600160401b0381111562004262576200426262003bf7565b6200427a8162004273845462003eb9565b84620041f7565b602080601f831160018114620042b0575f8415620042985750858301515b5f19600386901b1c1916600185901b1785556200430a565b5f85815260208120601f198616915b82811015620042e057888601518255948401946001909101908401620042bf565b5085821015620042fe57878501515f19600388901b60f8161c191681555b505060018460011b0185555b50505050505056fe608060405234801562000010575f80fd5b5060405162000d0d38038062000d0d833981016040819052620000339162000202565b81816003620000438382620002f1565b506004620000528282620002f1565b5050506200007033683635c9adc5dea000006200007860201b60201c565b5050620003e3565b6001600160a01b038216620000d35760405162461bcd60e51b815260206004820152601f60248201527f45524332303a206d696e7420746f20746865207a65726f206164647265737300604482015260640160405180910390fd5b8060025f828254620000e69190620003bd565b90915550506001600160a01b0382165f81815260208181526040808320805486019055518481527fddf252ad1be2c89b69c2b068fc378daa952ba7f163c4a11628f55a4df523b3ef910160405180910390a35050565b505050565b634e487b7160e01b5f52604160045260245ffd5b5f82601f83011262000165575f80fd5b81516001600160401b038082111562000182576200018262000141565b604051601f8301601f19908116603f01168101908282118183101715620001ad57620001ad62000141565b8160405283815260209250866020858801011115620001ca575f80fd5b5f91505b83821015620001ed5785820183015181830184015290820190620001ce565b5f602085830101528094505050505092915050565b5f806040838503121562000214575f80fd5b82516001600160401b03808211156200022b575f80fd5b620002398683870162000155565b935060208501519150808211156200024f575f80fd5b506200025e8582860162000155565b9150509250929050565b600181811c908216806200027d57607f821691505b6020821081036200029c57634e487b7160e01b5f52602260045260245ffd5b50919050565b601f8211156200013c57805f5260205f20601f840160051c81016020851015620002c95750805b601f840160051c820191505b81811015620002ea575f8155600101620002d5565b5050505050565b81516001600160401b038111156200030d576200030d62000141565b62000325816200031e845462000268565b84620002a2565b602080601f8311600181146200035b575f8415620003435750858301515b5f19600386901b1c1916600185901b178555620003b5565b5f85815260208120601f198616915b828110156200038b578886015182559484019460019091019084016200036a565b5085821015620003a957878501515f19600388901b60f8161c191681555b505060018460011b0185555b505050505050565b80820180821115620003dd57634e487b7160e01b5f52601160045260245ffd5b92915050565b61091c80620003f15f395ff3fe608060405234801561000f575f80fd5b50600436106100a2575f3560e01c806306fdde03146100a6578063095ea7b3146100c457806318160ddd146100e757806323b872dd146100f9578063313ce5671461010c578063395093511461011b57806370a082311461012e57806395d89b4114610156578063a0712d681461015e578063a457c2d714610173578063a9059cbb14610186578063dd62ed3e14610199575b5f80fd5b6100ae6101ac565b6040516100bb919061073f565b60405180910390f35b6100d76100d23660046107a6565b61023c565b60405190151581526020016100bb565b6002545b6040519081526020016100bb565b6100d76101073660046107ce565b610255565b604051601281526020016100bb565b6100d76101293660046107a6565b610278565b6100eb61013c366004610807565b6001600160a01b03165f9081526020819052604090205490565b6100ae610299565b61017161016c366004610827565b6102a8565b005b6100d76101813660046107a6565b6102b5565b6100d76101943660046107a6565b610334565b6100eb6101a736600461083e565b610341565b6060600380546101bb9061086f565b80601f01602080910402602001604051908101604052809291908181526020018280546101e79061086f565b80156102325780601f1061020957610100808354040283529160200191610232565b820191905f5260205f20905b81548152906001019060200180831161021557829003601f168201915b5050505050905090565b5f3361024981858561036b565b60019150505b92915050565b5f3361026285828561048e565b61026d858585610506565b506001949350505050565b5f3361024981858561028a8383610341565b61029491906108a7565b61036b565b6060600480546101bb9061086f565b6102b23382610695565b50565b5f33816102c28286610341565b9050838110156103275760405162461bcd60e51b815260206004820152602560248201527f45524332303a2064656372656173656420616c6c6f77616e63652062656c6f77604482015264207a65726f60d81b60648201526084015b60405180910390fd5b61026d828686840361036b565b5f33610249818585610506565b6001600160a01b039182165f90815260016020908152604080832093909416825291909152205490565b6001600160a01b0383166103cd5760405162461bcd60e51b8152602060048201526024808201527f45524332303a20617070726f76652066726f6d20746865207a65726f206164646044820152637265737360e01b606482015260840161031e565b6001600160a01b03821661042e5760405162461bcd60e51b815260206004820152602260248201527f45524332303a20617070726f766520746f20746865207a65726f206164647265604482015261737360f01b606482015260840161031e565b6001600160a01b038381165f8181526001602090815260408083209487168084529482529182902085905590518481527f8c5be1e5ebec7d5bd14f71427d1e84f3dd0314c0f7b2291e5b200ac8c7c3b925910160405180910390a3505050565b5f6104998484610341565b90505f19811461050057818110156104f35760405162461bcd60e51b815260206004820152601d60248201527f45524332303a20696e73756666696369656e7420616c6c6f77616e6365000000604482015260640161031e565b610500848484840361036b565b50505050565b6001600160a01b03831661056a5760405162461bcd60e51b815260206004820152602560248201527f45524332303a207472616e736665722066726f6d20746865207a65726f206164604482015264647265737360d81b606482015260840161031e565b6001600160a01b0382166105cc5760405162461bcd60e51b815260206004820152602360248201527f45524332303a207472616e7366657220746f20746865207a65726f206164647260448201526265737360e81b606482015260840161031e565b6001600160a01b0383165f90815260208190526040902054818110156106435760405162461bcd60e51b815260206004820152602660248201527f45524332303a207472616e7366657220616d6f756e7420657863656564732062604482015265616c616e636560d01b606482015260840161031e565b6001600160a01b038481165f81815260208181526040808320878703905593871680835291849020805487019055925185815290925f805160206108c7833981519152910160405180910390a3610500565b6001600160a01b0382166106eb5760405162461bcd60e51b815260206004820152601f60248201527f45524332303a206d696e7420746f20746865207a65726f206164647265737300604482015260640161031e565b8060025f8282546106fc91906108a7565b90915550506001600160a01b0382165f81815260208181526040808320805486019055518481525f805160206108c7833981519152910160405180910390a35050565b5f602080835283518060208501525f5b8181101561076b5785810183015185820160400152820161074f565b505f604082860101526040601f19601f8301168501019250505092915050565b80356001600160a01b03811681146107a1575f80fd5b919050565b5f80604083850312156107b7575f80fd5b6107c08361078b565b946020939093013593505050565b5f805f606084860312156107e0575f80fd5b6107e98461078b565b92506107f76020850161078b565b9150604084013590509250925092565b5f60208284031215610817575f80fd5b6108208261078b565b9392505050565b5f60208284031215610837575f80fd5b5035919050565b5f806040838503121561084f575f80fd5b6108588361078b565b91506108666020840161078b565b90509250929050565b600181811c9082168061088357607f821691505b6020821081036108a157634e487b7160e01b5f52602260045260245ffd5b50919050565b8082018082111561024f57634e487b7160e01b5f52601160045260245ffdfeddf252ad1be2c89b69c2b068fc378daa952ba7f163c4a11628f55a4df523b3efa2646970667358221220733bd66ac2f5e663ef40f51084ce350d5fc68f5f2013f898a095645a10de722a64736f6c6343000818003360a06040525f6007555f6008555f6009556004600a5534801562000021575f80fd5b5060405162000f2c38038062000f2c833981016040819052620000449162000231565b868660036200005483826200034c565b5060046200006382826200034c565b505050620000873386670de0b6b3a76400006200008191906200042c565b620000a7565b336080526006939093556007919091556008556009555062000462915050565b6001600160a01b038216620001025760405162461bcd60e51b815260206004820152601f60248201527f45524332303a206d696e7420746f20746865207a65726f206164647265737300604482015260640160405180910390fd5b8060025f8282546200011591906200044c565b90915550506001600160a01b0382165f81815260208181526040808320805486019055518481527fddf252ad1be2c89b69c2b068fc378daa952ba7f163c4a11628f55a4df523b3ef910160405180910390a35050565b505050565b634e487b7160e01b5f52604160045260245ffd5b5f82601f83011262000194575f80fd5b81516001600160401b0380821115620001b157620001b162000170565b604051601f8301601f19908116603f01168101908282118183101715620001dc57620001dc62000170565b8160405283815260209250866020858801011115620001f9575f80fd5b5f91505b838210156200021c5785820183015181830184015290820190620001fd565b5f602085830101528094505050505092915050565b5f805f805f805f60e0888a03121562000248575f80fd5b87516001600160401b03808211156200025f575f80fd5b6200026d8b838c0162000184565b985060208a015191508082111562000283575f80fd5b50620002928a828b0162000184565b60408a015160608b015160808c015160a08d015160c0909d01519b9e939d50919b909a919950975095509350505050565b600181811c90821680620002d857607f821691505b602082108103620002f757634e487b7160e01b5f52602260045260245ffd5b50919050565b601f8211156200016b57805f5260205f20601f840160051c81016020851015620003245750805b601f840160051c820191505b8181101562000345575f815560010162000330565b5050505050565b81516001600160401b0381111562000368576200036862000170565b6200038081620003798454620002c3565b84620002fd565b602080601f831160018114620003b6575f84156200039e5750858301515b5f19600386901b1c1916600185901b17855562000410565b5f85815260208120601f198616915b82811015620003e657888601518255948401946001909101908401620003c5565b50858210156200040457878501515f19600388901b60f8161c191681555b505060018460011b0185555b505050505050565b634e487b7160e01b5f52601160045260245ffd5b808202811582820484141762000446576200044662000418565b92915050565b8082018082111562000446576200044662000418565b608051610ab16200047b5f395f6103240152610ab15ff3fe608060405234801561000f575f80fd5b50600436106100d9575f3560e01c806306fdde03146100dd578063095ea7b3146100fb57806318160ddd1461011e57806323b872dd14610130578063313ce56714610143578063395093511461015257806357fbb5de146101655780636534ccd21461016d57806370a08231146101825780637533f737146101aa57806395d89b41146101bd578063a457c2d7146101c5578063a61b8c0b146101d8578063a6cb55bd146101eb578063a9059cbb146101f3578063dd62ed3e14610206578063e757223014610219575b5f80fd5b6100e561022c565b6040516100f291906108b0565b60405180910390f35b61010e610109366004610917565b6102bc565b60405190151581526020016100f2565b6002545b6040519081526020016100f2565b61010e61013e36600461093f565b6102d5565b604051601281526020016100f2565b61010e610160366004610917565b6102f8565b600754610122565b61018061017b366004610978565b610319565b005b610122610190366004610978565b6001600160a01b03165f9081526020819052604090205490565b6101226101b8366004610998565b610378565b6100e56103bc565b61010e6101d3366004610917565b6103cb565b61010e6101e6366004610998565b61044a565b600954610122565b61010e610201366004610917565b610480565b6101226102143660046109af565b61048d565b610122610227366004610998565b6104b7565b60606003805461023b906109e0565b80601f0160208091040260200160405190810160405280929190818152602001828054610267906109e0565b80156102b25780601f10610289576101008083540402835291602001916102b2565b820191905f5260205f20905b81548152906001019060200180831161029557829003601f168201915b5050505050905090565b5f336102c98185856104f5565b60019150505b92915050565b5f336102e2858285610618565b6102ed858585610690565b506001949350505050565b5f336102c981858561030a838361048d565b6103149190610a26565b6104f5565b336001600160a01b037f0000000000000000000000000000000000000000000000000000000000000000161461034d575f80fd5b6001600160a01b0381165f90815260056020526040812080549161037083610a39565b919050555050565b5f80600654836103889190610a51565b9050806009546103989190610a64565b6008546103a59190610a26565b91506103b660085460095483610832565b50919050565b60606004805461023b906109e0565b5f33816103d8828661048d565b90508381101561043d5760405162461bcd60e51b815260206004820152602560248201527f45524332303a2064656372656173656420616c6c6f77616e63652062656c6f77604482015264207a65726f60d81b60648201526084015b60405180910390fd5b6102ed82868684036104f5565b5f816006541115801561046c5750600a546006546104689190610a26565b8211155b1561047957506001919050565b505f919050565b5f336102c9818585610690565b6001600160a01b039182165f90815260016020908152604080832093909416825291909152205490565b5f80600654836104c79190610a51565b9050806009546104d79190610a64565b6007546104e49190610a26565b91506103b660075460095483610832565b6001600160a01b0383166105575760405162461bcd60e51b8152602060048201526024808201527f45524332303a20617070726f76652066726f6d20746865207a65726f206164646044820152637265737360e01b6064820152608401610434565b6001600160a01b0382166105b85760405162461bcd60e51b815260206004820152602260248201527f45524332303a20617070726f766520746f20746865207a65726f206164647265604482015261737360f01b6064820152608401610434565b6001600160a01b038381165f8181526001602090815260408083209487168084529482529182902085905590518481527f8c5be1e5ebec7d5bd14f71427d1e84f3dd0314c0f7b2291e5b200ac8c7c3b925910160405180910390a3505050565b5f610623848461048d565b90505f19811461068a578181101561067d5760405162461bcd60e51b815260206004820152601d60248201527f45524332303a20696e73756666696369656e7420616c6c6f77616e63650000006044820152606401610434565b61068a84848484036104f5565b50505050565b6001600160a01b0383166106f45760405162461bcd60e51b815260206004820152602560248201527f45524332303a207472616e736665722066726f6d20746865207a65726f206164604482015264647265737360d81b6064820152608401610434565b6001600160a01b0382166107565760405162461bcd60e51b815260206004820152602360248201527f45524332303a207472616e7366657220746f20746865207a65726f206164647260448201526265737360e81b6064820152608401610434565b6001600160a01b0383165f90815260208190526040902054818110156107cd5760405162461bcd60e51b815260206004820152602660248201527f45524332303a207472616e7366657220616d6f756e7420657863656564732062604482015265616c616e636560d01b6064820152608401610434565b6001600160a01b038481165f81815260208181526040808320878703905593871680835291849020805487019055925185815290927fddf252ad1be2c89b69c2b068fc378daa952ba7f163c4a11628f55a4df523b3ef910160405180910390a361068a565b6040516024810184905260448101839052606481018290526108809060840160408051601f198184030181529190526020810180516001600160e01b031663347b5e8f60e21b179052610885565b505050565b61088e81610891565b50565b5f6a636f6e736f6c652e6c6f6790505f80835160208501845afa505050565b5f602080835283518060208501525f5b818110156108dc578581018301518582016040015282016108c0565b505f604082860101526040601f19601f8301168501019250505092915050565b80356001600160a01b0381168114610912575f80fd5b919050565b5f8060408385031215610928575f80fd5b610931836108fc565b946020939093013593505050565b5f805f60608486031215610951575f80fd5b61095a846108fc565b9250610968602085016108fc565b9150604084013590509250925092565b5f60208284031215610988575f80fd5b610991826108fc565b9392505050565b5f602082840312156109a8575f80fd5b5035919050565b5f80604083850312156109c0575f80fd5b6109c9836108fc565b91506109d7602084016108fc565b90509250929050565b600181811c908216806109f457607f821691505b6020821081036103b657634e487b7160e01b5f52602260045260245ffd5b634e487b7160e01b5f52601160045260245ffd5b808201808211156102cf576102cf610a12565b5f60018201610a4a57610a4a610a12565b5060010190565b818103818111156102cf576102cf610a12565b80820281158282048414176102cf576102cf610a1256fea26469706673582212206313d616a51b582b76e87bb991f66149da1cf5c3614ade103a1bb75754a9087564736f6c63430008180033a26469706673582212208bad67e668fb2a96c15cdac1c3d5c83c38d171fa290de614894c49fb68efaa1e64736f6c63430008180033",
  "devdoc": {
    "kind": "dev",
    "methods": {},
    "version": 1
  },
  "userdoc": {
    "errors": {
      "InvalidTick()": [
        {
          "notice": "Thrown when the tick passed to #getSqrtRatioAtTick is not between MIN_TICK and MAX_TICK"
        }
      ]
    },
    "kind": "user",
    "methods": {},
    "version": 1
  },
  "storageLayout": {
    "storage": [
      {
        "astId": 3501,
        "contract": "contracts/TokenTown/Game.sol:Game",
        "label": "gameID",
        "offset": 0,
        "slot": "0",
        "type": "t_uint256"
      },
      {
        "astId": 3505,
        "contract": "contracts/TokenTown/Game.sol:Game",
        "label": "playerToGame",
        "offset": 0,
        "slot": "1",
        "type": "t_mapping(t_address,t_uint256)"
      },
      {
        "astId": 3510,
        "contract": "contracts/TokenTown/Game.sol:Game",
        "label": "idToGameState",
        "offset": 0,
        "slot": "2",
        "type": "t_mapping(t_uint256,t_struct(GameState)6297_storage)"
      },
      {
        "astId": 3514,
        "contract": "contracts/TokenTown/Game.sol:Game",
        "label": "userRoll",
        "offset": 0,
        "slot": "3",
        "type": "t_mapping(t_address,t_bool)"
      },
      {
        "astId": 3518,
        "contract": "contracts/TokenTown/Game.sol:Game",
        "label": "userRollsRow",
        "offset": 0,
        "slot": "4",
        "type": "t_mapping(t_address,t_uint256)"
      },
      {
        "astId": 3522,
        "contract": "contracts/TokenTown/Game.sol:Game",
        "label": "rentExists",
        "offset": 0,
        "slot": "5",
        "type": "t_mapping(t_uint256,t_bool)"
      },
      {
        "astId": 3525,
        "contract": "contracts/TokenTown/Game.sol:Game",
        "label": "usualNamesAndSymbols",
        "offset": 0,
        "slot": "6",
        "type": "t_array(t_string_storage)dyn_storage"
      },
      {
        "astId": 3532,
        "contract": "contracts/TokenTown/Game.sol:Game",
        "label": "addressToGame",
        "offset": 0,
        "slot": "7",
        "type": "t_mapping(t_address,t_uint256)"
      },
      {
        "astId": 3537,
        "contract": "contracts/TokenTown/Game.sol:Game",
        "label": "getCurrencyInfo",
        "offset": 0,
        "slot": "8",
        "type": "t_mapping(t_address,t_struct(TokenInfo)3551_storage)"
      },
      {
        "astId": 3540,
        "contract": "contracts/TokenTown/Game.sol:Game",
        "label": "ism",
        "offset": 0,
        "slot": "9",
        "type": "t_address"
      },
      {
        "astId": 3556,
        "contract": "contracts/TokenTown/Game.sol:Game",
        "label": "addressToKey",
        "offset": 0,
        "slot": "10",
        "type": "t_mapping(t_address,t_struct(PoolKey)13069_storage)"
      },
      {
        "astId": 3588,
        "contract": "contracts/TokenTown/Game.sol:Game",
        "label": "userBalance",
        "offset": 0,
        "slot": "11",
        "type": "t_mapping(t_address,t_uint256)"
      },
      {
        "astId": 5219,
        "contract": "contracts/TokenTown/Game.sol:Game",
        "label": "daysInJail",
        "offset": 0,
        "slot": "12",
        "type": "t_mapping(t_address,t_uint256)"
      },
      {
        "astId": 5223,
        "contract": "contracts/TokenTown/Game.sol:Game",
        "label": "userInJail",
        "offset": 0,
        "slot": "13",
        "type": "t_mapping(t_address,t_bool)"
      },
      {
        "astId": 5663,
        "contract": "contracts/TokenTown/Game.sol:Game",
        "label": "messageCount",
        "offset": 0,
        "slot": "14",
        "type": "t_uint256"
      }
    ],
    "types": {
      "t_address": {
        "encoding": "inplace",
        "label": "address",
        "numberOfBytes": "20"
      },
      "t_array(t_address)dyn_storage": {
        "base": "t_address",
        "encoding": "dynamic_array",
        "label": "address[]",
        "numberOfBytes": "32"
      },
      "t_array(t_contract(Property)6741)dyn_storage": {
        "base": "t_contract(Property)6741",
        "encoding": "dynamic_array",
        "label": "contract Property[]",
        "numberOfBytes": "32"
      },
      "t_array(t_string_storage)dyn_storage": {
        "base": "t_string_storage",
        "encoding": "dynamic_array",
        "label": "string[]",
        "numberOfBytes": "32"
      },
      "t_array(t_uint8)4_storage": {
        "base": "t_uint8",
        "encoding": "inplace",
        "label": "uint8[4]",
        "numberOfBytes": "32"
      },
      "t_bool": {
        "encoding": "inplace",
        "label": "bool",
        "numberOfBytes": "1"
      },
      "t_contract(IHooks)6958": {
        "encoding": "inplace",
        "label": "contract IHooks",
        "numberOfBytes": "20"
      },
      "t_contract(Property)6741": {
        "encoding": "inplace",
        "label": "contract Property",
        "numberOfBytes": "20"
      },
      "t_int24": {
        "encoding": "inplace",
        "label": "int24",
        "numberOfBytes": "3"
      },
      "t_mapping(t_address,t_address)": {
        "encoding": "mapping",
        "key": "t_address",
        "label": "mapping(address => address)",
        "numberOfBytes": "32",
        "value": "t_address"
      },
      "t_mapping(t_address,t_bool)": {
        "encoding": "mapping",
        "key": "t_address",
        "label": "mapping(address => bool)",
        "numberOfBytes": "32",
        "value": "t_bool"
      },
      "t_mapping(t_address,t_struct(PoolKey)13069_storage)": {
        "encoding": "mapping",
        "key": "t_address",
        "label": "mapping(address => struct PoolKey)",
        "numberOfBytes": "32",
        "value": "t_struct(PoolKey)13069_storage"
      },
      "t_mapping(t_address,t_struct(TokenInfo)3551_storage)": {
        "encoding": "mapping",
        "key": "t_address",
        "label": "mapping(address => struct Game.TokenInfo)",
        "numberOfBytes": "32",
        "value": "t_struct(TokenInfo)3551_storage"
      },
      "t_mapping(t_address,t_uint256)": {
        "encoding": "mapping",
        "key": "t_address",
        "label": "mapping(address => uint256)",
        "numberOfBytes": "32",
        "value": "t_uint256"
      },
      "t_mapping(t_uint256,t_bool)": {
        "encoding": "mapping",
        "key": "t_uint256",
        "label": "mapping(uint256 => bool)",
        "numberOfBytes": "32",
        "value": "t_bool"
      },
      "t_mapping(t_uint256,t_struct(GameState)6297_storage)": {
        "encoding": "mapping",
        "key": "t_uint256",
        "label": "mapping(uint256 => struct IGame.GameState)",
        "numberOfBytes": "32",
        "value": "t_struct(GameState)6297_storage"
      },
      "t_string_storage": {
        "encoding": "bytes",
        "label": "string",
        "numberOfBytes": "32"
      },
      "t_struct(GameState)6297_storage": {
        "encoding": "inplace",
        "label": "struct IGame.GameState",
        "members": [
          {
            "astId": 6275,
            "contract": "contracts/TokenTown/Game.sol:Game",
            "label": "currentPlayer",
            "offset": 0,
            "slot": "0",
            "type": "t_address"
          },
          {
            "astId": 6278,
            "contract": "contracts/TokenTown/Game.sol:Game",
            "label": "players",
            "offset": 0,
            "slot": "1",
            "type": "t_array(t_address)dyn_storage"
          },
          {
            "astId": 6280,
            "contract": "contracts/TokenTown/Game.sol:Game",
            "label": "numberOfPlayers",
            "offset": 0,
            "slot": "2",
            "type": "t_uint256"
          },
          {
            "astId": 6282,
            "contract": "contracts/TokenTown/Game.sol:Game",
            "label": "chosenCurrency",
            "offset": 0,
            "slot": "3",
            "type": "t_address"
          },
          {
            "astId": 6286,
            "contract": "contracts/TokenTown/Game.sol:Game",
            "label": "playerPosition",
            "offset": 0,
            "slot": "4",
            "type": "t_mapping(t_address,t_uint256)"
          },
          {
            "astId": 6290,
            "contract": "contracts/TokenTown/Game.sol:Game",
            "label": "playerOwnedProperty",
            "offset": 0,
            "slot": "5",
            "type": "t_mapping(t_address,t_address)"
          },
          {
            "astId": 6294,
            "contract": "contracts/TokenTown/Game.sol:Game",
            "label": "propertyList",
            "offset": 0,
            "slot": "6",
            "type": "t_array(t_contract(Property)6741)dyn_storage"
          },
          {
            "astId": 6296,
            "contract": "contracts/TokenTown/Game.sol:Game",
            "label": "buyIn",
            "offset": 0,
            "slot": "7",
            "type": "t_uint256"
          }
        ],
        "numberOfBytes": "256"
      },
      "t_struct(PoolKey)13069_storage": {
        "encoding": "inplace",
        "label": "struct PoolKey",
        "members": [
          {
            "astId": 13054,
            "contract": "contracts/TokenTown/Game.sol:Game",
            "label": "currency0",
            "offset": 0,
            "slot": "0",
            "type": "t_userDefinedValueType(Currency)12744"
          },
          {
            "astId": 13058,
            "contract": "contracts/TokenTown/Game.sol:Game",
            "label": "currency1",
            "offset": 0,
            "slot": "1",
            "type": "t_userDefinedValueType(Currency)12744"
          },
          {
            "astId": 13061,
            "contract": "contracts/TokenTown/Game.sol:Game",
            "label": "fee",
            "offset": 20,
            "slot": "1",
            "type": "t_uint24"
          },
          {
            "astId": 13064,
            "contract": "contracts/TokenTown/Game.sol:Game",
            "label": "tickSpacing",
            "offset": 23,
            "slot": "1",
            "type": "t_int24"
          },
          {
            "astId": 13068,
            "contract": "contracts/TokenTown/Game.sol:Game",
            "label": "hooks",
            "offset": 0,
            "slot": "2",
            "type": "t_contract(IHooks)6958"
          }
        ],
        "numberOfBytes": "96"
      },
      "t_struct(TokenInfo)3551_storage": {
        "encoding": "inplace",
        "label": "struct Game.TokenInfo",
        "members": [
          {
            "astId": 3544,
            "contract": "contracts/TokenTown/Game.sol:Game",
            "label": "priceStarts",
            "offset": 0,
            "slot": "0",
            "type": "t_array(t_uint8)4_storage"
          },
          {
            "astId": 3548,
            "contract": "contracts/TokenTown/Game.sol:Game",
            "label": "priceChanges",
            "offset": 0,
            "slot": "1",
            "type": "t_array(t_uint8)4_storage"
          },
          {
            "astId": 3550,
            "contract": "contracts/TokenTown/Game.sol:Game",
            "label": "userStart",
            "offset": 0,
            "slot": "2",
            "type": "t_uint256"
          }
        ],
        "numberOfBytes": "96"
      },
      "t_uint24": {
        "encoding": "inplace",
        "label": "uint24",
        "numberOfBytes": "3"
      },
      "t_uint256": {
        "encoding": "inplace",
        "label": "uint256",
        "numberOfBytes": "32"
      },
      "t_uint8": {
        "encoding": "inplace",
        "label": "uint8",
        "numberOfBytes": "1"
      },
      "t_userDefinedValueType(Currency)12744": {
        "encoding": "inplace",
        "label": "Currency",
        "numberOfBytes": "20"
      }
    }
  }
}