{
  "address": "0xfEab06DB80E486B998eDa170118BC16A4b2Ee73E",
  "abi": [
    {
      "inputs": [
        {
          "internalType": "address",
          "name": "_game",
          "type": "address"
        }
      ],
      "stateMutability": "nonpayable",
      "type": "constructor"
    },
    {
      "inputs": [],
      "name": "game",
      "outputs": [
        {
          "internalType": "contract Game",
          "name": "",
          "type": "address"
        }
      ],
      "stateMutability": "view",
      "type": "function"
    },
    {
      "inputs": [
        {
          "internalType": "uint32",
          "name": "_origin",
          "type": "uint32"
        },
        {
          "internalType": "bytes32",
          "name": "_sender",
          "type": "bytes32"
        },
        {
          "internalType": "bytes",
          "name": "_message",
          "type": "bytes"
        }
      ],
      "name": "handle",
      "outputs": [],
      "stateMutability": "payable",
      "type": "function"
    },
    {
      "inputs": [],
      "name": "interchainSecurityModule",
      "outputs": [
        {
          "internalType": "contract IInterchainSecurityModule",
          "name": "",
          "type": "address"
        }
      ],
      "stateMutability": "view",
      "type": "function"
    },
    {
      "inputs": [],
      "name": "ism",
      "outputs": [
        {
          "internalType": "address",
          "name": "",
          "type": "address"
        }
      ],
      "stateMutability": "view",
      "type": "function"
    },
    {
      "inputs": [],
      "name": "messageCount",
      "outputs": [
        {
          "internalType": "uint256",
          "name": "",
          "type": "uint256"
        }
      ],
      "stateMutability": "view",
      "type": "function"
    }
  ],
  "transactionHash": "0xa5b1ce165f04bb636c5d5c08a7e72a0225f0da698505f180f7b75fbeb5c8521a",
  "args": [
    "0xdAB406d0748A3F2B2E87E59B45C059724b893145"
  ],
  "numDeployments": 1,
  "solcInputHash": "525f2f9914cb988ef877bb5a5cf7c4cf",
  "bytecode": "0x60806040525f80546001600160a01b031916731f02fa4f142e0727cc3f2ec84433ab513f977657178155600255348015610037575f80fd5b506040516107133803806107138339810160408190526100569161007b565b600180546001600160a01b0319166001600160a01b03929092169190911790556100a8565b5f6020828403121561008b575f80fd5b81516001600160a01b03811681146100a1575f80fd5b9392505050565b61065e806100b55f395ff3fe608060405260043610610049575f3560e01c80633dbcc8d11461004d5780634deefab21461007557806356d5d475146100a0578063c3fe3e28146100b5578063de523cf3146100d4575b5f80fd5b348015610058575f80fd5b5061006260025481565b6040519081526020015b60405180910390f35b348015610080575f80fd5b505f54610093906001600160a01b031681565b60405161006c91906103bc565b6100b36100ae3660046103d0565b6100f0565b005b3480156100c0575f80fd5b50600154610093906001600160a01b031681565b3480156100df575f80fd5b505f546001600160a01b0316610093565b60028054905f6100ff83610459565b909155505f90508080610114848601866104a8565b925092509250815f036101af575f8082806020019051810190610137919061056d565b60015460405163eeb23ac560e01b81526001600160a01b038981166004830152808516602483015260448201849052939550919350919091169063eeb23ac5906064015b5f604051808303815f87803b158015610192575f80fd5b505af11580156101a4573d5f803e3d5ffd5b5050505050506103b3565b81600103610219576001546040516302389a2960e41b81526001600160a01b0390911690632389a290906101e79086906004016103bc565b5f604051808303815f87803b1580156101fe575f80fd5b505af1158015610210573d5f803e3d5ffd5b505050506103b3565b8160020361025157600154604051634e1f10d760e11b81526001600160a01b0390911690639c3e21ae906101e79086906004016103bc565b600382146103b357816004036102bf575f80828060200190518101906102779190610599565b600154604051630748f02d60e21b81526001600160a01b0389811660048301526024820185905283151560448301529395509193509190911690631d23c0b49060640161017b565b8160050361035d575f80828060200190518101906102dd91906105cb565b600154604051637ce7c83360e11b81529294509092506001600160a01b03169063f9cf906690610315908890869086906004016105ee565b6020604051808303815f875af1158015610331573d5f803e3d5ffd5b505050506040513d601f19601f820116820180604052508101906103559190610611565b5050506103b3565b816006036103b3575f808280602001905181019061037b91906105cb565b60015460405163637cfb2160e11b81529294509092506001600160a01b03169063c6f9f64290610315908890869086906004016105ee565b50505050505050565b6001600160a01b0391909116815260200190565b5f805f80606085870312156103e3575f80fd5b843563ffffffff811681146103f6575f80fd5b93506020850135925060408501356001600160401b0380821115610418575f80fd5b818701915087601f83011261042b575f80fd5b813581811115610439575f80fd5b88602082850101111561044a575f80fd5b95989497505060200194505050565b5f6001820161047657634e487b7160e01b5f52601160045260245ffd5b5060010190565b6001600160a01b0381168114610491575f80fd5b50565b634e487b7160e01b5f52604160045260245ffd5b5f805f606084860312156104ba575f80fd5b83356104c58161047d565b92506020840135915060408401356001600160401b03808211156104e7575f80fd5b818601915086601f8301126104fa575f80fd5b81358181111561050c5761050c610494565b604051601f8201601f19908116603f0116810190838211818310171561053457610534610494565b8160405282815289602084870101111561054c575f80fd5b826020860160208301375f6020848301015280955050505050509250925092565b5f806040838503121561057e575f80fd5b82516105898161047d565b6020939093015192949293505050565b5f80604083850312156105aa575f80fd5b82519150602083015180151581146105c0575f80fd5b809150509250929050565b5f80604083850312156105dc575f80fd5b8251915060208301516105c08161047d565b6001600160a01b0393841681526020810192909252909116604082015260600190565b5f60208284031215610621575f80fd5b505191905056fea2646970667358221220ac10998f9b82e884346e8532335b12363ed67ed3ff251f458fc28a596b7202f464736f6c63430008180033",
  "devdoc": {
    "kind": "dev",
    "methods": {},
    "version": 1
  },
  "userdoc": {
    "kind": "user",
    "methods": {},
    "version": 1
  },
  "storageLayout": {
    "storage": [
      {
        "astId": 6332,
        "contract": "contracts/TokenTown/LukeReceiver.sol:LukeRecieve",
        "label": "ism",
        "offset": 0,
        "slot": "0",
        "type": "t_address"
      },
      {
        "astId": 6335,
        "contract": "contracts/TokenTown/LukeReceiver.sol:LukeRecieve",
        "label": "game",
        "offset": 0,
        "slot": "1",
        "type": "t_contract(Game)5743"
      },
      {
        "astId": 6350,
        "contract": "contracts/TokenTown/LukeReceiver.sol:LukeRecieve",
        "label": "messageCount",
        "offset": 0,
        "slot": "2",
        "type": "t_uint256"
      }
    ],
    "types": {
      "t_address": {
        "encoding": "inplace",
        "label": "address",
        "numberOfBytes": "20"
      },
      "t_contract(Game)5743": {
        "encoding": "inplace",
        "label": "contract Game",
        "numberOfBytes": "20"
      },
      "t_uint256": {
        "encoding": "inplace",
        "label": "uint256",
        "numberOfBytes": "32"
      }
    }
  }
}