{
  "address": "0x1F02fA4F142e0727CC3f2eC84433aB513F977657",
  "abi": [
    {
      "inputs": [],
      "name": "moduleType",
      "outputs": [
        {
          "internalType": "uint8",
          "name": "",
          "type": "uint8"
        }
      ],
      "stateMutability": "view",
      "type": "function"
    },
    {
      "inputs": [
        {
          "internalType": "bytes",
          "name": "",
          "type": "bytes"
        },
        {
          "internalType": "bytes",
          "name": "",
          "type": "bytes"
        }
      ],
      "name": "verify",
      "outputs": [
        {
          "internalType": "bool",
          "name": "",
          "type": "bool"
        }
      ],
      "stateMutability": "pure",
      "type": "function"
    }
  ],
  "transactionHash": "0x337346132842b2450dacd7cece85e395c56790511bfe2d57e93a5ecf45bcb3bb",
  "args": [],
  "numDeployments": 1,
  "solcInputHash": "379cea7b481d2dc5ce11797b9fd3785e",
  "bytecode": "0x608060405234801561000f575f80fd5b5061015f8061001d5f395ff3fe608060405234801561000f575f80fd5b5060043610610034575f3560e01c80636465e69f14610038578063f7e83aee14610057575b5f80fd5b610040600681565b60405160ff90911681526020015b60405180910390f35b61006f6100653660046100c3565b6001949350505050565b604051901515815260200161004e565b5f8083601f84011261008f575f80fd5b5081356001600160401b038111156100a5575f80fd5b6020830191508360208285010111156100bc575f80fd5b9250929050565b5f805f80604085870312156100d6575f80fd5b84356001600160401b03808211156100ec575f80fd5b6100f88883890161007f565b90965094506020870135915080821115610110575f80fd5b5061011d8782880161007f565b9598949750955050505056fea2646970667358221220ceb3ad3b0e8d734b4e5332637430e74b6fe8d87f85c1b3b29d19fb2a298101ec64736f6c63430008180033",
  "devdoc": {
    "kind": "dev",
    "methods": {},
    "stateVariables": {
      "moduleType": {
        "details": "Relayers infer how to fetch and format metadata."
      }
    },
    "version": 1
  },
  "userdoc": {
    "kind": "user",
    "methods": {
      "moduleType()": {
        "notice": "Returns an enum that represents the type of security model encoded by this ISM."
      }
    },
    "version": 1
  },
  "storageLayout": {
    "storage": [],
    "types": null
  }
}