{
  "address": "0xBDC05C7EA00E15efd82769D9807bAa267f94A30b",
  "abi": [
    {
      "inputs": [
        {
          "internalType": "uint256",
          "name": "controllerGasLimit",
          "type": "uint256"
        }
      ],
      "stateMutability": "nonpayable",
      "type": "constructor"
    },
    {
      "inputs": [],
      "name": "AlreadyLocked",
      "type": "error"
    },
    {
      "inputs": [],
      "name": "CannotUpdateEmptyPosition",
      "type": "error"
    },
    {
      "inputs": [],
      "name": "CurrenciesOutOfOrderOrEqual",
      "type": "error"
    },
    {
      "inputs": [],
      "name": "CurrencyNotSettled",
      "type": "error"
    },
    {
      "inputs": [],
      "name": "DelegateCallNotAllowed",
      "type": "error"
    },
    {
      "inputs": [],
      "name": "ERC20TransferFailed",
      "type": "error"
    },
    {
      "inputs": [],
      "name": "FailedHookCall",
      "type": "error"
    },
    {
      "inputs": [],
      "name": "FeeNotDynamic",
      "type": "error"
    },
    {
      "inputs": [],
      "name": "FeeTooLarge",
      "type": "error"
    },
    {
      "inputs": [
        {
          "internalType": "address",
          "name": "hooks",
          "type": "address"
        }
      ],
      "name": "HookAddressNotValid",
      "type": "error"
    },
    {
      "inputs": [],
      "name": "InvalidCaller",
      "type": "error"
    },
    {
      "inputs": [],
      "name": "InvalidHookResponse",
      "type": "error"
    },
    {
      "inputs": [],
      "name": "InvalidLocker",
      "type": "error"
    },
    {
      "inputs": [],
      "name": "InvalidPrice",
      "type": "error"
    },
    {
      "inputs": [],
      "name": "InvalidPriceOrLiquidity",
      "type": "error"
    },
    {
      "inputs": [],
      "name": "InvalidSqrtRatio",
      "type": "error"
    },
    {
      "inputs": [],
      "name": "InvalidTick",
      "type": "error"
    },
    {
      "inputs": [],
      "name": "ManagerNotLocked",
      "type": "error"
    },
    {
      "inputs": [],
      "name": "MaxCurrenciesTouched",
      "type": "error"
    },
    {
      "inputs": [],
      "name": "NativeTransferFailed",
      "type": "error"
    },
    {
      "inputs": [],
      "name": "NoLiquidityToReceiveFees",
      "type": "error"
    },
    {
      "inputs": [],
      "name": "NotEnoughLiquidity",
      "type": "error"
    },
    {
      "inputs": [],
      "name": "NotPoolManagerToken",
      "type": "error"
    },
    {
      "inputs": [],
      "name": "PoolAlreadyInitialized",
      "type": "error"
    },
    {
      "inputs": [],
      "name": "PoolNotInitialized",
      "type": "error"
    },
    {
      "inputs": [],
      "name": "PoolNotInitialized1",
      "type": "error"
    },
    {
      "inputs": [
        {
          "internalType": "uint160",
          "name": "sqrtPriceCurrentX96",
          "type": "uint160"
        },
        {
          "internalType": "uint160",
          "name": "sqrtPriceLimitX96",
          "type": "uint160"
        }
      ],
      "name": "PriceLimitAlreadyExceeded",
      "type": "error"
    },
    {
      "inputs": [
        {
          "internalType": "uint160",
          "name": "sqrtPriceLimitX96",
          "type": "uint160"
        }
      ],
      "name": "PriceLimitOutOfBounds",
      "type": "error"
    },
    {
      "inputs": [],
      "name": "PriceOverflow",
      "type": "error"
    },
    {
      "inputs": [],
      "name": "ProtocolFeeCannotBeFetched",
      "type": "error"
    },
    {
      "inputs": [],
      "name": "ProtocolFeeControllerCallFailedOrInvalidResult",
      "type": "error"
    },
    {
      "inputs": [],
      "name": "SafeCastOverflow",
      "type": "error"
    },
    {
      "inputs": [],
      "name": "SwapAmountCannotBeZero",
      "type": "error"
    },
    {
      "inputs": [
        {
          "internalType": "int24",
          "name": "tick",
          "type": "int24"
        }
      ],
      "name": "TickLiquidityOverflow",
      "type": "error"
    },
    {
      "inputs": [
        {
          "internalType": "int24",
          "name": "tickLower",
          "type": "int24"
        }
      ],
      "name": "TickLowerOutOfBounds",
      "type": "error"
    },
    {
      "inputs": [
        {
          "internalType": "int24",
          "name": "tick",
          "type": "int24"
        },
        {
          "internalType": "int24",
          "name": "tickSpacing",
          "type": "int24"
        }
      ],
      "name": "TickMisaligned",
      "type": "error"
    },
    {
      "inputs": [],
      "name": "TickSpacingTooLarge",
      "type": "error"
    },
    {
      "inputs": [],
      "name": "TickSpacingTooSmall",
      "type": "error"
    },
    {
      "inputs": [
        {
          "internalType": "int24",
          "name": "tickUpper",
          "type": "int24"
        }
      ],
      "name": "TickUpperOutOfBounds",
      "type": "error"
    },
    {
      "inputs": [
        {
          "internalType": "int24",
          "name": "tickLower",
          "type": "int24"
        },
        {
          "internalType": "int24",
          "name": "tickUpper",
          "type": "int24"
        }
      ],
      "name": "TicksMisordered",
      "type": "error"
    },
    {
      "anonymous": false,
      "inputs": [
        {
          "indexed": true,
          "internalType": "address",
          "name": "owner",
          "type": "address"
        },
        {
          "indexed": true,
          "internalType": "address",
          "name": "spender",
          "type": "address"
        },
        {
          "indexed": true,
          "internalType": "uint256",
          "name": "id",
          "type": "uint256"
        },
        {
          "indexed": false,
          "internalType": "uint256",
          "name": "amount",
          "type": "uint256"
        }
      ],
      "name": "Approval",
      "type": "event"
    },
    {
      "anonymous": false,
      "inputs": [
        {
          "indexed": true,
          "internalType": "PoolId",
          "name": "id",
          "type": "bytes32"
        },
        {
          "indexed": false,
          "internalType": "uint24",
          "name": "dynamicSwapFee",
          "type": "uint24"
        }
      ],
      "name": "DynamicSwapFeeUpdated",
      "type": "event"
    },
    {
      "anonymous": false,
      "inputs": [
        {
          "indexed": true,
          "internalType": "PoolId",
          "name": "id",
          "type": "bytes32"
        },
        {
          "indexed": true,
          "internalType": "Currency",
          "name": "currency0",
          "type": "address"
        },
        {
          "indexed": true,
          "internalType": "Currency",
          "name": "currency1",
          "type": "address"
        },
        {
          "indexed": false,
          "internalType": "uint24",
          "name": "fee",
          "type": "uint24"
        },
        {
          "indexed": false,
          "internalType": "int24",
          "name": "tickSpacing",
          "type": "int24"
        },
        {
          "indexed": false,
          "internalType": "contract IHooks",
          "name": "hooks",
          "type": "address"
        }
      ],
      "name": "Initialize",
      "type": "event"
    },
    {
      "anonymous": false,
      "inputs": [
        {
          "indexed": true,
          "internalType": "PoolId",
          "name": "id",
          "type": "bytes32"
        },
        {
          "indexed": true,
          "internalType": "address",
          "name": "sender",
          "type": "address"
        },
        {
          "indexed": false,
          "internalType": "int24",
          "name": "tickLower",
          "type": "int24"
        },
        {
          "indexed": false,
          "internalType": "int24",
          "name": "tickUpper",
          "type": "int24"
        },
        {
          "indexed": false,
          "internalType": "int256",
          "name": "liquidityDelta",
          "type": "int256"
        }
      ],
      "name": "ModifyLiquidity",
      "type": "event"
    },
    {
      "anonymous": false,
      "inputs": [
        {
          "indexed": true,
          "internalType": "address",
          "name": "owner",
          "type": "address"
        },
        {
          "indexed": true,
          "internalType": "address",
          "name": "operator",
          "type": "address"
        },
        {
          "indexed": false,
          "internalType": "bool",
          "name": "approved",
          "type": "bool"
        }
      ],
      "name": "OperatorSet",
      "type": "event"
    },
    {
      "anonymous": false,
      "inputs": [
        {
          "indexed": true,
          "internalType": "address",
          "name": "oldOwner",
          "type": "address"
        },
        {
          "indexed": true,
          "internalType": "address",
          "name": "newOwner",
          "type": "address"
        }
      ],
      "name": "OwnerChanged",
      "type": "event"
    },
    {
      "anonymous": false,
      "inputs": [
        {
          "indexed": false,
          "internalType": "address",
          "name": "protocolFeeController",
          "type": "address"
        }
      ],
      "name": "ProtocolFeeControllerUpdated",
      "type": "event"
    },
    {
      "anonymous": false,
      "inputs": [
        {
          "indexed": true,
          "internalType": "PoolId",
          "name": "id",
          "type": "bytes32"
        },
        {
          "indexed": false,
          "internalType": "uint16",
          "name": "protocolFee",
          "type": "uint16"
        }
      ],
      "name": "ProtocolFeeUpdated",
      "type": "event"
    },
    {
      "anonymous": false,
      "inputs": [
        {
          "indexed": true,
          "internalType": "PoolId",
          "name": "id",
          "type": "bytes32"
        },
        {
          "indexed": true,
          "internalType": "address",
          "name": "sender",
          "type": "address"
        },
        {
          "indexed": false,
          "internalType": "int128",
          "name": "amount0",
          "type": "int128"
        },
        {
          "indexed": false,
          "internalType": "int128",
          "name": "amount1",
          "type": "int128"
        },
        {
          "indexed": false,
          "internalType": "uint160",
          "name": "sqrtPriceX96",
          "type": "uint160"
        },
        {
          "indexed": false,
          "internalType": "uint128",
          "name": "liquidity",
          "type": "uint128"
        },
        {
          "indexed": false,
          "internalType": "int24",
          "name": "tick",
          "type": "int24"
        },
        {
          "indexed": false,
          "internalType": "uint24",
          "name": "fee",
          "type": "uint24"
        }
      ],
      "name": "Swap",
      "type": "event"
    },
    {
      "anonymous": false,
      "inputs": [
        {
          "indexed": false,
          "internalType": "address",
          "name": "caller",
          "type": "address"
        },
        {
          "indexed": true,
          "internalType": "address",
          "name": "from",
          "type": "address"
        },
        {
          "indexed": true,
          "internalType": "address",
          "name": "to",
          "type": "address"
        },
        {
          "indexed": true,
          "internalType": "uint256",
          "name": "id",
          "type": "uint256"
        },
        {
          "indexed": false,
          "internalType": "uint256",
          "name": "amount",
          "type": "uint256"
        }
      ],
      "name": "Transfer",
      "type": "event"
    },
    {
      "inputs": [],
      "name": "MAX_SWAP_FEE",
      "outputs": [
        {
          "internalType": "uint24",
          "name": "",
          "type": "uint24"
        }
      ],
      "stateMutability": "view",
      "type": "function"
    },
    {
      "inputs": [],
      "name": "MAX_TICK_SPACING",
      "outputs": [
        {
          "internalType": "int24",
          "name": "",
          "type": "int24"
        }
      ],
      "stateMutability": "view",
      "type": "function"
    },
    {
      "inputs": [],
      "name": "MIN_PROTOCOL_FEE_DENOMINATOR",
      "outputs": [
        {
          "internalType": "uint8",
          "name": "",
          "type": "uint8"
        }
      ],
      "stateMutability": "view",
      "type": "function"
    },
    {
      "inputs": [],
      "name": "MIN_TICK_SPACING",
      "outputs": [
        {
          "internalType": "int24",
          "name": "",
          "type": "int24"
        }
      ],
      "stateMutability": "view",
      "type": "function"
    },
    {
      "inputs": [
        {
          "internalType": "address",
          "name": "",
          "type": "address"
        },
        {
          "internalType": "address",
          "name": "",
          "type": "address"
        },
        {
          "internalType": "uint256",
          "name": "",
          "type": "uint256"
        }
      ],
      "name": "allowance",
      "outputs": [
        {
          "internalType": "uint256",
          "name": "",
          "type": "uint256"
        }
      ],
      "stateMutability": "view",
      "type": "function"
    },
    {
      "inputs": [
        {
          "internalType": "address",
          "name": "spender",
          "type": "address"
        },
        {
          "internalType": "uint256",
          "name": "id",
          "type": "uint256"
        },
        {
          "internalType": "uint256",
          "name": "amount",
          "type": "uint256"
        }
      ],
      "name": "approve",
      "outputs": [
        {
          "internalType": "bool",
          "name": "",
          "type": "bool"
        }
      ],
      "stateMutability": "nonpayable",
      "type": "function"
    },
    {
      "inputs": [
        {
          "internalType": "address",
          "name": "",
          "type": "address"
        },
        {
          "internalType": "uint256",
          "name": "",
          "type": "uint256"
        }
      ],
      "name": "balanceOf",
      "outputs": [
        {
          "internalType": "uint256",
          "name": "",
          "type": "uint256"
        }
      ],
      "stateMutability": "view",
      "type": "function"
    },
    {
      "inputs": [
        {
          "internalType": "address",
          "name": "from",
          "type": "address"
        },
        {
          "internalType": "uint256",
          "name": "id",
          "type": "uint256"
        },
        {
          "internalType": "uint256",
          "name": "amount",
          "type": "uint256"
        }
      ],
      "name": "burn",
      "outputs": [],
      "stateMutability": "nonpayable",
      "type": "function"
    },
    {
      "inputs": [
        {
          "internalType": "address",
          "name": "recipient",
          "type": "address"
        },
        {
          "internalType": "Currency",
          "name": "currency",
          "type": "address"
        },
        {
          "internalType": "uint256",
          "name": "amount",
          "type": "uint256"
        }
      ],
      "name": "collectProtocolFees",
      "outputs": [
        {
          "internalType": "uint256",
          "name": "amountCollected",
          "type": "uint256"
        }
      ],
      "stateMutability": "nonpayable",
      "type": "function"
    },
    {
      "inputs": [
        {
          "internalType": "address",
          "name": "locker",
          "type": "address"
        },
        {
          "internalType": "Currency",
          "name": "currency",
          "type": "address"
        }
      ],
      "name": "currencyDelta",
      "outputs": [
        {
          "internalType": "int256",
          "name": "currencyDelta",
          "type": "int256"
        }
      ],
      "stateMutability": "view",
      "type": "function"
    },
    {
      "inputs": [
        {
          "components": [
            {
              "internalType": "Currency",
              "name": "currency0",
              "type": "address"
            },
            {
              "internalType": "Currency",
              "name": "currency1",
              "type": "address"
            },
            {
              "internalType": "uint24",
              "name": "fee",
              "type": "uint24"
            },
            {
              "internalType": "int24",
              "name": "tickSpacing",
              "type": "int24"
            },
            {
              "internalType": "contract IHooks",
              "name": "hooks",
              "type": "address"
            }
          ],
          "internalType": "struct PoolKey",
          "name": "key",
          "type": "tuple"
        },
        {
          "internalType": "uint256",
          "name": "amount0",
          "type": "uint256"
        },
        {
          "internalType": "uint256",
          "name": "amount1",
          "type": "uint256"
        },
        {
          "internalType": "bytes",
          "name": "hookData",
          "type": "bytes"
        }
      ],
      "name": "donate",
      "outputs": [
        {
          "internalType": "BalanceDelta",
          "name": "delta",
          "type": "int256"
        }
      ],
      "stateMutability": "nonpayable",
      "type": "function"
    },
    {
      "inputs": [
        {
          "internalType": "bytes32",
          "name": "slot",
          "type": "bytes32"
        }
      ],
      "name": "extsload",
      "outputs": [
        {
          "internalType": "bytes32",
          "name": "value",
          "type": "bytes32"
        }
      ],
      "stateMutability": "view",
      "type": "function"
    },
    {
      "inputs": [
        {
          "internalType": "bytes32",
          "name": "startSlot",
          "type": "bytes32"
        },
        {
          "internalType": "uint256",
          "name": "nSlots",
          "type": "uint256"
        }
      ],
      "name": "extsload",
      "outputs": [
        {
          "internalType": "bytes",
          "name": "",
          "type": "bytes"
        }
      ],
      "stateMutability": "view",
      "type": "function"
    },
    {
      "inputs": [
        {
          "internalType": "PoolId",
          "name": "id",
          "type": "bytes32"
        },
        {
          "internalType": "address",
          "name": "_owner",
          "type": "address"
        },
        {
          "internalType": "int24",
          "name": "tickLower",
          "type": "int24"
        },
        {
          "internalType": "int24",
          "name": "tickUpper",
          "type": "int24"
        }
      ],
      "name": "getLiquidity",
      "outputs": [
        {
          "internalType": "uint128",
          "name": "liquidity",
          "type": "uint128"
        }
      ],
      "stateMutability": "view",
      "type": "function"
    },
    {
      "inputs": [
        {
          "internalType": "PoolId",
          "name": "id",
          "type": "bytes32"
        }
      ],
      "name": "getLiquidity",
      "outputs": [
        {
          "internalType": "uint128",
          "name": "liquidity",
          "type": "uint128"
        }
      ],
      "stateMutability": "view",
      "type": "function"
    },
    {
      "inputs": [],
      "name": "getLockNonzeroDeltaCount",
      "outputs": [
        {
          "internalType": "uint256",
          "name": "_nonzeroDeltaCount",
          "type": "uint256"
        }
      ],
      "stateMutability": "view",
      "type": "function"
    },
    {
      "inputs": [],
      "name": "getLocker",
      "outputs": [
        {
          "internalType": "address",
          "name": "locker",
          "type": "address"
        }
      ],
      "stateMutability": "view",
      "type": "function"
    },
    {
      "inputs": [
        {
          "internalType": "PoolId",
          "name": "id",
          "type": "bytes32"
        },
        {
          "internalType": "int16",
          "name": "word",
          "type": "int16"
        }
      ],
      "name": "getPoolBitmapInfo",
      "outputs": [
        {
          "internalType": "uint256",
          "name": "tickBitmap",
          "type": "uint256"
        }
      ],
      "stateMutability": "view",
      "type": "function"
    },
    {
      "inputs": [
        {
          "internalType": "PoolId",
          "name": "id",
          "type": "bytes32"
        },
        {
          "internalType": "int24",
          "name": "tick",
          "type": "int24"
        }
      ],
      "name": "getPoolTickInfo",
      "outputs": [
        {
          "components": [
            {
              "internalType": "uint128",
              "name": "liquidityGross",
              "type": "uint128"
            },
            {
              "internalType": "int128",
              "name": "liquidityNet",
              "type": "int128"
            },
            {
              "internalType": "uint256",
              "name": "feeGrowthOutside0X128",
              "type": "uint256"
            },
            {
              "internalType": "uint256",
              "name": "feeGrowthOutside1X128",
              "type": "uint256"
            }
          ],
          "internalType": "struct Pool.TickInfo",
          "name": "",
          "type": "tuple"
        }
      ],
      "stateMutability": "view",
      "type": "function"
    },
    {
      "inputs": [
        {
          "internalType": "PoolId",
          "name": "id",
          "type": "bytes32"
        },
        {
          "internalType": "address",
          "name": "_owner",
          "type": "address"
        },
        {
          "internalType": "int24",
          "name": "tickLower",
          "type": "int24"
        },
        {
          "internalType": "int24",
          "name": "tickUpper",
          "type": "int24"
        }
      ],
      "name": "getPosition",
      "outputs": [
        {
          "components": [
            {
              "internalType": "uint128",
              "name": "liquidity",
              "type": "uint128"
            },
            {
              "internalType": "uint256",
              "name": "feeGrowthInside0LastX128",
              "type": "uint256"
            },
            {
              "internalType": "uint256",
              "name": "feeGrowthInside1LastX128",
              "type": "uint256"
            }
          ],
          "internalType": "struct Position.Info",
          "name": "position",
          "type": "tuple"
        }
      ],
      "stateMutability": "view",
      "type": "function"
    },
    {
      "inputs": [
        {
          "internalType": "PoolId",
          "name": "id",
          "type": "bytes32"
        }
      ],
      "name": "getSlot0",
      "outputs": [
        {
          "internalType": "uint160",
          "name": "sqrtPriceX96",
          "type": "uint160"
        },
        {
          "internalType": "int24",
          "name": "tick",
          "type": "int24"
        },
        {
          "internalType": "uint16",
          "name": "protocolFee",
          "type": "uint16"
        }
      ],
      "stateMutability": "view",
      "type": "function"
    },
    {
      "inputs": [
        {
          "components": [
            {
              "internalType": "Currency",
              "name": "currency0",
              "type": "address"
            },
            {
              "internalType": "Currency",
              "name": "currency1",
              "type": "address"
            },
            {
              "internalType": "uint24",
              "name": "fee",
              "type": "uint24"
            },
            {
              "internalType": "int24",
              "name": "tickSpacing",
              "type": "int24"
            },
            {
              "internalType": "contract IHooks",
              "name": "hooks",
              "type": "address"
            }
          ],
          "internalType": "struct PoolKey",
          "name": "key",
          "type": "tuple"
        },
        {
          "internalType": "uint160",
          "name": "sqrtPriceX96",
          "type": "uint160"
        },
        {
          "internalType": "bytes",
          "name": "hookData",
          "type": "bytes"
        }
      ],
      "name": "initialize",
      "outputs": [
        {
          "internalType": "int24",
          "name": "tick",
          "type": "int24"
        }
      ],
      "stateMutability": "nonpayable",
      "type": "function"
    },
    {
      "inputs": [
        {
          "internalType": "address",
          "name": "",
          "type": "address"
        },
        {
          "internalType": "address",
          "name": "",
          "type": "address"
        }
      ],
      "name": "isOperator",
      "outputs": [
        {
          "internalType": "bool",
          "name": "",
          "type": "bool"
        }
      ],
      "stateMutability": "view",
      "type": "function"
    },
    {
      "inputs": [
        {
          "internalType": "bytes",
          "name": "data",
          "type": "bytes"
        }
      ],
      "name": "lock",
      "outputs": [
        {
          "internalType": "bytes",
          "name": "result",
          "type": "bytes"
        }
      ],
      "stateMutability": "payable",
      "type": "function"
    },
    {
      "inputs": [
        {
          "internalType": "address",
          "name": "to",
          "type": "address"
        },
        {
          "internalType": "uint256",
          "name": "id",
          "type": "uint256"
        },
        {
          "internalType": "uint256",
          "name": "amount",
          "type": "uint256"
        }
      ],
      "name": "mint",
      "outputs": [],
      "stateMutability": "nonpayable",
      "type": "function"
    },
    {
      "inputs": [
        {
          "components": [
            {
              "internalType": "Currency",
              "name": "currency0",
              "type": "address"
            },
            {
              "internalType": "Currency",
              "name": "currency1",
              "type": "address"
            },
            {
              "internalType": "uint24",
              "name": "fee",
              "type": "uint24"
            },
            {
              "internalType": "int24",
              "name": "tickSpacing",
              "type": "int24"
            },
            {
              "internalType": "contract IHooks",
              "name": "hooks",
              "type": "address"
            }
          ],
          "internalType": "struct PoolKey",
          "name": "key",
          "type": "tuple"
        },
        {
          "components": [
            {
              "internalType": "int24",
              "name": "tickLower",
              "type": "int24"
            },
            {
              "internalType": "int24",
              "name": "tickUpper",
              "type": "int24"
            },
            {
              "internalType": "int256",
              "name": "liquidityDelta",
              "type": "int256"
            }
          ],
          "internalType": "struct IPoolManager.ModifyLiquidityParams",
          "name": "params",
          "type": "tuple"
        },
        {
          "internalType": "bytes",
          "name": "hookData",
          "type": "bytes"
        }
      ],
      "name": "modifyLiquidity",
      "outputs": [
        {
          "internalType": "BalanceDelta",
          "name": "delta",
          "type": "int256"
        }
      ],
      "stateMutability": "nonpayable",
      "type": "function"
    },
    {
      "inputs": [],
      "name": "owner",
      "outputs": [
        {
          "internalType": "address",
          "name": "",
          "type": "address"
        }
      ],
      "stateMutability": "view",
      "type": "function"
    },
    {
      "inputs": [
        {
          "internalType": "PoolId",
          "name": "id",
          "type": "bytes32"
        }
      ],
      "name": "pools",
      "outputs": [
        {
          "components": [
            {
              "internalType": "uint160",
              "name": "sqrtPriceX96",
              "type": "uint160"
            },
            {
              "internalType": "int24",
              "name": "tick",
              "type": "int24"
            },
            {
              "internalType": "uint16",
              "name": "protocolFee",
              "type": "uint16"
            },
            {
              "internalType": "uint24",
              "name": "swapFee",
              "type": "uint24"
            }
          ],
          "internalType": "struct Pool.Slot0",
          "name": "slot0",
          "type": "tuple"
        },
        {
          "internalType": "uint256",
          "name": "feeGrowthGlobal0X128",
          "type": "uint256"
        },
        {
          "internalType": "uint256",
          "name": "feeGrowthGlobal1X128",
          "type": "uint256"
        },
        {
          "internalType": "uint128",
          "name": "liquidity",
          "type": "uint128"
        }
      ],
      "stateMutability": "view",
      "type": "function"
    },
    {
      "inputs": [],
      "name": "protocolFeeController",
      "outputs": [
        {
          "internalType": "contract IProtocolFeeController",
          "name": "",
          "type": "address"
        }
      ],
      "stateMutability": "view",
      "type": "function"
    },
    {
      "inputs": [
        {
          "internalType": "Currency",
          "name": "currency",
          "type": "address"
        }
      ],
      "name": "protocolFeesAccrued",
      "outputs": [
        {
          "internalType": "uint256",
          "name": "",
          "type": "uint256"
        }
      ],
      "stateMutability": "view",
      "type": "function"
    },
    {
      "inputs": [
        {
          "internalType": "Currency",
          "name": "currency",
          "type": "address"
        }
      ],
      "name": "reservesOf",
      "outputs": [
        {
          "internalType": "uint256",
          "name": "",
          "type": "uint256"
        }
      ],
      "stateMutability": "view",
      "type": "function"
    },
    {
      "inputs": [
        {
          "internalType": "address",
          "name": "operator",
          "type": "address"
        },
        {
          "internalType": "bool",
          "name": "approved",
          "type": "bool"
        }
      ],
      "name": "setOperator",
      "outputs": [
        {
          "internalType": "bool",
          "name": "",
          "type": "bool"
        }
      ],
      "stateMutability": "nonpayable",
      "type": "function"
    },
    {
      "inputs": [
        {
          "internalType": "address",
          "name": "_owner",
          "type": "address"
        }
      ],
      "name": "setOwner",
      "outputs": [],
      "stateMutability": "nonpayable",
      "type": "function"
    },
    {
      "inputs": [
        {
          "components": [
            {
              "internalType": "Currency",
              "name": "currency0",
              "type": "address"
            },
            {
              "internalType": "Currency",
              "name": "currency1",
              "type": "address"
            },
            {
              "internalType": "uint24",
              "name": "fee",
              "type": "uint24"
            },
            {
              "internalType": "int24",
              "name": "tickSpacing",
              "type": "int24"
            },
            {
              "internalType": "contract IHooks",
              "name": "hooks",
              "type": "address"
            }
          ],
          "internalType": "struct PoolKey",
          "name": "key",
          "type": "tuple"
        }
      ],
      "name": "setProtocolFee",
      "outputs": [],
      "stateMutability": "nonpayable",
      "type": "function"
    },
    {
      "inputs": [
        {
          "internalType": "contract IProtocolFeeController",
          "name": "controller",
          "type": "address"
        }
      ],
      "name": "setProtocolFeeController",
      "outputs": [],
      "stateMutability": "nonpayable",
      "type": "function"
    },
    {
      "inputs": [
        {
          "internalType": "Currency",
          "name": "currency",
          "type": "address"
        }
      ],
      "name": "settle",
      "outputs": [
        {
          "internalType": "uint256",
          "name": "paid",
          "type": "uint256"
        }
      ],
      "stateMutability": "payable",
      "type": "function"
    },
    {
      "inputs": [
        {
          "internalType": "bytes4",
          "name": "interfaceId",
          "type": "bytes4"
        }
      ],
      "name": "supportsInterface",
      "outputs": [
        {
          "internalType": "bool",
          "name": "",
          "type": "bool"
        }
      ],
      "stateMutability": "view",
      "type": "function"
    },
    {
      "inputs": [
        {
          "components": [
            {
              "internalType": "Currency",
              "name": "currency0",
              "type": "address"
            },
            {
              "internalType": "Currency",
              "name": "currency1",
              "type": "address"
            },
            {
              "internalType": "uint24",
              "name": "fee",
              "type": "uint24"
            },
            {
              "internalType": "int24",
              "name": "tickSpacing",
              "type": "int24"
            },
            {
              "internalType": "contract IHooks",
              "name": "hooks",
              "type": "address"
            }
          ],
          "internalType": "struct PoolKey",
          "name": "key",
          "type": "tuple"
        },
        {
          "components": [
            {
              "internalType": "bool",
              "name": "zeroForOne",
              "type": "bool"
            },
            {
              "internalType": "int256",
              "name": "amountSpecified",
              "type": "int256"
            },
            {
              "internalType": "uint160",
              "name": "sqrtPriceLimitX96",
              "type": "uint160"
            }
          ],
          "internalType": "struct IPoolManager.SwapParams",
          "name": "params",
          "type": "tuple"
        },
        {
          "internalType": "bytes",
          "name": "hookData",
          "type": "bytes"
        }
      ],
      "name": "swap",
      "outputs": [
        {
          "internalType": "BalanceDelta",
          "name": "delta",
          "type": "int256"
        }
      ],
      "stateMutability": "nonpayable",
      "type": "function"
    },
    {
      "inputs": [
        {
          "internalType": "Currency",
          "name": "currency",
          "type": "address"
        },
        {
          "internalType": "address",
          "name": "to",
          "type": "address"
        },
        {
          "internalType": "uint256",
          "name": "amount",
          "type": "uint256"
        }
      ],
      "name": "take",
      "outputs": [],
      "stateMutability": "nonpayable",
      "type": "function"
    },
    {
      "inputs": [
        {
          "internalType": "address",
          "name": "receiver",
          "type": "address"
        },
        {
          "internalType": "uint256",
          "name": "id",
          "type": "uint256"
        },
        {
          "internalType": "uint256",
          "name": "amount",
          "type": "uint256"
        }
      ],
      "name": "transfer",
      "outputs": [
        {
          "internalType": "bool",
          "name": "",
          "type": "bool"
        }
      ],
      "stateMutability": "nonpayable",
      "type": "function"
    },
    {
      "inputs": [
        {
          "internalType": "address",
          "name": "sender",
          "type": "address"
        },
        {
          "internalType": "address",
          "name": "receiver",
          "type": "address"
        },
        {
          "internalType": "uint256",
          "name": "id",
          "type": "uint256"
        },
        {
          "internalType": "uint256",
          "name": "amount",
          "type": "uint256"
        }
      ],
      "name": "transferFrom",
      "outputs": [
        {
          "internalType": "bool",
          "name": "",
          "type": "bool"
        }
      ],
      "stateMutability": "nonpayable",
      "type": "function"
    },
    {
      "inputs": [
        {
          "components": [
            {
              "internalType": "Currency",
              "name": "currency0",
              "type": "address"
            },
            {
              "internalType": "Currency",
              "name": "currency1",
              "type": "address"
            },
            {
              "internalType": "uint24",
              "name": "fee",
              "type": "uint24"
            },
            {
              "internalType": "int24",
              "name": "tickSpacing",
              "type": "int24"
            },
            {
              "internalType": "contract IHooks",
              "name": "hooks",
              "type": "address"
            }
          ],
          "internalType": "struct PoolKey",
          "name": "key",
          "type": "tuple"
        }
      ],
      "name": "updateDynamicSwapFee",
      "outputs": [],
      "stateMutability": "nonpayable",
      "type": "function"
    },
    {
      "stateMutability": "payable",
      "type": "receive"
    }
  ],
  "transactionHash": "0x9e4a6cb2264d840d54048b2ec4fc631818f9740ec41659835973ab093e7b0997",
  "args": [
    500000
  ],
  "numDeployments": 1,
  "solcInputHash": "7a0c43d181ff6dfc96b9087e32fe29a6",
  "bytecode": "0x60c060405234801562000010575f80fd5b50604051620059393803806200593983398101604081905262000033916200007f565b5f80546001600160a01b0319163390811782556040518392907fb532073b38c83145e3e5135377a08bf9aab55bc0fd7c1179cd4fb995d2a5159c908290a3608052503060a05262000097565b5f6020828403121562000090575f80fd5b5051919050565b60805160a051615879620000c05f395f611a1901525f81816121c3015261221a01526158795ff3fe6080604052600436106101e2575f3560e01c8062fdd58e146101ed57806301ffc9a714610236578063048d9c701461026557806307eff0dd146102af578063095bcdb6146102d05780630b0d9c09146102ef57806313af403514610310578063156e29f61461032f5780631e2eaeaf1461034e578063234266d71461036c5780632d7713891461038b57806333aa955b146103aa57806335fd631a146103e1578063426a84931461040d57806346063d051461042c57806348a7670314610440578063558a72971461045f578063598af9e71461047e5780635aa208a4146104ba5780635d4e0ced1461051857806360460f0614610539578063695c5bf51461054e5780636a256b291461056d5780637c352ef614610580578063815483191461059f5780638161b874146105b257806384e41c5e146105d15780638da5cb5b146105f757806393c85a211461061557806397e8cd4e14610640578063a54b28311461066b578063ab3d8544146106a1578063b02375ce146106cb578063b5217bb4146106ea578063b6363cf2146107df578063bec999dd14610818578063c815641c14610837578063f02de3b2146108e2578063f3cd914c14610901578063f5298aca14610920578063fa6793d51461093f578063fe99049a14610976575f80fd5b366101e957005b5f80fd5b3480156101f8575f80fd5b50610223610207366004614c16565b600460209081525f928352604080842090915290825290205481565b6040519081526020015b60405180910390f35b348015610241575f80fd5b50610255610250366004614c55565b610995565b604051901515815260200161022d565b348015610270575f80fd5b5061028461027f366004614c81565b6109cb565b6040805182516001600160801b0316815260208084015190820152918101519082015260600161022d565b3480156102ba575f80fd5b506102c3600181565b60405161022d9190614ccd565b3480156102db575f80fd5b506102556102ea366004614cdb565b610a47565b3480156102fa575f80fd5b5061030e610309366004614d0d565b610af6565b005b34801561031b575f80fd5b5061030e61032a366004614d4b565b610b7b565b34801561033a575f80fd5b5061030e610349366004614cdb565b610bfe565b348015610359575f80fd5b50610223610368366004614d66565b5490565b348015610377575f80fd5b50610223610386366004614ea4565b610c43565b348015610396575f80fd5b5061030e6103a5366004614d4b565b610cfb565b3480156103b5575f80fd5b506103c96103c4366004614c81565b610d7b565b6040516001600160801b03909116815260200161022d565b3480156103ec575f80fd5b506104006103fb366004614f08565b610daa565b60405161022d9190614f4a565b348015610418575f80fd5b50610255610427366004614cdb565b610e27565b348015610437575f80fd5b50610223610e8b565b34801561044b575f80fd5b5061030e61045a366004614f7c565b610e99565b34801561046a575f80fd5b50610255610479366004614fa5565b610f33565b348015610489575f80fd5b50610223610498366004614d0d565b600560209081525f938452604080852082529284528284209052825290205481565b3480156104c5575f80fd5b506104d96104d4366004614fd8565b610fa2565b60405161022d919081516001600160801b03168152602080830151600f0b90820152604080830151908201526060918201519181019190915260800190565b348015610523575f80fd5b5061052c610fc1565b60405161022d9190614ff9565b348015610544575f80fd5b506102c3617fff81565b348015610559575f80fd5b506102c361056836600461500d565b610fca565b61022361057b366004614d4b565b611223565b34801561058b575f80fd5b5061022361059a36600461506c565b6112b6565b6104006105ad36600461509f565b6112db565b3480156105bd575f80fd5b506102236105cc366004614d0d565b6113a3565b3480156105dc575f80fd5b506105e5600481565b60405160ff909116815260200161022d565b348015610602575f80fd5b505f5461052c906001600160a01b031681565b348015610620575f80fd5b5061022361062f366004614d4b565b60076020525f908152604090205481565b34801561064b575f80fd5b5061022361065a366004614d4b565b60016020525f908152604090205481565b348015610676575f80fd5b506102236106853660046150dd565b600660209081525f928352604080842090915290825290205481565b3480156106ac575f80fd5b506106b7620f424081565b60405162ffffff909116815260200161022d565b3480156106d6575f80fd5b5061030e6106e5366004614f7c565b61143b565b3480156106f5575f80fd5b5061077d610704366004614d66565b600860209081525f918252604091829020825160808101845281546001600160a01b0381168252600160a01b8104600290810b94830194909452600160b81b810461ffff1694820194909452600160c81b90930462ffffff1660608401526001810154918101546003909101546001600160801b031684565b6040805185516001600160a01b0316815260208087015160020b908201528582015161ffff169181019190915260609485015162ffffff1694810194909452608084019290925260a08301526001600160801b031660c082015260e00161022d565b3480156107ea575f80fd5b506102556107f93660046150dd565b600360209081525f928352604080842090915290825290205460ff1681565b348015610823575f80fd5b50610223610832366004615109565b6114cb565b348015610842575f80fd5b506108b6610851366004614d66565b5f90815260086020908152604091829020825160808101845290546001600160a01b038116808352600160a01b820460020b938301849052600160b81b820461ffff16948301859052600160c81b90910462ffffff1660609092019190915292909190565b604080516001600160a01b03909416845260029290920b602084015261ffff169082015260600161022d565b3480156108ed575f80fd5b5060025461052c906001600160a01b031681565b34801561090c575f80fd5b5061022361091b366004615188565b611630565b34801561092b575f80fd5b5061030e61093a366004614cdb565b61180f565b34801561094a575f80fd5b506103c9610959366004614d66565b5f908152600860205260409020600301546001600160801b031690565b348015610981575f80fd5b50610255610990366004615209565b611854565b5f6301ffc9a760e01b6001600160e01b0319831614806109c55750630f632fb360e01b6001600160e01b03198316145b92915050565b6109f560405180606001604052805f6001600160801b031681526020015f81526020015f81525090565b5f858152600860205260409020610a11906006018585856119b7565b6040805160608101825282546001600160801b03168152600183015460208201526002909201549082015290505b949350505050565b335f908152600460209081526040808320858452909152812080548391908390610a72908490615260565b90915550506001600160a01b0384165f90815260046020908152604080832086845290915281208054849290610aa9908490615273565b9250508190555082846001600160a01b0316336001600160a01b03165f805160206158048339815191523386604051610ae3929190615286565b60405180910390a45060015b9392505050565b610afe611a0e565b610b06611a59565b610b235760405163eab072a760e01b815260040160405180910390fd5b610b3583610b3083611a73565b611aa0565b6001600160a01b0383165f9081526007602052604081208054839290610b5c908490615260565b90915550610b7690506001600160a01b0384168383611b33565b505050565b5f546001600160a01b03163314610ba5576040516348f5c3ed60e01b815260040160405180910390fd5b5f80546040516001600160a01b03808516939216917fb532073b38c83145e3e5135377a08bf9aab55bc0fd7c1179cd4fb995d2a5159c91a35f80546001600160a01b0319166001600160a01b0392909216919091179055565b610c06611a0e565b610c0e611a59565b610c2b5760405163eab072a760e01b815260040160405180910390fd5b610c3882610b3083611a73565b610b76838383611bd4565b5f610c4c611a0e565b610c54611a59565b610c715760405163eab072a760e01b815260040160405180910390fd5b5f610c7b87611c4d565b9050610c8681611c7c565b6080870151610ca2906001600160a01b03168888888888611cb0565b610cb0575f19915050610cf2565b5f818152600860205260409020610cc8908787611d50565b9150610cd48783611e03565b6080870151610cf0906001600160a01b03168888888888611e26565b505b95945050505050565b5f546001600160a01b03163314610d25576040516348f5c3ed60e01b815260040160405180910390fd5b600280546001600160a01b0319166001600160a01b0383161790556040517fb4bd8ef53df690b9943d3318996006dbb82a25f54719d8c8035b516a2a5b8acc90610d70908390614ff9565b60405180910390a150565b5f848152600860205260408120610d97906006018585856119b7565b546001600160801b031695945050505050565b60605f610db883602061529f565b6001600160401b03811115610dcf57610dcf614d7d565b6040519080825280601f01601f191660200182016040528015610df9576020820181803683370190505b5090505f5b83811015610e1f578085015460206001830102830152600181019050610dfe565b509392505050565b335f8181526005602090815260408083206001600160a01b03881680855290835281842087855290925280832085905551919285927fb3fd5071835887567a0671151121894ddccc2842f1d10bedad13e0d17cace9a790610ae39087815260200190565b5f610e94611eb7565b905090565b6040810151628000001615610f17575f610eb282611ed8565b90505f610ebe83611c4d565b5f818152600860205260409020909150610ed89083611f7a565b60405162ffffff8316815281907fdda45bdfb4c4d89a045919c537cb189db3745c4b1977d65f1d7cf60b585e7b729060200160405180910390a2505050565b604051636807896960e11b815260040160405180910390fd5b50565b335f8181526003602090815260408083206001600160a01b038716808552908352818420805460ff191687151590811790915591519182529293917fceb576d9f15e4e200fdb5096d64d5dfd667e16def20c1eefd14256d8e3faa267910160405180910390a350600192915050565b610faa614b8d565b5f838152600860205260409020610aef9083611fc0565b5f610e94612021565b5f610fd3611a59565b610ff05760405163eab072a760e01b815260040160405180910390fd5b6040850151620f4240620fffff9091161061101e57604051637e2df70960e11b815260040160405180910390fd5b6060850151617fff60029190910b131561104b57604051635815aee160e11b815260040160405180910390fd5b600160020b856060015160020b121561107757604051630b7f3b4b60e11b815260040160405180910390fd5b845160208601516001600160a01b039081169116106110a95760405163eaa6c6eb60e01b815260040160405180910390fd5b6110cd856040015186608001516001600160a01b031661203b90919063ffffffff16565b6110f9578460800151604051630732d7b560e51b81526004016110f09190614ff9565b60405180910390fd5b6080850151611114906001600160a01b031686868686612123565b5f61111e86611c4d565b90505f61112a876121ac565b60408901519092505f9150628000001661114d576040880151620fffff16611156565b61115688611ed8565b5f8481526008602052604090209091506111729088848461232b565b6080890151909450611191906001600160a01b03168989878a8a6123f1565b87602001516001600160a01b0316885f01516001600160a01b0316847f3fd553db44f207b1f41348cfc4d251860814af9eadc470e8e7895e4d120511f48b604001518c606001518d608001516040516112109392919062ffffff93909316835260029190910b60208301526001600160a01b0316604082015260600190565b60405180910390a4505050949350505050565b5f61122c611a0e565b611234611a59565b6112515760405163eab072a760e01b815260040160405180910390fd5b6001600160a01b0382165f818152600760205260409020549061127390612433565b6001600160a01b0384165f908152600760205260409020819055611298908290615260565b91506112b0836112a784611a73565b610b30906152b6565b50919050565b5f828152600860209081526040808320600185900b8452600501909152812054610aef565b60606112e5611a59565b15611303576040516317c3335f60e21b815260040160405180910390fd5b61130c336124bd565b6040516355b148ff60e11b8152339063ab6291fe9061133190869086906004016152ff565b5f604051808303815f875af115801561134c573d5f803e3d5ffd5b505050506040513d5f823e601f3d908101601f191682016040526113739190810190615312565b905061137d611eb7565b1561139b57604051635212cba160e01b815260040160405180910390fd5b6109c5612506565b6002545f906001600160a01b031633146113d0576040516348f5c3ed60e01b815260040160405180910390fd5b81156113dc57816113f5565b6001600160a01b0383165f908152600160205260409020545b6001600160a01b0384165f90815260016020526040812080549293508392909190611421908490615260565b90915550610aef90506001600160a01b0384168583611b33565b5f80611446836121ac565b91509150816114685760405163e7ca185f60e01b815260040160405180910390fd5b5f61147284611c4d565b5f81815260086020526040902090915061148c9083612527565b60405161ffff8316815281907f9f9496a7bce5dc5951d2db4c6bac380c9bcbcc9a4e9c18eafbcc231d06de481a9060200160405180910390a250505050565b5f6114d4611a0e565b6114dc611a59565b6114f95760405163eab072a760e01b815260040160405180910390fd5b5f61150386611c4d565b905061150e81611c7c565b6080860151611529906001600160a01b03168787878761256b565b611537575f19915050610a3f565b6115a06040518060a00160405280336001600160a01b03168152602001875f015160020b8152602001876020015160020b815260200161157a8860400151612668565b600f0b8152606089015160020b6020918201525f8481526008909152604090209061268d565b91506115ac8683611e03565b845160208601516040808801519051339385937f541c041c2cce48e614b3de043c9280f06b6164c0a1741649e2de3c3d375f79749361160393600293840b81529190920b6020820152604081019190915260600190565b60405180910390a36080860151611627906001600160a01b03168787858888612a5f565b50949350505050565b5f611639611a0e565b611641611a59565b61165e5760405163eab072a760e01b815260040160405180910390fd5b5f61166886611c4d565b905061167381611c7c565b608086015161168e906001600160a01b031687878787612b0f565b61169c575f19915050610a3f565b5f806116a6614bbd565b61170660405180608001604052808b6060015160020b81526020018a5f0151151581526020018a6020015181526020018a604001516001600160a01b031681525060085f8781526020019081526020015f20612b5e90919063ffffffff16565b9297509094509250905061171a8986611e03565b8215611759578260015f8a5f0151611736578b60200151611739565b8b515b6001600160a01b0316815260208101919091526040015f20805490910190555b33847f40e9cecb9f5f1f1c5b9c97dec2917b7ee92e57ba5563708daca94dd84ad7112f6117868860801c90565b60408581015160a0808801516060808a01518551600f97880b8152968f900b60208801526001600160a01b03909416868601526001600160801b039091169085015260029190910b608084015262ffffff881690830152519081900360c00190a36080890151611803906001600160a01b03168a8a888b8b613292565b50505050949350505050565b611817611a0e565b61181f611a59565b61183c5760405163eab072a760e01b815260040160405180910390fd5b611849826112a783611a73565b610b768383836132d9565b5f336001600160a01b0386161480159061189157506001600160a01b0385165f90815260036020908152604080832033845290915290205460ff16155b15611901576001600160a01b0385165f90815260056020908152604080832033845282528083208684529091529020545f1981146118ff576118d38382615260565b6001600160a01b0387165f90815260056020908152604080832033845282528083208884529091529020555b505b6001600160a01b0385165f90815260046020908152604080832086845290915281208054849290611933908490615260565b90915550506001600160a01b0384165f9081526004602090815260408083208684529091528120805484929061196a908490615273565b9250508190555082846001600160a01b0316866001600160a01b03165f8051602061580483398151915233866040516119a4929190615286565b60405180910390a4506001949350505050565b6040805160609490941b6001600160601b03191660208086019190915260e893841b60348601529190921b60378401528151601a818503018152603a90930182528251928101929092205f90815292909152902090565b306001600160a01b037f00000000000000000000000000000000000000000000000000000000000000001614611a57576040516306c4a1c760e11b815260040160405180910390fd5b565b5f80611a63612021565b6001600160a01b03161415905090565b5f60016001607f1b03821115611a9c576040516393dafdf160e01b815260040160405180910390fd5b5090565b80600f0b5f03611aae575050565b335f9081526006602090815260408083206001600160a01b038616845290915281205490611ae0600f84900b836153ae565b9050805f03611af657611af1613397565b611b05565b815f03611b0557611b056133be565b335f9081526006602090815260408083206001600160a01b0397909716835295905293909320929092555050565b5f611b46846001600160a01b03166133e5565b15611b78575f805f8085875af1905080611b7357604051633d2cec6f60e21b815260040160405180910390fd5b611bce565b60405163a9059cbb60e01b5f52836004528260245260205f60445f80895af13d15601f3d1160015f511416171691505f606052806040525080611bce57604051633c9fd93960e21b815260040160405180910390fd5b50505050565b6001600160a01b0383165f90815260046020908152604080832085845290915281208054839290611c06908490615273565b9250508190555081836001600160a01b03165f6001600160a01b03165f805160206158048339815191523385604051611c40929190615286565b60405180910390a4505050565b5f81604051602001611c5f9190615410565b604051602081830303815290604052805190602001209050919050565b5f818152600860205260409020611c92906133f2565b15610f305760405163486aa30760e01b815260040160405180910390fd5b60808501515f90611cce906001600160a01b0316600160971b613400565b15611d4257611d3b63b6a8b0fa60e01b338888888888604051602401611cf99695949392919061541e565b60408051601f198184030181529190526020810180516001600160e01b03166001600160e01b0319909316929092179091526001600160a01b0389169061340f565b9050611d46565b5060015b9695505050505050565b60038301545f906001600160801b03168103611d7f5760405163a74f97ab60e01b815260040160405180910390fd5b611d99611d8b84611a73565b611d9484611a73565b6134cf565b90508215611dcc576003840154611dc0908490600160801b906001600160801b03166134e2565b60018501805490910190555b8115610aef576003840154611df1908390600160801b906001600160801b03166134e2565b60028501805490910190559392505050565b8151611e1390610b308360801c90565b611e228260200151610b308390565b5050565b6080850151611e42906001600160a01b0316600160961b613400565b15611eaf57611eaf63e1b4af6960e01b338787878787604051602401611e6d9695949392919061541e565b60408051601f198184030181529190526020810180516001600160e01b03166001600160e01b0319909316929092179091526001600160a01b0388169061357e565b505050505050565b5f80611ed160015f805160206157e4833981519152615260565b5c92915050565b6080810151604051630a43ce8960e01b81525f916001600160a01b031690630a43ce8990611f0c903390869060040161545b565b602060405180830381865afa158015611f27573d5f803e3d5ffd5b505050506040513d601f19601f82011682018060405250810190611f4b9190615478565b9050620f424062ffffff821610611f7557604051637e2df70960e11b815260040160405180910390fd5b919050565b611f83826133f2565b15611fa15760405163015b456960e61b815260040160405180910390fd5b815462ffffff909116600160c81b0262ffffff60c81b19909116179055565b611fc8614b8d565b50600290810b5f9081526004929092016020908152604092839020835160808101855281546001600160801b0381168252600160801b9004600f0b92810192909252600181015493820193909352910154606082015290565b5f80611ed160015f80516020615824833981519152615260565b5f6120536001600160a01b038416600160951b613400565b801561207357506120716001600160a01b0384166001609d1b613400565b155b801561209357506120916001600160a01b0384166001609b1b613400565b155b80156120b357506120b16001600160a01b038416600160991b613400565b155b80156120d357506120d16001600160a01b038416600160971b613400565b155b156120df57505f6109c5565b6001600160a01b0383161561211757600160951b836001600160a01b031610158061211257506280000082161515610aef565b610aef565b50628000001615919050565b61213a6001600160a01b0386166001609f1b613400565b156121a5576121a5633440d82060e01b3386868686604051602401612163959493929190615493565b60408051601f198184030181529190526020810180516001600160e01b03166001600160e01b0319909316929092179091526001600160a01b0387169061357e565b5050505050565b6002545f9081906001600160a01b031615612326577f00000000000000000000000000000000000000000000000000000000000000005a101561220257604051630f724b8160e11b815260040160405180910390fd5b6002546040515f9182916001600160a01b03909116907f00000000000000000000000000000000000000000000000000000000000000009063553bfc3760e01b90612251908990602401615410565b60408051601f198184030181529181526020820180516001600160e01b03166001600160e01b031990941693909317909252905161228f91906154da565b5f604051808303815f8787f1925050503d805f81146122c9576040519150601f19603f3d011682016040523d82523d5f602084013e6122ce565b606091505b50915091508115806122e1575060208151115b156122f257505f9485945092505050565b602081015161ffff81168114801561230e575061230e816135c2565b612319575f8061231d565b6001815b90955093505050505b915091565b83545f906001600160a01b03161561235657604051637983c05160e01b815260040160405180910390fd5b61235f84613631565b604080516080810182526001600160a01b0396909616808752600283900b602088015261ffff9590951690860181905262ffffff938416606090960186905286546001600160b81b031916909417600160a01b938216939093029290921764ffffffffff60b81b1916600160b81b90930262ffffff60c81b191692909217600160c81b90930292909217909255919050565b6124086001600160a01b0387166001609e1b613400565b15611eaf57611eaf63a910f80f60e01b338787878787604051602401611e6d969594939291906154f5565b5f612446826001600160a01b03166133e5565b15612452575047919050565b6040516370a0823160e01b81526001600160a01b038316906370a082319061247e903090600401614ff9565b602060405180830381865afa158015612499573d5f803e3d5ffd5b505050506040513d601f19601f820116820180604052508101906109c5919061553b565b6001600160a01b0381166124e45760405163ab54b81360e01b815260040160405180910390fd5b5f6124fd60015f80516020615824833981519152615260565b905081815d5050565b5f61251f60015f80516020615824833981519152615260565b90505f815d50565b612530826133f2565b1561254e5760405163015b456960e61b815260040160405180910390fd5b815461ffff909116600160b81b0261ffff60b81b19909116179055565b5f80846040015113801561259657506080850151612596906001600160a01b03166001609d1b613400565b156126085761260163a6ab2a4360e01b33878787876040516024016125bf959493929190615574565b60408051601f198184030181529190526020810180516001600160e01b03166001600160e01b0319909316929092179091526001600160a01b0388169061340f565b9050610cf2565b5f84604001511315801561263357506080850151612633906001600160a01b03166001609b1b613400565b1561265c57612601632b58404e60e01b33878787876040516024016125bf959493929190615574565b50600195945050505050565b80600f81900b8114611f75576040516393dafdf160e01b815260040160405180910390fd5b5f6126a082602001518360400151613902565b6040805160c0810182525f80825260208201819052918101829052606081018290526080810182905260a0810182905281906060850151600f0b15612813576126f386866020015187606001515f613996565b6001600160801b03166020830152151581526040850151606086015161271c9188916001613996565b6001600160801b031660608084019190915290151560408301528501515f600f9190910b13156127d2575f6127548660800151613a6d565b9050806001600160801b031682602001516001600160801b0316111561279357856020015160405163b8e3c38560e01b81526004016110f09190614ccd565b806001600160801b031682606001516001600160801b031611156127d057856040015160405163b8e3c38560e01b81526004016110f09190614ccd565b505b8051156127f157602085015160808601516127f1916005890191613a9a565b8060400151156128135760408501516080860151612813916005890191613a9a565b6128268686602001518760400151613b2a565b60a083018190526080830182905260608701518751602089015160408a01516128629593949261285a9260068e01926119b7565b929190613be0565b80935081945050505f8560600151600f0b12156128a65780511561288e5761288e868660200151613d03565b8060400151156128a6576128a6868660400151613d03565b506060840151600f0b15612a415760208401518554600291820b600160a01b90910490910b1215612919576129128361290d6129076129026128eb8960200151613d26565b6128f88a60400151613d26565b8a60600151614036565b612668565b5f6134cf565b614071565b9250612a41565b60408401518554600291820b600160a01b90910490910b1215612a0c578454604085015161298d91859161290d9161296291612902916001600160a01b0316906128f890613d26565b611d946129026129758a60200151613d26565b8b5460608c01516001600160a01b039091169061409d565b92505f8460600151600f0b126129bf57606084015160038601546129ba91906001600160801b03166155b2565b6129e5565b83606001516129cd906152b6565b60038601546129e591906001600160801b03166155d9565b6003860180546001600160801b0319166001600160801b0392909216919091179055612a41565b612a3e8361290d5f611d94612902612a278a60200151613d26565b612a348b60400151613d26565b8b6060015161409d565b92505b610cf283612a5a612a5185611a73565b611d9485611a73565b6140c9565b5f8460400151138015612a8957506080850151612a89906001600160a01b03166001609c1b613400565b15612ab957612ab463b505b4ce60e01b338787878787604051602401611e6d969594939291906155f9565b611eaf565b5f846040015113158015612ae457506080850151612ae4906001600160a01b03166001609a1b613400565b15611eaf57611eaf63c3d5d4e660e01b338787878787604051602401611e6d969594939291906155f9565b60808401515f90612b2d906001600160a01b0316600160991b613400565b15612b565761260163575e24b460e01b33878787876040516024016125bf959493929190615662565b506001610cf2565b5f805f612b69614bbd565b84604001515f03612b8d5760405163be8b850760e01b815260040160405180910390fd5b6040805160808101825287546001600160a01b0381168252600160a01b810460020b602080840191909152600160b81b820461ffff1693830193909352600160c81b900462ffffff1660608201819052918701519193509015612c7257805f01516001600160a01b031686606001516001600160a01b031610612c2c5780516060870151604051637c9c6e8f60e01b81526110f092919060040161568c565b6401000276a36001600160a01b031686606001516001600160a01b031611612c6d578560600151604051639e4d7cc760e01b81526004016110f09190614ff9565b612d04565b805f01516001600160a01b031686606001516001600160a01b031611612cb45780516060870151604051637c9c6e8f60e01b81526110f092919060040161568c565b73fffd8963efd1fc6a506488495d951d5263988d266001600160a01b031686606001516001600160a01b031610612d04578560600151604051639e4d7cc760e01b81526004016110f09190614ff9565b6040805180820190915260038801546001600160801b031681526020878101515f9291820190612d40576008846040015161ffff16901c612d52565b6101008460400151612d5291906156ba565b60ff1681525090505f8088604001511390506040518060c00160405280896040015181526020015f8152602001845f01516001600160a01b03168152602001846020015160020b81526020018960200151612db1578a60020154612db7565b8a600101545b815283516001600160801b03166020918201526040805160e0810182525f808252928101839052908101829052606081018290526080810182905260a0810182905260c08101919091529094505b845115801590612e2f575088606001516001600160a01b031685604001516001600160a01b031614155b156131855760408501516001600160a01b031681526060850151895160208b0151612e609260058e019290916140f5565b1515604083015260020b60208201819052620d89e7191315612e8b57620d89e7196020820152612ebf565b612e98620d89e7196156da565b60020b816020015160020b1315612ebf57612eb6620d89e7196156da565b60020b60208201525b612ecc8160200151613d26565b6001600160a01b03166060820152604085015160208a0151612f4e9190612f0f578a606001516001600160a01b031683606001516001600160a01b031611612f2d565b8a606001516001600160a01b031683606001516001600160a01b0316105b612f3b578260600151612f41565b8a606001515b60a088015188518a61422d565b60c085015260a084015260808301526001600160a01b031660408601528115612fb057612f848160c00151826080015101614415565b855103855260a0810151612f9790614415565b8560200151612fa691906156f2565b6020860152612ff3565b612fbd8160a00151614415565b855101855260c08101516080820151612fde91612fd991615273565b614415565b8560200151612fed91906153ae565b60208601525b602083015160ff161561302a575f836020015160ff168260c001516130189190615711565b60c08301805182900390529790970196505b60a08501516001600160801b0316156130695761305d8160c00151600160801b8760a001516001600160801b03166134e2565b60808601805190910190525b80606001516001600160a01b031685604001516001600160a01b0316036131535780604001511561312a575f6130d48b83602001518c602001516130b1578d600101546130b7565b88608001515b8d602001516130ca57896080015161443e565b8e6002015461443e565b90508960200151156130e3575f035b5f81600f0b1261310257808660a001516130fd91906155b2565b61311a565b61310b816152b6565b8660a0015161311a91906155d9565b6001600160801b031660a0870152505b886020015161313d578060200151613146565b60018160200151035b60020b6060860152612e05565b805f01516001600160a01b031685604001516001600160a01b031614613180576131468560400151613631565b612e05565b604085015160608601518b546001600160b81b031916600160a01b62ffffff909216919091026001600160a01b031916176001600160a01b03909116178a5560a085015183516001600160801b039182169116146132045760a085015160038b0180546001600160801b0319166001600160801b039092169190911790555b88602001511561321d57608085015160018b0155613228565b608085015160028b01555b81151589602001511515036132605761325961324c865f01518b6040015103612668565b611d948760200151612668565b9750613285565b6132826132708660200151612668565b611d94875f01518c6040015103612668565b97505b5050505092959194509250565b60808501516132ae906001600160a01b0316600160981b613400565b15611eaf57611eaf63b47b2fb160e01b338787878787604051602401611e6d96959493929190615724565b336001600160a01b038416811480159061331857506001600160a01b038085165f9081526003602090815260408083209385168352929052205460ff16155b1561338c576001600160a01b038085165f9081526005602090815260408083209385168352928152828220868352905220545f19811461338a5761335c8382615260565b6001600160a01b038087165f9081526005602090815260408083209387168352928152828220888352905220555b505b611bce848484614479565b5f6133b060015f805160206157e4833981519152615260565b90505f19815c0180825d5050565b5f6133d760015f805160206157e4833981519152615260565b90506001815c0180825d5050565b6001600160a01b03161590565b546001600160a01b03161590565b166001600160a01b0316151590565b5f805f61341c85856144e5565b91509150816001600160e01b031916816001600160e01b0319160361344457600192506134c7565b6040516304e6f4f760e41b6020820152602401604051602081830303815290604052805190602001206001600160e01b031916816001600160e01b0319161480156134a157506134a16001600160a01b038616600160951b613400565b156134ae575f92506134c7565b604051631e048e1d60e01b815260040160405180910390fd5b505092915050565b6001600160801b031660809190911b1790565b5f838302815f1985870982811083820303915050808411613501575f80fd5b805f0361351357508290049050610aef565b5f848688095f868103871696879004966002600389028118808a02820302808a02820302808a02820302808a02820302808a02820302808a02909103029181900381900460010186841190950394909402919094039290920491909117919091029150509392505050565b5f8061358a84846144e5565b91509150816001600160e01b031916816001600160e01b03191614611bce57604051631e048e1d60e01b815260040160405180910390fd5b5f61ffff821615613629575f6135da610100846156ba565b905060ff600884901c1661ffff8216158015906135fb5750600461ffff8316105b80613618575061ffff8116158015906136185750600461ffff8216105b1561362657505f9392505050565b50505b506001919050565b5f6401000276a36001600160a01b038316108061366b575073fffd8963efd1fc6a506488495d951d5263988d266001600160a01b03831610155b156136895760405163015680db60e11b815260040160405180910390fd5b600160201b600160c01b03602083901b166001600160801b03811160071b81811c6001600160401b03811160061b90811c63ffffffff811160051b90811c61ffff811160041b90811c60ff8111600390811b91821c600f811160021b90811c918211600190811b92831c9790881196179094179092171790911717176080811061371b57607f810383901c9150613725565b80607f0383901b91505b908002607f81811c60ff83811c9190911c800280831c81831c1c800280841c81841c1c800280851c81851c1c800280861c81861c1c800280871c81871c1c800280881c81881c1c800280891c81891c1c8002808a1c818a1c1c8002808b1c818b1c1c8002808c1c818c1c1c8002808d1c818d1c1c8002808e1c9c81901c9c909c1c80029c8d901c9e9d607f198f0160401b60c09190911c6001603f1b161760c19b909b1c6001603e1b169a909a1760c29990991c6001603d1b169890981760c39790971c6001603c1b169690961760c49590951c6001603b1b169490941760c59390931c6001603a1b169290921760c69190911c600160391b161760c79190911c600160381b161760c89190911c600160371b161760c99190911c600160361b161760ca9190911c600160351b161760cb9190911c600160341b161760cc9190911c600160331b161760cd9190911c600160321b1617693627a301d71055774c8581026f028f6481ab7f045a5af012a19d003aa9198101608090811d906fdb2df09e81959a81455e260799a0632f8301901d600281810b9083900b146138f357886001600160a01b03166138d882613d26565b6001600160a01b031611156138ed57816138f5565b806138f5565b815b9998505050505050505050565b8060020b8260020b126139365760405163c4433ed560e01b8152600283810b600483015282900b60248201526044016110f0565b620d89e719600283900b1215613961578160405163d5e2f7ab60e01b81526004016110f09190614ccd565b61396e620d89e7196156da565b60020b8160020b1315611e22578060405163035aeeff60e31b81526004016110f09190614ccd565b600283900b5f908152600485016020526040812080548291906001600160801b0381169060801c600f87900b84136139d7576139d287836155b2565b6139ea565b6139e0876152b6565b6139ea90836155d9565b6001600160801b03808216159084168015919091141596509094505f03613a37578854600160a01b9004600290810b9089900b13613a37576001808a0154908401556002808a0154908401555b5f86613a4c57613a47888361574e565b613a56565b613a56888361577b565b90508060801b851784555050505094509492505050565b5f621b13d08201600290810b9083900b6001600160801b030281613a9357613a936156a6565b0492915050565b8060020b8260020b81613aaf57613aaf6156a6565b0760020b15613adf57604051636a6c79f360e11b8152600283810b600483015282900b60248201526044016110f0565b5f80613aff8360020b8560020b81613af957613af96156a6565b05614578565b600191820b5f9081526020979097526040909620805460ff9097169190911b90951890945550505050565b600282810b5f81815260048601602052604080822085850b835290822087549294859492939192600160a01b909204900b90811215613b82578160010154836001015403945081600201548360020154039350613bd5565b8560020b8160020b12613bae578260010154826001015403945082600201548260020154039350613bd5565b81600101548360010154896001015403039450816002015483600201548960020154030393505b505050935093915050565b6040805160608101825285546001600160801b03168152600186015460208201526002860154918101919091525f90819081600f87900b8103613c4f5781516001600160801b03165f03613c4757604051632bbfae4960e21b815260040160405180910390fd5b508051613c83565b5f87600f0b12613c6b578151613c669088906155b2565b613c80565b613c74876152b6565b8251613c8091906155d9565b90505b613ca482602001518703835f01516001600160801b0316600160801b6134e2565b9350613cc782604001518603835f01516001600160801b0316600160801b6134e2565b925086600f0b5f14613ced5787546001600160801b0319166001600160801b0382161788555b5050600186019390935560029094015591929050565b600290810b5f908152600490920160205260408220828155600181018390550155565b5f805f8360020b12613d3b578260020b613d42565b8260020b5f035b9050620d89e8811115613d68576040516333a3bdff60e21b815260040160405180910390fd5b5f816001165f03613d7d57600160801b613d8f565b6ffffcb933bd6fad37aa2d162d1a5940015b6001600160881b031690506002821615613db9576ffff97272373d413259a46990580e213a0260801c5b6004821615613dd8576ffff2e50f5f656932ef12357cf3c7fdcc0260801c5b6008821615613df7576fffe5caca7e10e4e61c3624eaa0941cd00260801c5b6010821615613e16576fffcb9843d60f6159c9db58835c9266440260801c5b6020821615613e35576fff973b41fa98c081472e6896dfb254c00260801c5b6040821615613e54576fff2ea16466c96a3843ec78b326b528610260801c5b6080821615613e73576ffe5dee046a99a2a811c461f1969c30530260801c5b610100821615613e93576ffcbe86c7900a88aedcffc83b479aa3a40260801c5b610200821615613eb3576ff987a7253ac413176f2b074cf7815e540260801c5b610400821615613ed3576ff3392b0822b70005940c7a398e4b70f30260801c5b610800821615613ef3576fe7159475a2c29b7443b29c7fa6e889d90260801c5b611000821615613f13576fd097f3bdfd2022b8845ad8f792aa58250260801c5b612000821615613f33576fa9f746462d870fdf8a65dc1f90e061e50260801c5b614000821615613f53576f70d869a156d2a1b890bb3df62baf32f70260801c5b618000821615613f73576f31be135f97d08fd981231505542fcfa60260801c5b62010000821615613f94576f09aa508b5b7a84e1c677de54f3e99bc90260801c5b62020000821615613fb4576e5d6af8dedb81196699c329225ee6040260801c5b62040000821615613fd3576d2216e584f5fa1ea926041bedfe980260801c5b62080000821615613ff0576b048a170391f7dc42444e8fa20260801c5b5f8460020b131561400f57805f198161400b5761400b6156a6565b0490505b600160201b810615614022576001614024565b5f5b60ff16602082901c0192505050919050565b5f8082600f0b1261405657614051612fd9858585600161458a565b610a3f565b614067612fd98585855f035f61458a565b5f03949350505050565b5f610aef61407f8360801c90565b6140898560801c90565b614093919061574e565b611d94848661574e565b5f8082600f0b126140b857614051612fd98585856001614655565b614067612fd98585855f035f614655565b5f610aef6140d78360801c90565b6140e18560801c90565b6140eb919061577b565b611d94848661577b565b5f805f8460020b8660020b8161410d5761410d6156a6565b0590505f8660020b12801561413957508460020b8660020b81614132576141326156a6565b0760020b15155b15614142575f19015b83156141b2575f8061415383614578565b600182810b5f90815260208d9052604090205460ff83169190911b80015f19019081168015159750929450909250908561419457888360ff168603026141a7565b8861419e826146d2565b840360ff168603025b965050505050614223565b5f806141c083600101614578565b600182810b5f90815260208d9052604090205460ff83169190911b5f1901199081168015159750929450909250908561420657888360ff0360ff1686600101010261421c565b88836142118361476a565b0360ff168660010101025b9650505050505b5094509492505050565b5f8080806001600160a01b03808916908a1610158187128015906142b0575f6142648989620f42400362ffffff16620f42406134e2565b90508261427d576142788c8c8c6001614655565b61428a565b61428a8b8d8c600161458a565b955085811061429b578a96506142aa565b6142a78c8b8386614850565b96505b506142f6565b816142c6576142c18b8b8b5f61458a565b6142d2565b6142d28a8c8b5f614655565b935083885f03106142e5578995506142f6565b6142f38b8a8a5f03856148ab565b95505b6001600160a01b038a8116908716148215614358578080156143155750815b61432b57614326878d8c600161458a565b61432d565b855b955080801561433a575081155b61434f5761434a878d8c5f614655565b614351565b845b94506143a1565b8080156143625750815b614378576143738c888c6001614655565b61437a565b855b9550808015614387575081155b61439c576143978c888c5f61458a565b61439e565b845b94505b811580156143b05750885f0385115b156143bb57885f0394505b8180156143da57508a6001600160a01b0316876001600160a01b031614155b156143e9578589039350614406565b614403868962ffffff168a620f42400362ffffff16614904565b93505b50505095509550955095915050565b5f6001600160ff1b03821115611a9c576040516393dafdf160e01b815260040160405180910390fd5b600292830b5f90815260049094016020526040909320600181018054909203909155908101805490920390915554600160801b9004600f0b90565b6001600160a01b0383165f908152600460209081526040808320858452909152812080548392906144ab908490615260565b92505081905550815f6001600160a01b0316846001600160a01b03165f805160206158048339815191523385604051611c40929190615286565b5f80602083015191505f80856001600160a01b03168560405161450891906154da565b5f604051808303815f865af19150503d805f8114614541576040519150601f19603f3d011682016040523d82523d5f602084013e614546565b606091505b5091509150816145595761455981614940565b8080602001905181019061456d91906157a8565b925050509250929050565b60020b600881901d9161010090910790565b5f836001600160a01b0316856001600160a01b031611156145a9579293925b600160601b600160e01b03606084901b166001600160a01b0386860381169087165f036145e85760405162bfc92160e01b815260040160405180910390fd5b8361461e57866001600160a01b031661460b8383896001600160a01b03166134e2565b81614618576146186156a6565b0461464a565b61464a6146358383896001600160a01b0316614904565b886001600160a01b0316808204910615150190565b979650505050505050565b5f836001600160a01b0316856001600160a01b03161115614674579293925b816146a8576146a36001600160801b03841661469087876157c3565b6001600160a01b0316600160601b6134e2565b610cf2565b610cf26001600160801b0384166146bf87876157c3565b6001600160a01b0316600160601b614904565b5f8082116146de575f80fd5b600160801b82106146f157608091821c91015b600160401b821061470457604091821c91015b600160201b821061471757602091821c91015b62010000821061472957601091821c91015b610100821061473a57600891821c91015b6010821061474a57600491821c91015b6004821061475a57600291821c91015b60028210611f7557600101919050565b5f808211614776575f80fd5b5060ff6001600160801b0382161561479157607f1901614799565b608082901c91505b6001600160401b038216156147b157603f19016147b9565b604082901c91505b63ffffffff8216156147ce57601f19016147d6565b602082901c91505b61ffff8216156147e957600f19016147f1565b601082901c91505b60ff821615614803576007190161480b565b600882901c91505b600f82161561481d5760031901614825565b600482901c91505b6003821615614837576001190161483f565b600282901c91505b6001821615611f75575f1901919050565b5f6001600160a01b038516158061486e57506001600160801b038416155b1561488c576040516309e48c3760e31b815260040160405180910390fd5b8161489e576146a38585856001614968565b610cf28585856001614a5f565b5f6001600160a01b03851615806148c957506001600160801b038416155b156148e7576040516309e48c3760e31b815260040160405180910390fd5b816148f8576146a38585855f614a5f565b610cf28585855f614968565b5f6149108484846134e2565b90505f8280614921576149216156a6565b8486091115610aef575f198110614936575f80fd5b6001019392505050565b80511561494f57805181602001fd5b6040516336bc48c560e01b815260040160405180910390fd5b5f81156149d8575f6001600160a01b0384111561499c5761499784600160601b876001600160801b03166134e2565b6149b3565b6149b36001600160801b038616606086901b615711565b90506149d06149cb826001600160a01b038916615273565b614b63565b915050610a3f565b5f6001600160a01b03841115614a0557614a0084600160601b876001600160801b0316614904565b614a22565b614a22606085901b6001600160801b038716808204910615150190565b905080866001600160a01b031611614a4d57604051634323a55560e01b815260040160405180910390fd5b6001600160a01b038616039050610a3f565b5f825f03614a6e575083610a3f565b600160601b600160e01b03606085901b168215614b00576001600160a01b03861684810290858281614aa257614aa26156a6565b0403614ad257818101828110614ad057614ac683896001600160a01b031683614904565b9350505050610a3f565b505b506149d08185614aeb6001600160a01b038a1683615711565b614af59190615273565b808204910615150190565b6001600160a01b03861684810290858281614b1d57614b1d6156a6565b04141580614b2b5750808211155b15614b495760405163f5c787f160e01b815260040160405180910390fd5b808203614ac66149cb846001600160a01b038b1684614904565b806001600160a01b0381168114611f75576040516393dafdf160e01b815260040160405180910390fd5b60405180608001604052805f6001600160801b031681526020015f600f0b81526020015f81526020015f81525090565b6040518060c001604052805f81526020015f81526020015f6001600160a01b031681526020015f60020b81526020015f81526020015f6001600160801b031681525090565b6001600160a01b0381168114610f30575f80fd5b5f8060408385031215614c27575f80fd5b8235614c3281614c02565b946020939093013593505050565b6001600160e01b031981168114610f30575f80fd5b5f60208284031215614c65575f80fd5b8135610aef81614c40565b8035600281900b8114611f75575f80fd5b5f805f8060808587031215614c94575f80fd5b843593506020850135614ca681614c02565b9250614cb460408601614c70565b9150614cc260608601614c70565b905092959194509250565b60029190910b815260200190565b5f805f60608486031215614ced575f80fd5b8335614cf881614c02565b95602085013595506040909401359392505050565b5f805f60608486031215614d1f575f80fd5b8335614d2a81614c02565b92506020840135614d3a81614c02565b929592945050506040919091013590565b5f60208284031215614d5b575f80fd5b8135610aef81614c02565b5f60208284031215614d76575f80fd5b5035919050565b634e487b7160e01b5f52604160045260245ffd5b604051606081016001600160401b0381118282101715614db357614db3614d7d565b60405290565b62ffffff81168114610f30575f80fd5b5f60a08284031215614dd9575f80fd5b60405160a081016001600160401b0381118282101715614dfb57614dfb614d7d565b6040529050808235614e0c81614c02565b81526020830135614e1c81614c02565b60208201526040830135614e2f81614db9565b6040820152614e4060608401614c70565b60608201526080830135614e5381614c02565b6080919091015292915050565b5f8083601f840112614e70575f80fd5b5081356001600160401b03811115614e86575f80fd5b602083019150836020828501011115614e9d575f80fd5b9250929050565b5f805f805f6101008688031215614eb9575f80fd5b614ec38787614dc9565b945060a0860135935060c0860135925060e08601356001600160401b03811115614eeb575f80fd5b614ef788828901614e60565b969995985093965092949392505050565b5f8060408385031215614f19575f80fd5b50508035926020909101359150565b5f5b83811015614f42578181015183820152602001614f2a565b50505f910152565b602081525f8251806020840152614f68816040850160208701614f28565b601f01601f19169190910160400192915050565b5f60a08284031215614f8c575f80fd5b610aef8383614dc9565b80358015158114611f75575f80fd5b5f8060408385031215614fb6575f80fd5b8235614fc181614c02565b9150614fcf60208401614f96565b90509250929050565b5f8060408385031215614fe9575f80fd5b82359150614fcf60208401614c70565b6001600160a01b0391909116815260200190565b5f805f8060e08587031215615020575f80fd5b61502a8686614dc9565b935060a085013561503a81614c02565b925060c08501356001600160401b03811115615054575f80fd5b61506087828801614e60565b95989497509550505050565b5f806040838503121561507d575f80fd5b8235915060208301358060010b8114615094575f80fd5b809150509250929050565b5f80602083850312156150b0575f80fd5b82356001600160401b038111156150c5575f80fd5b6150d185828601614e60565b90969095509350505050565b5f80604083850312156150ee575f80fd5b82356150f981614c02565b9150602083013561509481614c02565b5f805f8084860361012081121561511e575f80fd5b6151288787614dc9565b94506060609f198201121561513b575f80fd5b50615144614d91565b61515060a08701614c70565b815261515e60c08701614c70565b602082015260e0860135604082015292506101008501356001600160401b03811115615054575f80fd5b5f805f8084860361012081121561519d575f80fd5b6151a78787614dc9565b94506060609f19820112156151ba575f80fd5b506151c3614d91565b6151cf60a08701614f96565b815260c0860135602082015260e08601356151e981614c02565b604082015292506101008501356001600160401b03811115615054575f80fd5b5f805f806080858703121561521c575f80fd5b843561522781614c02565b9350602085013561523781614c02565b93969395505050506040820135916060013590565b634e487b7160e01b5f52601160045260245ffd5b818103818111156109c5576109c561524c565b808201808211156109c5576109c561524c565b6001600160a01b03929092168252602082015260400190565b80820281158282048414176109c5576109c561524c565b5f600f82900b6001607f1b81016152cf576152cf61524c565b5f0392915050565b81835281816020850137505f828201602090810191909152601f909101601f19169091010190565b602081525f610a3f6020830184866152d7565b5f60208284031215615322575f80fd5b81516001600160401b0380821115615338575f80fd5b818401915084601f83011261534b575f80fd5b81518181111561535d5761535d614d7d565b604051601f8201601f19908116603f0116810190838211818310171561538557615385614d7d565b8160405282815287602084870101111561539d575f80fd5b61464a836020830160208801614f28565b8082018281125f8312801582168215821617156134c7576134c761524c565b80516001600160a01b03908116835260208083015182169084015260408083015162ffffff169084015260608083015160020b9084015260809182015116910152565b60a081016109c582846153cd565b6001600160a01b03871681525f61012061543b60208401896153cd565b8660c08401528560e0840152806101008401526138f581840185876152d7565b6001600160a01b038316815260c08101610aef60208301846153cd565b5f60208284031215615488575f80fd5b8151610aef81614db9565b6001600160a01b0386811682525f90610100906154b360208501896153cd565b861660c084015260e083018190526154ce81840185876152d7565b98975050505050505050565b5f82516154eb818460208701614f28565b9190910192915050565b6001600160a01b0387811682525f9061012090615515602085018a6153cd565b80881660c0850152508560020b60e0840152806101008401526138f581840185876152d7565b5f6020828403121561554b575f80fd5b5051919050565b805160020b8252602081015160020b6020830152604081015160408301525050565b6001600160a01b03861681525f61014061559160208401886153cd565b61559e60c0840187615552565b806101208401526154ce81840185876152d7565b6001600160801b038181168382160190808211156155d2576155d261524c565b5092915050565b6001600160801b038281168282160390808211156155d2576155d261524c565b6001600160a01b03871681525f61016061561660208401896153cd565b61562360c0840188615552565b85610120840152806101408401526138f581840185876152d7565b805115158252602080820151908301526040908101516001600160a01b0316910152565b6001600160a01b03861681525f61014061567f60208401886153cd565b61559e60c084018761563e565b6001600160a01b0392831681529116602082015260400190565b634e487b7160e01b5f52601260045260245ffd5b5f61ffff808416806156ce576156ce6156a6565b92169190910692915050565b5f8160020b627fffff1981036152cf576152cf61524c565b8181035f8312801583831316838312821617156155d2576155d261524c565b5f8261571f5761571f6156a6565b500490565b6001600160a01b03871681525f61016061574160208401896153cd565b61562360c084018861563e565b600f81810b9083900b0160016001607f1b03811360016001607f1b0319821217156109c5576109c561524c565b600f82810b9082900b0360016001607f1b0319811260016001607f1b03821317156109c5576109c561524c565b5f602082840312156157b8575f80fd5b8151610aef81614c40565b6001600160a01b038281168282160390808211156155d2576155d261524c56fe7d4b3164c6e45b97e7d87b7125a44c5828d005af88f9d751cfd78729c5d99a0c1b3d7edb2e9c0b0e7c525b20aaaef0f5940d2ed71663c7d39266ecafac7288590e87e1788ebd9ed6a7e63c70a374cd3283e41cad601d21fbe27863899ed4a709a2646970667358221220f71a34923caf107be3d5faa4cbe01d404d7165bb6ca82800ea66e44b40b5100364736f6c63430008180033",
  "devdoc": {
    "errors": {
      "HookAddressNotValid(address)": [
        {
          "params": {
            "hooks": "The address of the hooks contract"
          }
        }
      ],
      "PriceLimitAlreadyExceeded(uint160,uint160)": [
        {
          "params": {
            "sqrtPriceCurrentX96": "The invalid, already surpassed sqrtPriceLimitX96",
            "sqrtPriceLimitX96": "The surpassed price limit"
          }
        }
      ],
      "PriceLimitOutOfBounds(uint160)": [
        {
          "params": {
            "sqrtPriceLimitX96": "The invalid, out-of-bounds sqrtPriceLimitX96"
          }
        }
      ],
      "TickLowerOutOfBounds(int24)": [
        {
          "params": {
            "tickLower": "The invalid tickLower"
          }
        }
      ],
      "TickMisaligned(int24,int24)": [
        {
          "params": {
            "tick": "the invalid tick",
            "tickSpacing": "The tick spacing of the pool"
          }
        }
      ],
      "TickUpperOutOfBounds(int24)": [
        {
          "params": {
            "tickUpper": "The invalid tickUpper"
          }
        }
      ],
      "TicksMisordered(int24,int24)": [
        {
          "params": {
            "tickLower": "The invalid tickLower",
            "tickUpper": "The invalid tickUpper"
          }
        }
      ]
    },
    "events": {
      "Initialize(bytes32,address,address,uint24,int24,address)": {
        "params": {
          "currency0": "The first currency of the pool by address sort order",
          "currency1": "The second currency of the pool by address sort order",
          "fee": "The fee collected upon every swap in the pool, denominated in hundredths of a bip",
          "hooks": "The hooks contract address for the pool, or address(0) if none",
          "id": "The abi encoded hash of the pool key struct for the new pool",
          "tickSpacing": "The minimum number of ticks between initialized ticks"
        }
      },
      "ModifyLiquidity(bytes32,address,int24,int24,int256)": {
        "params": {
          "id": "The abi encoded hash of the pool key struct for the pool that was modified",
          "liquidityDelta": "The amount of liquidity that was added or removed",
          "sender": "The address that modified the pool",
          "tickLower": "The lower tick of the position",
          "tickUpper": "The upper tick of the position"
        }
      },
      "OwnerChanged(address,address)": {
        "params": {
          "newOwner": "The owner after the owner was changed",
          "oldOwner": "The owner before the owner was changed"
        }
      },
      "Swap(bytes32,address,int128,int128,uint160,uint128,int24,uint24)": {
        "params": {
          "amount0": "The delta of the currency0 balance of the pool",
          "amount1": "The delta of the currency1 balance of the pool",
          "id": "The abi encoded hash of the pool key struct for the pool that was modified",
          "liquidity": "The liquidity of the pool after the swap",
          "sender": "The address that initiated the swap call, and that received the callback",
          "sqrtPriceX96": "The sqrt(price) of the pool after the swap, as a Q64.96",
          "tick": "The log base 1.0001 of the price of the pool after the swap"
        }
      }
    },
    "kind": "dev",
    "methods": {
      "approve(address,uint256,uint256)": {
        "params": {
          "amount": "The amount of the token.",
          "id": "The id of the token.",
          "spender": "The address of the spender."
        }
      },
      "extsload(bytes32)": {
        "params": {
          "slot": "Key of slot to sload"
        },
        "returns": {
          "value": "The value of the slot as bytes32"
        }
      },
      "lock(bytes)": {
        "params": {
          "data": "Any data to pass to the callback, via `ILockCallback(msg.sender).lockAcquired(data)`"
        },
        "returns": {
          "result": "The data returned by the call to `ILockCallback(msg.sender).lockAcquired(data)`"
        }
      },
      "modifyLiquidity((address,address,uint24,int24,address),(int24,int24,int256),bytes)": {
        "details": "Poke by calling with a zero liquidityDelta",
        "params": {
          "hookData": "Any data to pass to the callback, via `ILockCallback(msg.sender).lockAcquired(data)`",
          "key": "The pool to modify liquidity in",
          "params": "The parameters for modifying the liquidity"
        },
        "returns": {
          "delta": "The balance delta of the liquidity"
        }
      },
      "take(address,address,uint256)": {
        "details": "Can also be used as a mechanism for _free_ flash loans"
      },
      "transfer(address,uint256,uint256)": {
        "params": {
          "amount": "The amount of the token.",
          "id": "The id of the token.",
          "receiver": "The address of the receiver."
        }
      },
      "transferFrom(address,address,uint256,uint256)": {
        "params": {
          "amount": "The amount of the token.",
          "id": "The id of the token.",
          "receiver": "The address of the receiver.",
          "sender": "The address of the sender."
        }
      }
    },
    "stateVariables": {
      "currencyDelta": {
        "details": "Represents the currencies due/owed to each locker. Must all net to zero when the last lock is released. TODO this needs to be transient"
      }
    },
    "version": 1
  },
  "userdoc": {
    "errors": {
      "AlreadyLocked()": [
        {
          "notice": "Thrown when lock is called, but a lock is already open"
        }
      ],
      "CannotUpdateEmptyPosition()": [
        {
          "notice": "Cannot update a position with no liquidity"
        }
      ],
      "CurrenciesOutOfOrderOrEqual()": [
        {
          "notice": "PoolKey must have currencies where address(currency0) < address(currency1)"
        }
      ],
      "CurrencyNotSettled()": [
        {
          "notice": "Thrown when a currency is not netted out after a lock"
        }
      ],
      "ERC20TransferFailed()": [
        {
          "notice": "Thrown when an ERC20 transfer fails"
        }
      ],
      "FailedHookCall()": [
        {
          "notice": "thrown when a hook call fails"
        }
      ],
      "FeeNotDynamic()": [
        {
          "notice": "Thrown when a pool does not have a dynamic fee."
        }
      ],
      "FeeTooLarge()": [
        {
          "notice": "Thrown when the protocol fee denominator is less than 4. Also thrown when the static or dynamic fee on a pool is exceeds 100%."
        }
      ],
      "HookAddressNotValid(address)": [
        {
          "notice": "Thrown if the address will not lead to the specified hook calls being called"
        }
      ],
      "InvalidHookResponse()": [
        {
          "notice": "Hook did not return its selector"
        }
      ],
      "InvalidLocker()": [
        {
          "notice": "Thrown when trying to set the lock target as address(0) we use locker==address(0) to signal that the pool is not locked"
        }
      ],
      "InvalidSqrtRatio()": [
        {
          "notice": "Thrown when the ratio passed to #getTickAtSqrtRatio does not correspond to a price between MIN_TICK and MAX_TICK"
        }
      ],
      "InvalidTick()": [
        {
          "notice": "Thrown when the tick passed to #getSqrtRatioAtTick is not between MIN_TICK and MAX_TICK"
        }
      ],
      "ManagerNotLocked()": [
        {
          "notice": "Thrown when a function is called outside of a lock"
        }
      ],
      "MaxCurrenciesTouched()": [
        {
          "notice": "Thrown when currencies touched has exceeded max of 256"
        }
      ],
      "NativeTransferFailed()": [
        {
          "notice": "Thrown when a native transfer fails"
        }
      ],
      "NoLiquidityToReceiveFees()": [
        {
          "notice": "Thrown by donate if there is currently 0 liquidity, since the fees will not go to any liquidity providers"
        }
      ],
      "NotPoolManagerToken()": [
        {
          "notice": "The ERC1155 being deposited is not the Uniswap ERC1155"
        }
      ],
      "PoolAlreadyInitialized()": [
        {
          "notice": "Thrown when trying to initialize an already initialized pool"
        }
      ],
      "PoolNotInitialized()": [
        {
          "notice": "Thrown when trying to interact with a non-initialized pool"
        }
      ],
      "PoolNotInitialized1()": [
        {
          "notice": "Thrown when trying to interact with a non-initialized pool"
        }
      ],
      "PriceLimitAlreadyExceeded(uint160,uint160)": [
        {
          "notice": "Thrown when sqrtPriceLimitX96 on a swap has already exceeded its limit"
        }
      ],
      "PriceLimitOutOfBounds(uint160)": [
        {
          "notice": "Thrown when sqrtPriceLimitX96 lies outside of valid tick/price range"
        }
      ],
      "ProtocolFeeCannotBeFetched()": [
        {
          "notice": "Thrown when not enough gas is provided to look up the protocol fee"
        }
      ],
      "ProtocolFeeControllerCallFailedOrInvalidResult()": [
        {
          "notice": "Thrown when the call to fetch the protocol fee reverts or returns invalid data."
        }
      ],
      "SwapAmountCannotBeZero()": [
        {
          "notice": "Thrown when trying to swap amount of 0"
        }
      ],
      "TickLiquidityOverflow(int24)": [
        {
          "notice": "For the tick spacing, the tick has too much liquidity"
        }
      ],
      "TickLowerOutOfBounds(int24)": [
        {
          "notice": "Thrown when tickLower is less than min tick"
        }
      ],
      "TickMisaligned(int24,int24)": [
        {
          "notice": "Thrown when the tick is not enumerated by the tick spacing"
        }
      ],
      "TickSpacingTooLarge()": [
        {
          "notice": "Pools are limited to type(int16).max tickSpacing in #initialize, to prevent overflow"
        }
      ],
      "TickSpacingTooSmall()": [
        {
          "notice": "Pools must have a positive non-zero tickSpacing passed to #initialize"
        }
      ],
      "TickUpperOutOfBounds(int24)": [
        {
          "notice": "Thrown when tickUpper exceeds max tick"
        }
      ],
      "TicksMisordered(int24,int24)": [
        {
          "notice": "Thrown when tickLower is not below tickUpper"
        }
      ]
    },
    "events": {
      "Initialize(bytes32,address,address,uint24,int24,address)": {
        "notice": "Emitted when a new pool is initialized"
      },
      "ModifyLiquidity(bytes32,address,int24,int24,int256)": {
        "notice": "Emitted when a liquidity position is modified"
      },
      "OwnerChanged(address,address)": {
        "notice": "Emitted when the owner of the factory is changed"
      },
      "Swap(bytes32,address,int128,int128,uint160,uint128,int24,uint24)": {
        "notice": "Emitted for swaps between currency0 and currency1"
      }
    },
    "kind": "user",
    "methods": {
      "MAX_TICK_SPACING()": {
        "notice": "Returns the constant representing the maximum tickSpacing for an initialized pool key"
      },
      "MIN_PROTOCOL_FEE_DENOMINATOR()": {
        "notice": "Returns the minimum denominator for the protocol fee, which restricts it to a maximum of 25%"
      },
      "MIN_TICK_SPACING()": {
        "notice": "Returns the constant representing the minimum tickSpacing for an initialized pool key"
      },
      "allowance(address,address,uint256)": {
        "notice": "Spender allowance of an id."
      },
      "approve(address,uint256,uint256)": {
        "notice": "Approves an amount of an id to a spender."
      },
      "balanceOf(address,uint256)": {
        "notice": "Owner balance of an id."
      },
      "burn(address,uint256,uint256)": {
        "notice": "Called by the user to move value from ERC6909 balance"
      },
      "donate((address,address,uint24,int24,address),uint256,uint256,bytes)": {
        "notice": "Donate the given currency amounts to the pool with the given pool key"
      },
      "extsload(bytes32)": {
        "notice": "Called by external contracts to access granular pool state"
      },
      "getLiquidity(bytes32)": {
        "notice": "Get the current value of liquidity of the given pool"
      },
      "getLiquidity(bytes32,address,int24,int24)": {
        "notice": "Get the current value of liquidity for the specified pool and position"
      },
      "getLockNonzeroDeltaCount()": {
        "notice": "Returns the number of nonzero deltas open on the PoolManager that must be zerod by the close of the initial lock."
      },
      "getLocker()": {
        "notice": "Returns the locker of the pool"
      },
      "getPoolBitmapInfo(bytes32,int16)": {
        "notice": "Getter for the bitmap given the poolId and word position"
      },
      "getPoolTickInfo(bytes32,int24)": {
        "notice": "Getter for TickInfo for the given poolId and tick"
      },
      "getSlot0(bytes32)": {
        "notice": "Get the current value in slot0 of the given pool"
      },
      "initialize((address,address,uint24,int24,address),uint160,bytes)": {
        "notice": "Initialize the state for a given pool ID"
      },
      "isOperator(address,address)": {
        "notice": "Checks if a spender is approved by an owner as an operator"
      },
      "lock(bytes)": {
        "notice": "All operations go through this function"
      },
      "mint(address,uint256,uint256)": {
        "notice": "Called by the user to move value into ERC6909 balance"
      },
      "modifyLiquidity((address,address,uint24,int24,address),(int24,int24,int256),bytes)": {
        "notice": "Modify the liquidity for the given pool"
      },
      "protocolFeesAccrued(address)": {
        "notice": "Given a currency address, returns the protocol fees accrued in that currency"
      },
      "reservesOf(address)": {
        "notice": "Returns the reserves for a given ERC20 currency"
      },
      "setProtocolFee((address,address,uint24,int24,address))": {
        "notice": "Sets the protocol's swap fee for the given pool Protocol fees are always a portion of the LP swap fee that is owed. If that fee is 0, no protocol fees will accrue even if it is set to > 0."
      },
      "settle(address)": {
        "notice": "Called by the user to pay what is owed"
      },
      "swap((address,address,uint24,int24,address),(bool,int256,uint160),bytes)": {
        "notice": "Swap against the given pool"
      },
      "take(address,address,uint256)": {
        "notice": "Called by the user to net out some value owed to the user"
      },
      "transfer(address,uint256,uint256)": {
        "notice": "Transfers an amount of an id from the caller to a receiver."
      },
      "transferFrom(address,address,uint256,uint256)": {
        "notice": "Transfers an amount of an id from a sender to a receiver."
      },
      "updateDynamicSwapFee((address,address,uint24,int24,address))": {
        "notice": "Updates the pools swap fees for the a pool that has enabled dynamic swap fees."
      }
    },
    "notice": "Holds the state for all pools",
    "version": 1
  },
  "storageLayout": {
    "storage": [
      {
        "astId": 7972,
        "contract": "contracts/Uniswap/V4-Core/PoolManager.sol:PoolManager",
        "label": "owner",
        "offset": 0,
        "slot": "0",
        "type": "t_address"
      },
      {
        "astId": 7974,
        "contract": "contracts/Uniswap/V4-Core/PoolManager.sol:PoolManager",
        "label": "STORAGE_PLACEHOLDER",
        "offset": 20,
        "slot": "0",
        "type": "t_bytes12"
      },
      {
        "astId": 7666,
        "contract": "contracts/Uniswap/V4-Core/PoolManager.sol:PoolManager",
        "label": "protocolFeesAccrued",
        "offset": 0,
        "slot": "1",
        "type": "t_mapping(t_userDefinedValueType(Currency)15324,t_uint256)"
      },
      {
        "astId": 7669,
        "contract": "contracts/Uniswap/V4-Core/PoolManager.sol:PoolManager",
        "label": "protocolFeeController",
        "offset": 0,
        "slot": "2",
        "type": "t_contract(IProtocolFeeController)9835"
      },
      {
        "astId": 7272,
        "contract": "contracts/Uniswap/V4-Core/PoolManager.sol:PoolManager",
        "label": "isOperator",
        "offset": 0,
        "slot": "3",
        "type": "t_mapping(t_address,t_mapping(t_address,t_bool))"
      },
      {
        "astId": 7278,
        "contract": "contracts/Uniswap/V4-Core/PoolManager.sol:PoolManager",
        "label": "balanceOf",
        "offset": 0,
        "slot": "4",
        "type": "t_mapping(t_address,t_mapping(t_uint256,t_uint256))"
      },
      {
        "astId": 7286,
        "contract": "contracts/Uniswap/V4-Core/PoolManager.sol:PoolManager",
        "label": "allowance",
        "offset": 0,
        "slot": "5",
        "type": "t_mapping(t_address,t_mapping(t_address,t_mapping(t_uint256,t_uint256)))"
      },
      {
        "astId": 8134,
        "contract": "contracts/Uniswap/V4-Core/PoolManager.sol:PoolManager",
        "label": "currencyDelta",
        "offset": 0,
        "slot": "6",
        "type": "t_mapping(t_address,t_mapping(t_userDefinedValueType(Currency)15324,t_int256))"
      },
      {
        "astId": 8141,
        "contract": "contracts/Uniswap/V4-Core/PoolManager.sol:PoolManager",
        "label": "reservesOf",
        "offset": 0,
        "slot": "7",
        "type": "t_mapping(t_userDefinedValueType(Currency)15324,t_uint256)"
      },
      {
        "astId": 8147,
        "contract": "contracts/Uniswap/V4-Core/PoolManager.sol:PoolManager",
        "label": "pools",
        "offset": 0,
        "slot": "8",
        "type": "t_mapping(t_userDefinedValueType(PoolId)15601,t_struct(State)11655_storage)"
      }
    ],
    "types": {
      "t_address": {
        "encoding": "inplace",
        "label": "address",
        "numberOfBytes": "20"
      },
      "t_bool": {
        "encoding": "inplace",
        "label": "bool",
        "numberOfBytes": "1"
      },
      "t_bytes12": {
        "encoding": "inplace",
        "label": "bytes12",
        "numberOfBytes": "12"
      },
      "t_bytes32": {
        "encoding": "inplace",
        "label": "bytes32",
        "numberOfBytes": "32"
      },
      "t_contract(IProtocolFeeController)9835": {
        "encoding": "inplace",
        "label": "contract IProtocolFeeController",
        "numberOfBytes": "20"
      },
      "t_int128": {
        "encoding": "inplace",
        "label": "int128",
        "numberOfBytes": "16"
      },
      "t_int16": {
        "encoding": "inplace",
        "label": "int16",
        "numberOfBytes": "2"
      },
      "t_int24": {
        "encoding": "inplace",
        "label": "int24",
        "numberOfBytes": "3"
      },
      "t_int256": {
        "encoding": "inplace",
        "label": "int256",
        "numberOfBytes": "32"
      },
      "t_mapping(t_address,t_bool)": {
        "encoding": "mapping",
        "key": "t_address",
        "label": "mapping(address => bool)",
        "numberOfBytes": "32",
        "value": "t_bool"
      },
      "t_mapping(t_address,t_mapping(t_address,t_bool))": {
        "encoding": "mapping",
        "key": "t_address",
        "label": "mapping(address => mapping(address => bool))",
        "numberOfBytes": "32",
        "value": "t_mapping(t_address,t_bool)"
      },
      "t_mapping(t_address,t_mapping(t_address,t_mapping(t_uint256,t_uint256)))": {
        "encoding": "mapping",
        "key": "t_address",
        "label": "mapping(address => mapping(address => mapping(uint256 => uint256)))",
        "numberOfBytes": "32",
        "value": "t_mapping(t_address,t_mapping(t_uint256,t_uint256))"
      },
      "t_mapping(t_address,t_mapping(t_uint256,t_uint256))": {
        "encoding": "mapping",
        "key": "t_address",
        "label": "mapping(address => mapping(uint256 => uint256))",
        "numberOfBytes": "32",
        "value": "t_mapping(t_uint256,t_uint256)"
      },
      "t_mapping(t_address,t_mapping(t_userDefinedValueType(Currency)15324,t_int256))": {
        "encoding": "mapping",
        "key": "t_address",
        "label": "mapping(address => mapping(Currency => int256))",
        "numberOfBytes": "32",
        "value": "t_mapping(t_userDefinedValueType(Currency)15324,t_int256)"
      },
      "t_mapping(t_bytes32,t_struct(Info)13214_storage)": {
        "encoding": "mapping",
        "key": "t_bytes32",
        "label": "mapping(bytes32 => struct Position.Info)",
        "numberOfBytes": "32",
        "value": "t_struct(Info)13214_storage"
      },
      "t_mapping(t_int16,t_uint256)": {
        "encoding": "mapping",
        "key": "t_int16",
        "label": "mapping(int16 => uint256)",
        "numberOfBytes": "32",
        "value": "t_uint256"
      },
      "t_mapping(t_int24,t_struct(TickInfo)11630_storage)": {
        "encoding": "mapping",
        "key": "t_int24",
        "label": "mapping(int24 => struct Pool.TickInfo)",
        "numberOfBytes": "32",
        "value": "t_struct(TickInfo)11630_storage"
      },
      "t_mapping(t_uint256,t_uint256)": {
        "encoding": "mapping",
        "key": "t_uint256",
        "label": "mapping(uint256 => uint256)",
        "numberOfBytes": "32",
        "value": "t_uint256"
      },
      "t_mapping(t_userDefinedValueType(Currency)15324,t_int256)": {
        "encoding": "mapping",
        "key": "t_userDefinedValueType(Currency)15324",
        "label": "mapping(Currency => int256)",
        "numberOfBytes": "32",
        "value": "t_int256"
      },
      "t_mapping(t_userDefinedValueType(Currency)15324,t_uint256)": {
        "encoding": "mapping",
        "key": "t_userDefinedValueType(Currency)15324",
        "label": "mapping(Currency => uint256)",
        "numberOfBytes": "32",
        "value": "t_uint256"
      },
      "t_mapping(t_userDefinedValueType(PoolId)15601,t_struct(State)11655_storage)": {
        "encoding": "mapping",
        "key": "t_userDefinedValueType(PoolId)15601",
        "label": "mapping(PoolId => struct Pool.State)",
        "numberOfBytes": "32",
        "value": "t_struct(State)11655_storage"
      },
      "t_struct(Info)13214_storage": {
        "encoding": "inplace",
        "label": "struct Position.Info",
        "members": [
          {
            "astId": 13209,
            "contract": "contracts/Uniswap/V4-Core/PoolManager.sol:PoolManager",
            "label": "liquidity",
            "offset": 0,
            "slot": "0",
            "type": "t_uint128"
          },
          {
            "astId": 13211,
            "contract": "contracts/Uniswap/V4-Core/PoolManager.sol:PoolManager",
            "label": "feeGrowthInside0LastX128",
            "offset": 0,
            "slot": "1",
            "type": "t_uint256"
          },
          {
            "astId": 13213,
            "contract": "contracts/Uniswap/V4-Core/PoolManager.sol:PoolManager",
            "label": "feeGrowthInside1LastX128",
            "offset": 0,
            "slot": "2",
            "type": "t_uint256"
          }
        ],
        "numberOfBytes": "96"
      },
      "t_struct(Slot0)11621_storage": {
        "encoding": "inplace",
        "label": "struct Pool.Slot0",
        "members": [
          {
            "astId": 11614,
            "contract": "contracts/Uniswap/V4-Core/PoolManager.sol:PoolManager",
            "label": "sqrtPriceX96",
            "offset": 0,
            "slot": "0",
            "type": "t_uint160"
          },
          {
            "astId": 11616,
            "contract": "contracts/Uniswap/V4-Core/PoolManager.sol:PoolManager",
            "label": "tick",
            "offset": 20,
            "slot": "0",
            "type": "t_int24"
          },
          {
            "astId": 11618,
            "contract": "contracts/Uniswap/V4-Core/PoolManager.sol:PoolManager",
            "label": "protocolFee",
            "offset": 23,
            "slot": "0",
            "type": "t_uint16"
          },
          {
            "astId": 11620,
            "contract": "contracts/Uniswap/V4-Core/PoolManager.sol:PoolManager",
            "label": "swapFee",
            "offset": 25,
            "slot": "0",
            "type": "t_uint24"
          }
        ],
        "numberOfBytes": "32"
      },
      "t_struct(State)11655_storage": {
        "encoding": "inplace",
        "label": "struct Pool.State",
        "members": [
          {
            "astId": 11634,
            "contract": "contracts/Uniswap/V4-Core/PoolManager.sol:PoolManager",
            "label": "slot0",
            "offset": 0,
            "slot": "0",
            "type": "t_struct(Slot0)11621_storage"
          },
          {
            "astId": 11636,
            "contract": "contracts/Uniswap/V4-Core/PoolManager.sol:PoolManager",
            "label": "feeGrowthGlobal0X128",
            "offset": 0,
            "slot": "1",
            "type": "t_uint256"
          },
          {
            "astId": 11638,
            "contract": "contracts/Uniswap/V4-Core/PoolManager.sol:PoolManager",
            "label": "feeGrowthGlobal1X128",
            "offset": 0,
            "slot": "2",
            "type": "t_uint256"
          },
          {
            "astId": 11640,
            "contract": "contracts/Uniswap/V4-Core/PoolManager.sol:PoolManager",
            "label": "liquidity",
            "offset": 0,
            "slot": "3",
            "type": "t_uint128"
          },
          {
            "astId": 11645,
            "contract": "contracts/Uniswap/V4-Core/PoolManager.sol:PoolManager",
            "label": "ticks",
            "offset": 0,
            "slot": "4",
            "type": "t_mapping(t_int24,t_struct(TickInfo)11630_storage)"
          },
          {
            "astId": 11649,
            "contract": "contracts/Uniswap/V4-Core/PoolManager.sol:PoolManager",
            "label": "tickBitmap",
            "offset": 0,
            "slot": "5",
            "type": "t_mapping(t_int16,t_uint256)"
          },
          {
            "astId": 11654,
            "contract": "contracts/Uniswap/V4-Core/PoolManager.sol:PoolManager",
            "label": "positions",
            "offset": 0,
            "slot": "6",
            "type": "t_mapping(t_bytes32,t_struct(Info)13214_storage)"
          }
        ],
        "numberOfBytes": "224"
      },
      "t_struct(TickInfo)11630_storage": {
        "encoding": "inplace",
        "label": "struct Pool.TickInfo",
        "members": [
          {
            "astId": 11623,
            "contract": "contracts/Uniswap/V4-Core/PoolManager.sol:PoolManager",
            "label": "liquidityGross",
            "offset": 0,
            "slot": "0",
            "type": "t_uint128"
          },
          {
            "astId": 11625,
            "contract": "contracts/Uniswap/V4-Core/PoolManager.sol:PoolManager",
            "label": "liquidityNet",
            "offset": 16,
            "slot": "0",
            "type": "t_int128"
          },
          {
            "astId": 11627,
            "contract": "contracts/Uniswap/V4-Core/PoolManager.sol:PoolManager",
            "label": "feeGrowthOutside0X128",
            "offset": 0,
            "slot": "1",
            "type": "t_uint256"
          },
          {
            "astId": 11629,
            "contract": "contracts/Uniswap/V4-Core/PoolManager.sol:PoolManager",
            "label": "feeGrowthOutside1X128",
            "offset": 0,
            "slot": "2",
            "type": "t_uint256"
          }
        ],
        "numberOfBytes": "96"
      },
      "t_uint128": {
        "encoding": "inplace",
        "label": "uint128",
        "numberOfBytes": "16"
      },
      "t_uint16": {
        "encoding": "inplace",
        "label": "uint16",
        "numberOfBytes": "2"
      },
      "t_uint160": {
        "encoding": "inplace",
        "label": "uint160",
        "numberOfBytes": "20"
      },
      "t_uint24": {
        "encoding": "inplace",
        "label": "uint24",
        "numberOfBytes": "3"
      },
      "t_uint256": {
        "encoding": "inplace",
        "label": "uint256",
        "numberOfBytes": "32"
      },
      "t_userDefinedValueType(Currency)15324": {
        "encoding": "inplace",
        "label": "Currency",
        "numberOfBytes": "20"
      },
      "t_userDefinedValueType(PoolId)15601": {
        "encoding": "inplace",
        "label": "PoolId",
        "numberOfBytes": "32"
      }
    }
  }
}