{
  "address": "0xc2F7A3470ba8263A03E29bc7E29644Bd4283475b",
  "abi": [
    {
      "inputs": [
        {
          "internalType": "address",
          "name": "poolManager",
          "type": "address"
        },
        {
          "internalType": "bytes32",
          "name": "salt",
          "type": "bytes32"
        }
      ],
      "name": "deploy",
      "outputs": [],
      "stateMutability": "nonpayable",
      "type": "function"
    },
    {
      "inputs": [
        {
          "internalType": "uint256",
          "name": "start",
          "type": "uint256"
        },
        {
          "internalType": "contract IPoolManager",
          "name": "poolManager",
          "type": "address"
        }
      ],
      "name": "findSalt",
      "outputs": [
        {
          "internalType": "bool",
          "name": "works",
          "type": "bool"
        },
        {
          "internalType": "address",
          "name": "finalAddress",
          "type": "address"
        },
        {
          "internalType": "bytes32",
          "name": "rightSalt",
          "type": "bytes32"
        }
      ],
      "stateMutability": "view",
      "type": "function"
    },
    {
      "inputs": [
        {
          "internalType": "address",
          "name": "",
          "type": "address"
        },
        {
          "internalType": "address",
          "name": "poolManager",
          "type": "address"
        },
        {
          "internalType": "bytes32",
          "name": "salt",
          "type": "bytes32"
        }
      ],
      "name": "getPrecomputedHookAddress",
      "outputs": [
        {
          "internalType": "address",
          "name": "",
          "type": "address"
        }
      ],
      "stateMutability": "view",
      "type": "function"
    },
    {
      "inputs": [
        {
          "internalType": "uint256",
          "name": "",
          "type": "uint256"
        }
      ],
      "name": "hooks",
      "outputs": [
        {
          "internalType": "address",
          "name": "",
          "type": "address"
        }
      ],
      "stateMutability": "view",
      "type": "function"
    }
  ],
  "transactionHash": "0x43b7cfed2f8ab7b85366a0c3f301e89ce207a0e84c0c08ab985d5d74c10d522e",
  "args": [],
  "numDeployments": 1,
  "solcInputHash": "7a0c43d181ff6dfc96b9087e32fe29a6",
  "bytecode": "0x608060405234801561000f575f80fd5b5061342f8061001d5f395ff3fe608060405234801562000010575f80fd5b506004361062000050575f3560e01c806306af90a4146200005457806332c02a141462000083578063864c17d7146200009c578063c24485e414620000b3575b5f80fd5b6200006b62000065366004620003d5565b620000f0565b6040516200007a919062000418565b60405180910390f35b6200009a620000943660046200042c565b620001a4565b005b6200006b620000ad36600462000459565b62000215565b620000ca620000c436600462000471565b6200023d565b6040805193151584526001600160a01b039092166020840152908201526060016200007a565b5f80604051806020016200010490620003af565b601f1982820381018352601f9091011660408190526200012990869060200162000418565b60408051601f1981840301815290829052620001499291602001620004d1565b60408051601f1981840301815290829052805160209182012092505f9162000182916001600160f81b03199130918891879101620004f1565b60408051808303601f1901815291905280516020909101209695505050505050565b5f8183604051620001b590620003af565b620001c1919062000418565b8190604051809103905ff5905080158015620001df573d5f803e3d5ffd5b5081546001810183555f928352602090922090910180546001600160a01b0319166001600160a01b039092169190911790555050565b5f818154811062000224575f80fd5b5f918252602090912001546001600160a01b0316905081565b5f805f80600160991b600160951b1790505f805f620002a4893086604051806020016200026a90620003af565b601f1982820381018352601f9091011660408190526200028f908e9060200162000418565b604051602081830303815290604052620002b6565b91985096509450505050509250925092565b5f805f805f8686604051602001620002d0929190620004d1565b60408051601f198184030181529190529050895b620002f28b61271062000525565b8110156200035257620003078a82846200036a565b9250610fff60941b83166001600160a01b038a161480156200033157506001600160a01b0383163b155b156200034957600195509193509091506200035f9050565b600101620002e4565b505f945084935083925050505b955095509592505050565b5f60ff60f81b848484805190602001206040516020016200038f9493929190620004f1565b60408051601f198184030181529190528051602090910120949350505050565b612eae806200054c83390190565b6001600160a01b0381168114620003d2575f80fd5b50565b5f805f60608486031215620003e8575f80fd5b8335620003f581620003bd565b925060208401356200040781620003bd565b929592945050506040919091013590565b6001600160a01b0391909116815260200190565b5f80604083850312156200043e575f80fd5b82356200044b81620003bd565b946020939093013593505050565b5f602082840312156200046a575f80fd5b5035919050565b5f806040838503121562000483575f80fd5b8235915060208301356200049781620003bd565b809150509250929050565b5f81515f5b81811015620004c35760208185018101518683015201620004a7565b505f93019283525090919050565b5f620004e9620004e28386620004a2565b84620004a2565b949350505050565b6001600160f81b031994909416845260609290921b6001600160601b03191660018401526015830152603582015260550190565b808201808211156200054557634e487b7160e01b5f52601160045260245ffd5b9291505056fe60a060405234801562000010575f80fd5b5060405162002eae38038062002eae83398101604081905262000033916200033b565b6001600160a01b038116608052806200004c3062000054565b50506200036a565b6200011a816200011460408051610160810182525f80825260208201819052918101829052606081018290526080810182905260a0810182905260c0810182905260e08101829052610100810182905261012081018290526101408101919091525060408051610160810182525f80825260208201819052918101829052606081018290526080810182905260a08101829052600160c0820181905260e08201839052610100820183905261012082019290925261014081019190915290565b6200011d565b50565b620001366001600160a01b0383166001609f1b6200032c565b815115159015151415806200016b57506200015f6001600160a01b0383166001609e1b6200032c565b15158160200151151514155b806200019757506200018b6001600160a01b0383166001609d1b6200032c565b15158160400151151514155b80620001c35750620001b76001600160a01b0383166001609c1b6200032c565b15158160600151151514155b80620001ef5750620001e36001600160a01b0383166001609b1b6200032c565b15158160800151151514155b806200021b57506200020f6001600160a01b0383166001609a1b6200032c565b15158160a00151151514155b806200024757506200023b6001600160a01b038316600160991b6200032c565b15158160c00151151514155b80620002735750620002676001600160a01b038316600160981b6200032c565b15158160e00151151514155b80620002a05750620002936001600160a01b038316600160971b6200032c565b1515816101000151151514155b80620002cd5750620002c06001600160a01b038316600160961b6200032c565b1515816101200151151514155b80620002fa5750620002ed6001600160a01b038316600160951b6200032c565b1515816101400151151514155b156200032857604051630732d7b560e51b81526001600160a01b038316600482015260240160405180910390fd5b5050565b166001600160a01b0316151590565b5f602082840312156200034c575f80fd5b81516001600160a01b038116811462000363575f80fd5b9392505050565b608051612a98620004165f395f818161050f0152818161053e01528181610b5701528181610bf801528181610cac01528181610d4801528181610d8401528181610e3f01528181610ed201528181610f6501528181610ffa0152818161108e015281816110cc01528181611164015281816111a50152818161122f015281816112cf0152818161139e01528181611434015281816116de015281816118b801526119d90152612a985ff3fe60806040526004361061010f575f3560e01c806315c7afb4146101135780632b58404e146101485780633440d8201461018c578063575e24b4146101ab5780635c338d32146101ca578063819912a214610203578063a6ab2a4314610241578063a910f80f1461026c578063ab6291fe14610286578063b47b2fb1146102a5578063b505b4ce146102d1578063b6a8b0fa146102eb578063b845955514610305578063c3d5d4e6146102d1578063c3fe3e2814610330578063c4e833ce1461035c578063c69399571461042f578063c9b5016a1461045a578063d1da87a014610480578063dacdbe77146104a8578063db6a9451146104d3578063dc4c90d3146104fe578063e1b4af69146102eb575b5f80fd5b34801561011e575f80fd5b5061013261012d366004611e7f565b610531565b60405161013f9190611f1c565b60405180910390f35b348015610153575f80fd5b50610173610162366004611f54565b6315ac202760e11b95945050505050565b6040516001600160e01b0319909116815260200161013f565b348015610197575f80fd5b506101736101a6366004611fca565b61061a565b3480156101b6575f80fd5b506101736101c5366004611f54565b610634565b3480156101d5575f80fd5b506101f56101e4366004612023565b5f6020819052908152604090205481565b60405190815260200161013f565b34801561020e575f80fd5b5061023f61021d36600461203a565b600980546001600160a01b0319166001600160a01b0392909216919091179055565b005b34801561024c575f80fd5b5061017361025b366004611f54565b63a6ab2a4360e01b95945050505050565b348015610277575f80fd5b506101736101a6366004612063565b348015610291575f80fd5b506101326102a03660046120ec565b610e32565b3480156102b0575f80fd5b506101736102bf36600461212a565b63b47b2fb160e01b9695505050505050565b3480156102dc575f80fd5b506101736101a636600461212a565b3480156102f6575f80fd5b506101736101a636600461218c565b348015610310575f80fd5b506101f561031f366004612023565b600c6020525f908152604090205481565b34801561033b575f80fd5b5060095461034f906001600160a01b031681565b60405161013f91906121e5565b348015610367575f80fd5b5061042260408051610160810182525f80825260208201819052918101829052606081018290526080810182905260a0810182905260c0810182905260e08101829052610100810182905261012081018290526101408101919091525060408051610160810182525f80825260208201819052918101829052606081018290526080810182905260a08101829052600160c0820181905260e08201839052610100820183905261012082019290925261014081019190915290565b60405161013f91906121f9565b34801561043a575f80fd5b506101f5610449366004612023565b60026020525f908152604090205481565b61046d610468366004612380565b611799565b60405160029190910b815260200161013f565b61049361048e3660046123e7565b61198f565b6040805192835260208301919091520161013f565b3480156104b3575f80fd5b506101f56104c2366004612023565b60016020525f908152604090205481565b3480156104de575f80fd5b506101f56104ed366004612023565b60036020525f908152604090205481565b348015610509575f80fd5b5061034f7f000000000000000000000000000000000000000000000000000000000000000081565b6060336001600160a01b037f0000000000000000000000000000000000000000000000000000000000000000161461057c5760405163570c108560e11b815260040160405180910390fd5b5f80306001600160a01b03168585604051610598929190612438565b5f604051808303815f865af19150503d805f81146105d1576040519150601f19603f3d011682016040523d82523d5f602084013e6105d6565b606091505b509150915081156105ea5791506106139050565b80515f0361060b576040516314815f4760e31b815260040160405180910390fd5b805160208201fd5b9392505050565b5f604051630a85dc2960e01b815260040160405180910390fd5b5f805f85602001351261064b578460200135610658565b610658602086013561245b565b9050805f8061066a6020890189612482565b6106905761067e60408a0160208b0161203a565b61068b60208b018b61203a565b6106ad565b61069d60208a018a61203a565b6106ad60408b0160208c0161203a565b9150915060095f9054906101000a90046001600160a01b03166001600160a01b03166303528f346040518163ffffffff1660e01b8152600401602060405180830381865afa158015610701573d5f803e3d5ffd5b505050506040513d601f19601f82011682018060405250810190610725919061249d565b6001600160a01b0316816001600160a01b031614610a655760085481906001600160a01b03166107915760405162461bcd60e51b815260206004820152601260248201527126bab9ba103430bb32903732bb903ab9b2b960711b60448201526064015b60405180910390fd5b6009546008546040516303f8318160e41b81525f926001600160a01b0390811692633f831810926107c892909116906004016121e5565b602060405180830381865afa1580156107e3573d5f803e3d5ffd5b505050506040513d601f19601f8201168201806040525081019061080791906124b8565b60405163a61b8c0b60e01b8152600481018290529091506001600160a01b0383169063a61b8c0b90602401602060405180830381865afa15801561084d573d5f803e3d5ffd5b505050506040513d601f19601f8201168201806040525081019061087191906124cf565b6108b25760405162461bcd60e51b815260206004820152601260248201527155736572206e6f74206f6e2073717561726560701b6044820152606401610788565b604051630e75722360e41b8152600481018290525f906001600160a01b0384169063e757223090602401602060405180830381865afa1580156108f7573d5f803e3d5ffd5b505050506040513d601f19601f8201168201806040525081019061091b91906124b8565b9050805f0361096a5760405162461bcd60e51b815260206004820152601b60248201527a05468652070726963652069732072657475726e696e67206173203602c1b6044820152606401610788565b61097481886124ea565b5f838152600c6020526040902054909750670de0b6b3a7640000116109d65760405162461bcd60e51b815260206004820152601860248201527743616e206e6f742062757920616e796d6f7265206865726560401b6044820152606401610788565b5f828152600c60205260409020546109f690670de0b6b3a7640000612509565b871115610a4c575f828152600c60205260408120670de0b6b3a764000090819055610a219089612509565b9050610a2d828261251c565b9050610a398188612509565b9650670de0b6b3a7640000975050610a5d565b5f828152600c602052604090208790555b505050610caa565b6009546008546040516303f8318160e41b815284925f926001600160a01b0391821692633f83181092610a9c9216906004016121e5565b602060405180830381865afa158015610ab7573d5f803e3d5ffd5b505050506040513d601f19601f82011682018060405250810190610adb91906124b8565b604051630e75722360e41b8152600481018290529091505f906001600160a01b0384169063e757223090602401602060405180830381865afa158015610b23573d5f803e3d5ffd5b505050506040513d601f19601f82011682018060405250810190610b4791906124b8565b9050610b53818861251c565b96507f00000000000000000000000000000000000000000000000000000000000000006001600160a01b031663f5298aca30610b97876001600160a01b0316611aa6565b8a6040518463ffffffff1660e01b8152600401610bb693929190612533565b5f604051808303815f87803b158015610bcd575f80fd5b505af1158015610bdf573d5f803e3d5ffd5b5050604051630b0d9c0960e01b81526001600160a01b037f0000000000000000000000000000000000000000000000000000000000000000169250630b0d9c099150610c3390879030908c90600401612554565b5f604051808303815f87803b158015610c4a575f80fd5b505af1158015610c5c573d5f803e3d5ffd5b50505050670de0b6b3a7640000871115610c83575f828152600c6020526040812055610ca6565b5f828152600c602052604081208054899290610ca0908490612509565b90915550505b5050505b7f00000000000000000000000000000000000000000000000000000000000000006001600160a01b031663156e29f630610cec856001600160a01b0316611aa6565b866040518463ffffffff1660e01b8152600401610d0b93929190612533565b5f604051808303815f87803b158015610d22575f80fd5b505af1158015610d34573d5f803e3d5ffd5b50610d6d925050506001600160a01b0382167f000000000000000000000000000000000000000000000000000000000000000086611ab2565b604051636a256b2960e01b81526001600160a01b037f00000000000000000000000000000000000000000000000000000000000000001690636a256b2990610db99084906004016121e5565b6020604051808303815f875af1158015610dd5573d5f803e3d5ffd5b505050506040513d601f19601f82011682018060405250810190610df991906124b8565b506040516304e6f4f760e41b60208201526024016040516020818303038152906040528051906020012094505050505095945050505050565b6060336001600160a01b037f00000000000000000000000000000000000000000000000000000000000000001614610e7d5760405163f655705d60e01b815260040160405180910390fd5b5f80808080610e8e87890189612578565b9450945094509450945080421115610ea4575f80fd5b5f83600103611566575f83815260066020526040908190209051633cf3645360e21b81526001600160a01b037f0000000000000000000000000000000000000000000000000000000000000000169163f3cd914c91610f07918991600401612609565b6020604051808303815f875af1158015610f23573d5f803e3d5ffd5b505050506040513d601f19601f82011682018060405250810190610f4791906124b8565b855160405163a54b283160e01b81529192505f916001600160a01b037f0000000000000000000000000000000000000000000000000000000000000000169163a54b283191610f9a913091600401612665565b602060405180830381865afa158015610fb5573d5f803e3d5ffd5b505050506040513d601f19601f82011682018060405250810190610fd991906124b8565b602087015160405163a54b283160e01b81529192505f916001600160a01b037f0000000000000000000000000000000000000000000000000000000000000000169163a54b28319161102f913091600401612665565b602060405180830381865afa15801561104a573d5f803e3d5ffd5b505050506040513d601f19601f8201168201806040525081019061106e91906124b8565b90505f82131561114257865161108690893085611b4a565b86516110b3907f000000000000000000000000000000000000000000000000000000000000000084611ba2565b8651604051636a256b2960e01b81526001600160a01b037f00000000000000000000000000000000000000000000000000000000000000001691636a256b299161110091906004016121e5565b6020604051808303815f875af115801561111c573d5f803e3d5ffd5b505050506040513d601f19601f8201168201806040525081019061114091906124b8565b505b5f81131561121b5761115a8760200151893084611b4a565b61118987602001517f000000000000000000000000000000000000000000000000000000000000000083611ba2565b6020870151604051636a256b2960e01b81526001600160a01b037f00000000000000000000000000000000000000000000000000000000000000001691636a256b29916111d991906004016121e5565b6020604051808303815f875af11580156111f5573d5f803e3d5ffd5b505050506040513d601f19601f8201168201806040525081019061121991906124b8565b505b5f8212156112c55786516001600160a01b037f00000000000000000000000000000000000000000000000000000000000000001690630b0d9c099030611262865f1961267f565b6040518463ffffffff1660e01b815260040161128093929190612554565b5f604051808303815f87803b158015611297575f80fd5b505af11580156112a9573d5f803e3d5ffd5b505088516112c592509050896112c0855f1961267f565b611ba2565b5f81121561136f577f00000000000000000000000000000000000000000000000000000000000000006001600160a01b0316630b0d9c09886020015130845f1961130f919061267f565b6040518463ffffffff1660e01b815260040161132d93929190612554565b5f604051808303815f87803b158015611344575f80fd5b505af1158015611356573d5f803e3d5ffd5b505050602088015161136f9150896112c0845f1961267f565b60078054905f61137e836126ae565b9091555050865160405163a54b283160e01b81525f916001600160a01b037f0000000000000000000000000000000000000000000000000000000000000000169163a54b2831916113d491309190600401612665565b602060405180830381865afa1580156113ef573d5f803e3d5ffd5b505050506040513d601f19601f8201168201806040525081019061141391906124b8565b602089015160405163a54b283160e01b81529192505f916001600160a01b037f0000000000000000000000000000000000000000000000000000000000000000169163a54b283191611469913091600401612665565b602060405180830381865afa158015611484573d5f803e3d5ffd5b505050506040513d601f19601f820116820180604052508101906114a891906124b8565b905081156114ee5760405162461bcd60e51b8152602060048201526013602482015272105b5bdd5b9d0c081b9bdd081cd95d1d1b1959606a1b6044820152606401610788565b80156115325760405162461bcd60e51b8152602060048201526013602482015272105b5bdd5b9d0c481b9bdd081cd95d1d1b1959606a1b6044820152606401610788565b60408051602081018690529081018490526060016040516020818303038152906040529a5050505050505050505050611793565b836063036117585760408051610100810182525f60608083018281526080840183905260a0840183905260c0840183905260e0840183905283526020830191909152918101919091525f8481526004602081815260409283902083516101008101855281546001600160a01b03908116606083019081526001840154808316608085015262ffffff600160a01b82041660a0850152600160b81b9004600290810b60c0850152840154821660e084015282526003830154169281019290925291820180549193840191611638906126c6565b80601f0160208091040260200160405190810160405280929190818152602001828054611664906126c6565b80156116af5780601f10611686576101008083540402835291602001916116af565b820191905f5260205f20905b81548152906001019060200180831161169257829003601f168201915b50505091909252505081516020830151604080850151905163695c5bf560e01b81529495506001600160a01b037f0000000000000000000000000000000000000000000000000000000000000000169463695c5bf59450611715939291906004016126f8565b6020604051808303815f875af1158015611731573d5f803e3d5ffd5b505050506040513d601f19601f820116820180604052508101906117559190612731565b50505b6117628160801c90565b60408051600f92830b60208201529183900b9082015260600160405160208183030381529060405296505050505050505b92915050565b5f6040518060600160405280878152602001866001600160a01b0316815260200185858080601f0160208091040260200160405190810160405280939291908181526020018383808284375f9201829052509390945250506005548152600460208181526040928390208551805182546001600160a01b03199081166001600160a01b0392831617845582850151600185018054858a015160608701519386166001600160b81b031990921691909117600160a01b62ffffff928316021762ffffff60b81b1916600160b81b9190931602919091179055608090920151600284018054841691831691909117905592870151600383018054909216931692909217909155918401519192508201906118b19082612797565b509050505f7f00000000000000000000000000000000000000000000000000000000000000006001600160a01b031663815483193389606360055488604051602001611901959493929190612856565b6040516020818303038152906040526040518263ffffffff1660e01b815260040161192c9190611f1c565b5f604051808303815f875af1158015611947573d5f803e3d5ffd5b505050506040513d5f823e601f3d908101601f1916820160405261196e9190810190612894565b9050808060200190518101906119849190612731565b979650505050505050565b6007545f908152600660205260408120819085906119ad8282612930565b5050600880546001600160a01b0319166001600160a01b03858116919091179091556007546040515f927f00000000000000000000000000000000000000000000000000000000000000001691638154831991611a159133918c916001918c90602001612988565b6040516020818303038152906040526040518263ffffffff1660e01b8152600401611a409190611f1c565b5f604051808303815f875af1158015611a5b573d5f803e3d5ffd5b505050506040513d5f823e601f3d908101601f19168201604052611a829190810190612894565b905080806020019051810190611a989190612a25565b925092505094509492505050565b6001600160a01b031690565b5f6001600160a01b038416611aee575f805f8085875af1905080611ae957604051633d2cec6f60e21b815260040160405180910390fd5b611b44565b60405163a9059cbb60e01b5f52836004528260245260205f60445f80895af13d15601f3d1160015f511416171691505f606052806040525080611b4457604051633c9fd93960e21b815260040160405180910390fd5b50505050565b611b44846323b872dd60e01b858585604051602401611b6b93929190612554565b60408051601f198184030181529190526020810180516001600160e01b03166001600160e01b031990931692909217909152611bd7565b6040516001600160a01b038316602482015260448101829052611bd290849063a9059cbb60e01b90606401611b6b565b505050565b5f611c2b826040518060400160405280602081526020017f5361666545524332303a206c6f772d6c6576656c2063616c6c206661696c6564815250856001600160a01b0316611caa9092919063ffffffff16565b905080515f1480611c4b575080806020019051810190611c4b91906124cf565b611bd25760405162461bcd60e51b815260206004820152602a60248201527f5361666545524332303a204552433230206f7065726174696f6e20646964206e6044820152691bdd081cdd58d8d9595960b21b6064820152608401610788565b6060611cb884845f85611cc0565b949350505050565b606082471015611d215760405162461bcd60e51b815260206004820152602660248201527f416464726573733a20696e73756666696369656e742062616c616e636520666f6044820152651c8818d85b1b60d21b6064820152608401610788565b5f80866001600160a01b03168587604051611d3c9190612a47565b5f6040518083038185875af1925050503d805f8114611d76576040519150601f19603f3d011682016040523d82523d5f602084013e611d7b565b606091505b50915091506119848783838760608315611df55782515f03611dee576001600160a01b0385163b611dee5760405162461bcd60e51b815260206004820152601d60248201527f416464726573733a2063616c6c20746f206e6f6e2d636f6e74726163740000006044820152606401610788565b5081611cb8565b611cb88383815115611e0a5781518083602001fd5b8060405162461bcd60e51b81526004016107889190611f1c565b6001600160a01b0381168114611e38575f80fd5b50565b5f8083601f840112611e4b575f80fd5b5081356001600160401b03811115611e61575f80fd5b602083019150836020828501011115611e78575f80fd5b9250929050565b5f805f60408486031215611e91575f80fd5b8335611e9c81611e24565b925060208401356001600160401b03811115611eb6575f80fd5b611ec286828701611e3b565b9497909650939450505050565b5f5b83811015611ee9578181015183820152602001611ed1565b50505f910152565b5f8151808452611f08816020860160208601611ecf565b601f01601f19169290920160200192915050565b602081525f6106136020830184611ef1565b5f60a08284031215611f3e575f80fd5b50919050565b5f60608284031215611f3e575f80fd5b5f805f805f6101408688031215611f69575f80fd5b8535611f7481611e24565b9450611f838760208801611f2e565b9350611f928760c08801611f44565b92506101208601356001600160401b03811115611fad575f80fd5b611fb988828901611e3b565b969995985093965092949392505050565b5f805f805f6101008688031215611fdf575f80fd5b8535611fea81611e24565b9450611ff98760208801611f2e565b935060c086013561200981611e24565b925060e08601356001600160401b03811115611fad575f80fd5b5f60208284031215612033575f80fd5b5035919050565b5f6020828403121561204a575f80fd5b813561061381611e24565b8060020b8114611e38575f80fd5b5f805f805f806101208789031215612079575f80fd5b863561208481611e24565b95506120938860208901611f2e565b945060c08701356120a381611e24565b935060e08701356120b381612055565b92506101008701356001600160401b038111156120ce575f80fd5b6120da89828a01611e3b565b979a9699509497509295939492505050565b5f80602083850312156120fd575f80fd5b82356001600160401b03811115612112575f80fd5b61211e85828601611e3b565b90969095509350505050565b5f805f805f806101608789031215612140575f80fd5b863561214b81611e24565b955061215a8860208901611f2e565b94506121698860c08901611f44565b935061012087013592506101408701356001600160401b038111156120ce575f80fd5b5f805f805f8061012087890312156121a2575f80fd5b86356121ad81611e24565b95506121bc8860208901611f2e565b945060c0870135935060e087013592506101008701356001600160401b038111156120ce575f80fd5b6001600160a01b0391909116815260200190565b81511515815261016081016020830151612217602084018215159052565b50604083015161222b604084018215159052565b50606083015161223f606084018215159052565b506080830151612253608084018215159052565b5060a083015161226760a084018215159052565b5060c083015161227b60c084018215159052565b5060e083015161228f60e084018215159052565b506101008381015115159083015261012080840151151590830152610140928301511515929091019190915290565b634e487b7160e01b5f52604160045260245ffd5b803562ffffff811681146122e4575f80fd5b919050565b5f60a082840312156122f9575f80fd5b60405160a081016001600160401b038111828210171561231b5761231b6122be565b604052905080823561232c81611e24565b8152602083013561233c81611e24565b602082015261234d604084016122d2565b6040820152606083013561236081612055565b6060820152608083013561237381611e24565b6080919091015292915050565b5f805f805f6101008688031215612395575f80fd5b61239f87876122e9565b945060a08601356123af81611e24565b935060c08601356001600160401b038111156123c9575f80fd5b6123d588828901611e3b565b96999598509660e00135949350505050565b5f805f8061014085870312156123fb575f80fd5b6124058686611f2e565b93506124148660a08701611f44565b9250610100850135915061012085013561242d81611e24565b939692955090935050565b818382375f9101908152919050565b634e487b7160e01b5f52601160045260245ffd5b5f600160ff1b820161246f5761246f612447565b505f0390565b8015158114611e38575f80fd5b5f60208284031215612492575f80fd5b813561061381612475565b5f602082840312156124ad575f80fd5b815161061381611e24565b5f602082840312156124c8575f80fd5b5051919050565b5f602082840312156124df575f80fd5b815161061381612475565b5f8261250457634e487b7160e01b5f52601260045260245ffd5b500490565b8181038181111561179357611793612447565b808202811582820484141761179357611793612447565b6001600160a01b039390931683526020830191909152604082015260600190565b6001600160a01b039384168152919092166020820152604081019190915260600190565b5f805f805f610120868803121561258d575f80fd5b853561259881611e24565b94506125a787602088016122e9565b949794965050505060c08301359260e081013592610100909101359150565b80516001600160a01b03908116835260208083015182169084015260408083015162ffffff169084015260608083015160020b9084015260809182015116910152565b5f61012061261783866125c6565b835460ff16151560a0840152600184015460c08401526002938401546001600160a01b031660e0840152610100830181905282019290925261060f60f31b6101408201526101600192915050565b6001600160a01b0392831681529116602082015260400190565b8082025f8212600160ff1b8414161561269a5761269a612447565b818105831482151761179357611793612447565b5f600182016126bf576126bf612447565b5060010190565b600181811c908216806126da57607f821691505b602082108103611f3e57634e487b7160e01b5f52602260045260245ffd5b61270281856125c6565b6001600160a01b03831660a082015260e060c082018190525f9061272890830184611ef1565b95945050505050565b5f60208284031215612741575f80fd5b815161061381612055565b601f821115611bd257805f5260205f20601f840160051c810160208510156127715750805b601f840160051c820191505b81811015612790575f815560010161277d565b5050505050565b81516001600160401b038111156127b0576127b06122be565b6127c4816127be84546126c6565b8461274c565b602080601f8311600181146127f7575f84156127e05750858301515b5f19600386901b1c1916600185901b17855561284e565b5f85815260208120601f198616915b8281101561282557888601518255948401946001909101908401612806565b508582101561284257878501515f19600388901b60f8161c191681555b505060018460011b0185555b505050505050565b6001600160a01b0386168152610120810161287460208301876125c6565b60ff851660c08301528360e0830152826101008301529695505050505050565b5f602082840312156128a4575f80fd5b81516001600160401b03808211156128ba575f80fd5b818401915084601f8301126128cd575f80fd5b8151818111156128df576128df6122be565b604051601f8201601f19908116603f01168101908382118183101715612907576129076122be565b8160405282815287602084870101111561291f575f80fd5b611984836020830160208801611ecf565b813561293b81612475565b815490151560ff1660ff19919091161781556020820135600182015560028101604083013561296981611e24565b81546001600160a01b0319166001600160a01b03919091161790555050565b6001600160a01b03868116825261012082019086356129a681611e24565b81811660208501525060208701356129bd81611e24565b81811660408501525062ffffff6129d6604089016122d2565b16606084015260608701356129ea81612055565b8060020b6080850152506080870135612a0281611e24565b1660a083015260ff851660c083015260e082019390935261010001529392505050565b5f8060408385031215612a36575f80fd5b505080516020909101519092909150565b5f8251612a58818460208701611ecf565b919091019291505056fea26469706673582212206f35e9f167eb8872c0f77b6138e3da146d17b8717079640f9802579d9698a2ed64736f6c63430008180033a2646970667358221220007b13477f388791e5da958cd91da33e2db0f2853071faeae1c500aab0ac4ba864736f6c63430008180033",
  "devdoc": {
    "kind": "dev",
    "methods": {},
    "version": 1
  },
  "userdoc": {
    "kind": "user",
    "methods": {},
    "version": 1
  },
  "storageLayout": {
    "storage": [
      {
        "astId": 2021,
        "contract": "contracts/Hooks/HooksFactory.sol:UniswapHooksFactory",
        "label": "hooks",
        "offset": 0,
        "slot": "0",
        "type": "t_array(t_address)dyn_storage"
      }
    ],
    "types": {
      "t_address": {
        "encoding": "inplace",
        "label": "address",
        "numberOfBytes": "20"
      },
      "t_array(t_address)dyn_storage": {
        "base": "t_address",
        "encoding": "dynamic_array",
        "label": "address[]",
        "numberOfBytes": "32"
      }
    }
  }
}